:100000000C9478000C944A020C9495000C94950082
:100010000C9495000C9441070C9495000C94950059
:100020000C9495000C9410040C9495000C9495007D
:100030000C9495000C9495000C9495000C949500EC
:100040000C9495000C9495000C9495000C94D60596
:100050000C9495000C9495000C9495000C949500CC
:100060000C9495000C9495000C9495000C949500BC
:100070000C9495000C9495000C94950016062F0690
:10008000480602071D071D071D07A407B107BE0785
:10009000D907E307D3087B0A7B0A7B0A7B0A7B0A22
:1000A0007B0A7B0A7B0A7B0A7B0A0F091C09290948
:1000B0007B0A7B0A7B0A7B0A7B0A7B0A7B0A7B0A18
:1000C0007B0A7B0A7B0A7B0A7B0A33093E096109AA
:1000D0007B0A7B0A7B0A7B0A7B0A7B0A7B0A7B0AF8
:1000E0007B0A7B0A7B0A7B0A7B0A9B09A609EE092D
:1000F00011241FBECFEFD8E0DEBFCDBF11E0A0E0DE
:10010000B1E0EEEEF2E302C005900D92AE33B1071E
:10011000D9F722E0AEE3B1E001C01D92A933B207E6
:10012000E1F70E94A10A0C9475190C940000CF937A
:10013000DF93CDB7DEB7F89481E0DF91CF910895DA
:10014000CF93DF9300D0CDB7DEB79A8389838FE555
:1001500090E029813A81F9012081FC01208300008F
:100160000F900F90DF91CF910895CF93DF9300D040
:1001700000D0CDB7DEB79C838B838FE590E0FC0188
:1001800080818A830E949700898319C02B813C81DA
:100190008B819C8180589F4FFC01318320832B8170
:1001A0003C818B819C818E579F4FFC013183208342
:1001B0008B819C818C579F4FFC0110821982898111
:1001C000882321F7CE0102960E94A00000000F9024
:1001D0000F900F900F90DF91CF910895CF93DF9301
:1001E00000D000D01F92CDB7DEB79C838B836D8388
:1001F0008B819C8180589F4FFC01808191812D8152
:10020000FC0120838B819C8180589F4FFC01808161
:1002100091819C012F5F3F4F8B819C8180589F4F24
:10022000FC01318320838B819C8180589F4FFC018E
:10023000208131818B819C8180589F4F28173907FD
:1002400049F42B813C818B819C8180589F4FFC011C
:10025000318320838FE590E0FC0180818A830E94B6
:10026000970089830FC08B819C818C579F4FFC0125
:10027000808121E0280F8B819C818C579F4FFC014E
:10028000208319828981882371F7CE0102960E940A
:10029000A00000000F900F900F900F900F90DF9133
:1002A000CF910895CF93DF9300D000D01F92CDB7A8
:1002B000DEB79D838C838C819D818E579F4FFC017F
:1002C00080819181FC0180818A838C819D818E5700
:1002D0009F4FFC01808191819C012F5F3F4F8C815A
:1002E0009D818E579F4FFC01318320838C819D819E
:1002F0008E579F4FFC01208131818C819D818058D8
:100300009F4F2817390749F42C813D818C819D81AD
:100310008E579F4FFC01318320838FE590E0FC01D5
:1003200080818B830E94970089830FC08C819D817F
:100330008C579F4FFC0180812FEF280F8C819D816E
:100340008C579F4FFC01208319828981882371F784
:10035000CE0103960E94A0008A810F900F900F900B
:100360000F900F90DF91CF910895CF93DF9300D03E
:1003700000D000D0CDB7DEB79D838C836E83198209
:100380008C819D818E579F4FFC01808191819B8341
:100390008A831CC08A819B81FC0190818E81981781
:1003A00019F489818F5F89838A819B8101969B8360
:1003B0008A838C819D8180589F4F2A813B81281799
:1003C000390721F48C819D819B838A838C819D8157
:1003D00080589F4FFC01208131818A819B812817A1
:1003E0003907C1F6898126960FB6F894DEBF0FBE95
:1003F000CDBFDF91CF910895CF93DF93CDB7DEB717
:1004000029970FB6F894DEBF0FBECDBF9D838C83B6
:100410007F836E83488729871A8219828C819D8108
:100420000E9452018B839B8188859817D1F489851E
:10043000882371F02E813F8189819A81820F931FD9
:100440002B81FC01208389819A8101969A8389837B
:100450002E813F8189819A81820F931FFC01108236
:100460000FC02E813F8189819A81820F931F2B813A
:10047000FC01208389819A8101969A838983CECF5A
:10048000000029960FB6F894DEBF0FBECDBFDF91F6
:10049000CF9108951F920F9200905F000F92112448
:1004A0002F933F934F938F939F93EF93FF93CF930C
:1004B000DF93CDB7DEB78BE290E02BE230E0F901BD
:1004C00020812260FC01208380913F01882309F470
:1004D000B5C080913C01843108F0ADC080913E01EF
:1004E000882F90E081309105D9F18230910509F48F
:1004F0006BC0892B09F07BC182E290E022E230E000
:10050000F9012081322F3F7020914201207F232B5F
:10051000FC01208385E290E025E230E0F9012081B2
:10052000322F307F209142012F70232BFC0120833A
:100530008BE290E02BE230E0F90120812860FC01A1
:1005400020838BE290E02BE230E0F9012081277FCD
:10055000FC01208380913E018F5F80933E0147C163
:1005600082E290E022E230E0F9012081322F3F70F8
:1005700020914101207F232BFC01208385E290E024
:1005800025E230E0F9012081322F307F20914101B6
:100590002F70232BFC0120838BE290E02BE230E0D4
:1005A000F90120812860FC0120838BE290E02BE29E
:1005B00030E0F9012081277FFC01208380913E01FA
:1005C0008F5F80933E0113C182E290E022E230E02F
:1005D000F9012081322F3F7020913D01207F232B94
:1005E000FC01208385E290E025E230E0F9012081E2
:1005F000322F307F20913D012F70232BFC0120836F
:100600008BE290E02BE230E0F90120812860FC01D0
:1006100020838BE290E02BE230E0F9012081277FFC
:10062000FC01208310923E0180913C018F5F8093FA
:100630003C010000DCC010924001D9C080913C0117
:10064000843108F0D2C080913E01882F90E0813043
:10065000910509F447C08230910509F483C0892BC4
:1006600009F0C5C082E290E022E230E0F901208189
:10067000422F4F7020913C01222F30E02C5E3E4FE4
:10068000F9012081207F242BFC01208385E290E06A
:1006900025E230E0F9012081422F407F20913C018A
:1006A000222F30E02C5E3E4FF90120812F70242B49
:1006B000FC0120838BE290E02BE230E0F901208105
:1006C0002860FC0120838BE290E02BE230E0F9010E
:1006D0002081277FFC01208380913E018F5F8093E2
:1006E0003E0185C082E290E022E230E0F901208103
:1006F000422F4F7020913C01222F30E020503F4F7D
:10070000F9012081207F242BFC01208385E290E0E9
:1007100025E230E0F9012081422F407F20913C0109
:10072000222F30E020503F4FF90120812F70242BE1
:10073000FC0120838BE290E02BE230E0F901208184
:100740002860FC0120838BE290E02BE230E0F9018D
:100750002081277FFC01208380913E018F5F809361
:100760003E0145C082E290E022E230E0F9012081C2
:10077000422F4F7020913C01222F30E0285D3E4FE8
:10078000F9012081207F242BFC01208385E290E069
:1007900025E230E0F9012081422F407F20913C0189
:1007A000222F30E0285D3E4FF90120812F70242B4D
:1007B000FC0120838BE290E02BE230E0F901208104
:1007C0002860FC0120838BE290E02BE230E0F9010D
:1007D0002081277FFC01208310923E0180913C0103
:1007E0008F5F80933C01000002C0109240018BE2B9
:1007F00090E02BE230E0F90120812D7FFC01208385
:100800000000DF91CF91FF91EF919F918F914F91D8
:100810003F912F910F9000925F000F901F901895BD
:100820001F920F9200905F000F921124AF92BF921F
:10083000CF92DF92EF92FF920F931F932F933F93EC
:100840004F935F936F937F938F939F93AF93BF93D8
:10085000EF93FF93CF93DF93CDB7DEB78BE290E0BA
:100860002BE230E0F90120812260FC01208380919D
:100870006E01882F90E08130910521F0029709F4F4
:10088000E9C014C180916701882309F472C0809186
:10089000630190916401A0916501B0916601019698
:1008A000A11DB11D8093630190936401A093650124
:1008B000B09366012091630130916401409165011C
:1008C0005091660180915F0190916001A09161015A
:1008D000B0916201281739074A075B0708F4E3C0A3
:1008E00010926301109264011092650110926601EA
:1008F00080915D0190915E01019690935E018093DD
:100900005D0180915D0190915E010E94E5168091EC
:100910005D0190915E01CC01A0E0B0E01F921F92BA
:100920001F9224E62F93A12CB12C6501E12CF12C10
:100930008701EA94F39420E030E0A901BC01CD01E5
:100940000E942B180F900F900F900F90DC01CB019D
:100950008093380220915D0130915E0180915901B0
:1009600090915A012817390708F49DC010926E0122
:100970009AC08091630190916401A0916501B0914A
:1009800066010196A11DB11D8093630190936401DE
:10099000A0936501B09366012091630130916401D9
:1009A000409165015091660180915F0190916001D5
:1009B000A0916101B0916201281739074A075B07CE
:1009C00008F471C0109263011092640110926501E5
:1009D0001092660180915D0190915E010197909364
:1009E0005E0180935D0180915D0190915E010E94A6
:1009F000E51680915D0190915E01CC01A0E0B0E030
:100A00001F921F921F9224E62F93A12CB12C6501F7
:100A1000E12CF12C8701EA94F39420E030E0A90165
:100A2000BC01CD010E942B180F900F900F900F90DA
:100A3000DC01CB018093380220915D0130915E0191
:100A40008091590190915A018217930760F1109299
:100A50006E0129C0209168013091690180916A017D
:100A600090916B012817390718F40E947D1502C078
:100A70000E948E1580916801909169010196909372
:100A8000690180936801209168013091690180912A
:100A90006C0190916D012817390738F010926901A7
:100AA0001092680102C0000001C000008091550151
:100AB000882309F448C080914F01882371F1809107
:100AC00050018823C1F48091530190915401019603
:100AD000909354018093530120915301309154011C
:100AE00080915101909152012817390760F181E0FE
:100AF0008093500128C08091530190915401019737
:100B0000909354018093530180915301909154012B
:100B1000892BC9F41092500116C080915301909115
:100B200054010196909354018093530120915301F5
:100B30003091540180915101909152012817390749
:100B400010F01092550180914001813049F482E00B
:100B50008093400110923E0110923C010E944A0293
:100B60008BE290E02BE230E0F90120812D7FFC0147
:100B700020830000DF91CF91FF91EF91BF91AF9162
:100B80009F918F917F916F915F914F913F912F91A5
:100B90001F910F91FF90EF90DF90CF90BF90AF909B
:100BA0000F9000925F000F901F9018951F920F9268
:100BB00000905F000F9211242F933F934F935F9308
:100BC0006F937F938F939F93AF93BF93EF93FF9315
:100BD000CF93DF931F92CDB7DEB78EE490E0FC0198
:100BE000808189838BE290E02BE230E0F901208163
:100BF0002260FC0120838EE490E0FC011082809151
:100C00003602882F90E0092E000CAA0BBB0B40E0A7
:100C100050E026E030E0841B950B2817390708F4D4
:100C200011C1825C9F4FFC010C944C198981833067
:100C300090F080913402882F90E08C509E4F298153
:100C4000FC012083809134028F5F8093340281E025
:100C500080933602F7C082E080933602F3C0809121
:100C60003402882F90E08C509E4F2981FC01208314
:100C7000809134028F5F809334029091340280918E
:100C8000F401981708F4DBC084E080933602D7C0E3
:100C9000109234028981882F90E0823F910579F18A
:100CA000833F910524F4813F910551F0A6C0833F15
:100CB000910509F443C0843F910509F45EC09DC0CD
:100CC0008EE490E021E0FC01208384E08093F40135
:100CD00089818093F501809137028093F60163E06A
:100CE00084EF91E00E94A2188093F70184E0809342
:100CF00034021092350283E08093360282C08EE483
:100D000090E021E0FC01208384E08093F40189815C
:100D10008093F501809138028093F60163E084EFBF
:100D200091E00E94A2188093F70184E0809334023E
:100D30001092350283E08093360263C08EE490E027
:100D400021E0FC01208384E08093F4018981809379
:100D5000F5010E943C178093F60163E084EF91E077
:100D60000E94A2188093F70184E0809334021092CD
:100D7000350283E08093360244C08EE490E021E0A7
:100D8000FC01208380916E01882309F187E0809324
:100D9000F40189818093F501809156018093F601D9
:100DA000809157018093F701809158018093F80159
:100DB000809138028093F90166E084EF91E00E940F
:100DC000A2188093FA0187E08093340210C083E078
:100DD0008093F40189818093F50162E084EF91E0D2
:100DE0000E94A2188093F60183E08093340210924F
:100DF000350283E08093360204C086E08093360299
:100E0000000020C08EE490E020913502222F30E0D7
:100E10002C503E4FF9012081FC0120838091350246
:100E20008F5F80933502909134028091350298173C
:100E300041F485E08093360204C0000003C0000046
:100E400001C000008BE290E02BE230E0F90120814C
:100E50002D7FFC01208300000F90DF91CF91FF9147
:100E6000EF91BF91AF919F918F917F916F915F9122
:100E70004F913F912F910F9000925F000F901F9024
:100E800018951F920F9200905F000F921124AF925D
:100E9000BF92CF92DF92EF92FF920F931F932F9307
:100EA0003F934F935F936F937F938F939F93AF93F2
:100EB000BF93EF93FF93CF93DF93CDB7DEB78BE272
:100EC00090E02BE230E0F90120812260FC012083D8
:100ED0008EE490E0FC01108283E290E0FC018081CE
:100EE000882F90E080719927892B09F4EAC28091BC
:100EF0003602843009F0FFC2909134028091F401EF
:100F0000981709F0F8C280913402682F84EF91E0BD
:100F10000E94A218882309F0EEC28091F501882F63
:100F200090E0092E000CAA0BBB0B41E150E022E33C
:100F300030E0841B950B2817390708F4DCC28B5B63
:100F40009F4FFC010C944C1980913402833009F0BE
:100F5000BDC20E947D158091370281608093370267
:100F6000B5C280913402833009F0B2C20E948E155E
:100F7000809137028E7F80933702AAC2809134021B
:100F8000843009F0A7C280916E01882309F0A2C2C3
:100F90008091F601853620F084E68093380204C003
:100FA0008091F60180933802809138020E94991650
:100FB00091C210926E010E948E15809137028E7F31
:100FC0008093370298C280913402863009F084C23F
:100FD0008091F601853620F084E68093560104C0A6
:100FE0008091F601809356018091F701853620F0BB
:100FF00084E68093570104C08091F70180935701E4
:1010000080915601882F90E0A0E0B0E01F921F92DF
:1010100021E02F932FEF2F93A12CB12C650114E623
:10102000E12EF12C00E010E020E030E0A901BC014D
:10103000CD010E942B180F900F900F900F90DC01A4
:10104000CB0190935C0180935B0180915701882FC5
:1010500090E0A0E0B0E01F921F9221E02F932FEFCD
:101060002F93A12CB12C650114E6E12EF12C00E0A8
:1010700010E020E030E0A901BC01CD010E942B1856
:101080000F900F900F900F90DC01CB0190935A01BD
:10109000809359018091F8018093580180915B0100
:1010A00090915C010E94E516809156018093380270
:1010B00080915B0190915C0190935E0180935D0152
:1010C0001092630110926401109265011092660102
:1010D0009091560180915701981758F580915801C9
:1010E000282F30E080E797E1289FA001299F500D2D
:1010F000389F500D11242091590130915A0180914F
:101100005B0190915C01281B390BCA01B9010E9457
:10111000F718CB01CC01A0E0B0E080935F01909381
:101120006001A0936101B093620181E08093670147
:101130002FC09091560180915701891748F58091F1
:101140005801282F30E080E797E1289FA001299FD0
:10115000500D389F500D112420915B0130915C019E
:101160008091590190915A01281B390BCA01B9018C
:101170000E94F718CB01CC01A0E0B0E080935F01A2
:1011800090936001A0936101B09362011092670196
:101190000E947D158091370281608093370281E043
:1011A00080936E0199C180913402863009F096C116
:1011B00010926901109268018091F701882F90E0E8
:1011C000880F991F90936B0180936A018091F701BA
:1011D000282F30E08091F801882F90E0820F931F34
:1011E000880F991F90936D0180936C018091F60197
:1011F000853620F084E68093380204C08091F601A1
:1012000080933802809138020E94991680913702AB
:1012100081608093370282E080936E015FC180918C
:101220003402833009F05CC10E94B9158091370205
:1012300082608093370254C180913402833009F078
:1012400051C10E949F15809137028D7F8093370294
:1012500049C180913402843009F046C18091F60181
:101260000E94331641C161E38FE691E00E94EE00D7
:101270006FEF8FE691E00E94EE003DC18091340255
:101280008630F9F462E38FE691E00E94EE008091EF
:10129000F601682F8FE691E00E94EE008091F70141
:1012A000682F8FE691E00E94EE008091F801682F90
:1012B0008FE691E00E94EE006FEF8FE691E00E94D2
:1012C000EE0080913402893009F010C163E38FE6AB
:1012D00091E00E94EE008091F601682F8FE691E088
:1012E0000E94EE008091F701682F8FE691E00E9446
:1012F000EE008091F801682F8FE691E00E94EE00E9
:101300008091F901682F8FE691E00E94EE008091B4
:10131000FA01682F8FE691E00E94EE008091FB01B8
:10132000682F8FE691E00E94EE006FEF8FE691E06C
:101330000E94EE00DBC061E48FE691E00E94EE00C7
:101340006FEF8FE691E00E94EE00D5C080913402ED
:101350008B3009F0CDC062E48FE691E00E94EE0090
:101360008091F601682F8FE691E00E94EE00809157
:10137000F701682F8FE691E00E94EE008091F8015E
:10138000682F8FE691E00E94EE008091F901682FAE
:101390008FE691E00E94EE008091FA01682F8FE6BF
:1013A00091E00E94EE008091FB01682F8FE691E0B2
:1013B0000E94EE008091FC01682F8FE691E00E9470
:1013C000EE008091FD01682F8FE691E00E94EE0013
:1013D0006FEF8FE691E00E94EE008AC080913402A8
:1013E000813109F087C063E48FE691E00E94EE004E
:1013F0008091F601682F8FE691E00E94EE008091C7
:10140000F701682F8FE691E00E94EE008091F801CD
:10141000682F8FE691E00E94EE008091F901682F1D
:101420008FE691E00E94EE008091FA01682F8FE62E
:1014300091E00E94EE008091FB01682F8FE691E021
:101440000E94EE008091FC01682F8FE691E00E94DF
:10145000EE008091FD01682F8FE691E00E94EE0082
:101460008091FE01682F8FE691E00E94EE0080914E
:10147000FF01682F8FE691E00E94EE00809100024C
:10148000682F8FE691E00E94EE0080910102682FA4
:101490008FE691E00E94EE0080910202682F8FE6B5
:1014A00091E00E94EE0080910302682F8FE691E0A8
:1014B0000E94EE006FEF8FE691E00E94EE000000C8
:1014C00019C0109234021092360215C0000013C0E9
:1014D000000011C000000FC000000DC000000BC0D4
:1014E000000009C0000007C0000005C0000003C0E4
:1014F000000001C000008BE290E02BE230E0F90137
:1015000020812D7FFC0120830000DF91CF91FF918E
:10151000EF91BF91AF919F918F917F916F915F916B
:101520004F913F912F911F910F91FF90EF90DF907E
:10153000CF90BF90AF900F9000925F000F901F90E0
:101540001895DF92EF92FF920F931F93CF93DF9343
:10155000CDB7DEB72E970FB6F894DEBF0FBECDBF66
:101560000E94EF140E94021780E090E00E9458163B
:101570000E94881684EF91E00E947D140E949D14C1
:101580000E94D0148FE691E00E94B5000E943614AC
:101590000E941B140E94A21784E690E00E94CF17BD
:1015A0000E9449168AE290E02AE230E0F9012081A7
:1015B0002260FC0120838BE290E02BE230E0F90115
:1015C00020812D7FFC0120838AE290E02AE230E036
:1015D000F90120812160FC0120838BE290E02BE265
:1015E00030E0F90120812E7FFC0120837894109255
:1015F0003F0110923E0110923C010E944A0284E693
:1016000090E00E94CF1761E38FE691E00E94EE0028
:101610006FEF8FE691E00E94EE0062E38FE691E0CB
:101620000E94EE0061E08FE691E00E94EE0061E032
:101630008FE691E00E94EE0060E18FE691E00E946B
:10164000EE006FEF8FE691E00E94EE0061E38FE61F
:1016500091E00E94EE006FEF8FE691E00E94EE00B5
:1016600062E38FE691E00E94EE0061E08FE691E098
:101670000E94EE0061E08FE691E00E94EE0060E1E2
:101680008FE691E00E94EE006FEF8FE691E00E94FE
:10169000EE0061E38FE691E00E94EE006FEF8FE6CF
:1016A00091E00E94EE0062E38FE691E00E94EE007E
:1016B00061E08FE691E00E94EE0061E08FE691E04C
:1016C0000E94EE0060E18FE691E00E94EE006FEF75
:1016D0008FE691E00E94EE0061E38FE691E00E94C8
:1016E000EE006FEF8FE691E00E94EE0062E38FE67E
:1016F00091E00E94EE0061E08FE691E00E94EE0032
:1017000061E08FE691E00E94EE0060E18FE691E0FB
:101710000E94EE006FEF8FE691E00E94EE0061E321
:101720008FE691E00E94EE006FEF8FE691E00E945D
:10173000EE0062E38FE691E00E94EE0061E08FE64A
:1017400091E00E94EE0061E08FE691E00E94EE00E1
:1017500060E18FE691E00E94EE006FEF8FE691E08E
:101760000E94EE0080915501882309F4D7C56FEFE0
:101770008FE691E00E94B501882309F4A9C0CE014B
:10178000079620E04FEFBC018FE691E00E94FC013C
:101790008F81882F90E08234910559F08334910530
:1017A00009F441C08134910509F092C010925501AD
:1017B0008FC0CE0107960E946C19099709F085C069
:1017C00088858150809343018985815080934401AD
:1017D0008A858150809345018B8581508093490192
:1017E0008C85815080934A018D85815080934B0177
:1017F0008E85282F30E048EC429FC001439F900D1A
:10180000112490935201809351018F8581508093D0
:101810004F0110925001109254011092530181E037
:101820008093550152C0CE0107960E946C190F9704
:1018300009F04DC08885815080934301898581508E
:10184000809344018A858150809345018B85815026
:10185000809346018C858150809347018D8581500E
:10186000809348018E858150809349018F858150F6
:1018700080934A018889815080934B0189898150E6
:1018800080934C018A89815080934D018B898150CE
:1018900080934E018C89282F30E048EC429FC00194
:1018A000439F900D112490935201809351018D8993
:1018B000815080934F011092500110925401109268
:1018C000530182E08093550102C0000001C0000076
:1018D00080914001882309F045CF8BE290E02BE214
:1018E00030E0F90120812160FC01208380915501C5
:1018F000882F90E08130910521F0029709F440C1D2
:1019000003C59091430180914901981788F5809112
:101910004901282F30E080914301882F90E0A901F0
:10192000481B590BCA019C01990F440B550B809120
:10193000530190915401CC01A0E0B0E0BC01CD0175
:101940000E94E7187B018C01809151019091520116
:101950009C0140E050E0C801B7010E940B19DA0178
:10196000C901982F80914301890F8093410131C0B3
:10197000D090430180914301282F30E080914901AC
:10198000882F90E0F901E81BF90BCF019C01990F1A
:10199000440B550B8091530190915401CC01A0E070
:1019A000B0E0BC01CD010E94E7187B018C01809161
:1019B0005101909152019C0140E050E0C801B701F3
:1019C0000E940B19DA01C901FD2DF81B8F2F80939E
:1019D00041019091440180914A01981788F58091C6
:1019E0004A01282F30E080914401882F90E0A9011E
:1019F000481B590BCA019C01990F440B550B809150
:101A0000530190915401CC01A0E0B0E0BC01CD01A4
:101A10000E94E7187B018C01809151019091520145
:101A20009C0140E050E0C801B7010E940B19DA01A7
:101A3000C901982F80914401890F8093420131C0E0
:101A4000D090440180914401282F30E080914A01D8
:101A5000882F90E0F901E81BF90BCF019C01990F49
:101A6000440B550B8091530190915401CC01A0E09F
:101A7000B0E0BC01CD010E94E7187B018C01809190
:101A80005101909152019C0140E050E0C801B70122
:101A90000E940B19DA01C901FD2DF81B8F2F8093CD
:101AA00042019091450180914B01981788F58091F2
:101AB0004B01282F30E080914501882F90E0A9014B
:101AC000481B590BCA019C01990F440B550B80917F
:101AD000530190915401CC01A0E0B0E0BC01CD01D4
:101AE0000E94E7187B018C01809151019091520175
:101AF0009C0140E050E0C801B7010E940B19DA01D7
:101B0000C901982F80914501890F80933D0131C013
:101B1000D090450180914501282F30E080914B0104
:101B2000882F90E0F901E81BF90BCF019C01990F78
:101B3000440B550B8091530190915401CC01A0E0CE
:101B4000B0E0BC01CD010E94E7187B018C018091BF
:101B50005101909152019C0140E050E0C801B70151
:101B60000E940B19DA01C901FD2DF81B8F2F8093FC
:101B70003D0181E080933F0181E080934001C4C337
:101B80008AE08E831A821982B0C3909143018091BA
:101B90004601981778F580914601282F30E0809112
:101BA0004301882F90E0A901481B590BCA019C01F1
:101BB000990F440B550B89819A81CC01A0E0B0E0CC
:101BC000BC01CD010E94E7187B018C018E81882F1A
:101BD00090E001979C01990F440B550BC801B70188
:101BE0000E940B19DA01C901982F80914301890FD6
:101BF0008C832FC0D090430180914301282F30E087
:101C000080914601882F90E0F901E81BF90BCF0184
:101C10009C01990F440B550B89819A81CC01A0E05E
:101C2000B0E0BC01CD010E94E7187B018C018E81E0
:101C3000882F90E001979C01990F440B550BC80128
:101C4000B7010E940B19DA01C901FD2DF81B8F2F76
:101C50008C839091490180914C01981778F580917F
:101C60004C01282F30E080914901882F90E0A90194
:101C7000481B590BCA019C01990F440B550B8981D4
:101C80009A81CC01A0E0B0E0BC01CD010E94E71830
:101C90007B018C018E81882F90E001979C01990F28
:101CA000440B550BC801B7010E940B19DA01C90199
:101CB000982F80914901890F8D832FC0D0904901C1
:101CC00080914901282F30E080914C01882F90E0CD
:101CD000F901E81BF90BCF019C01990F440B550B3F
:101CE00089819A81CC01A0E0B0E0BC01CD010E94C5
:101CF000E7187B018C018E81882F90E001979C0171
:101D0000990F440B550BC801B7010E940B19DA015A
:101D1000C901FD2DF81B8F2F8D839C818D81981714
:101D200068F58D81282F30E08C81882F90E0A90103
:101D3000481B590BCA019C01990F440B550B80910C
:101D4000530190915401CC01A0E0B0E0BC01CD0161
:101D50000E94E7187B018C01809151019091520102
:101D60009C0140E050E0C801B7010E940B19DA0164
:101D7000C901982F8C81890F8B832CC08C81282FCF
:101D800030E08D81882F90E0F901E81BF90BCF013D
:101D90009C01990F440B550B809153019091540174
:101DA000CC01A0E0B0E0BC01CD010E94E7187B01AE
:101DB0008C0180915101909152019C0140E050E0D2
:101DC000C801B7010E940B19DA01C901982F8C8153
:101DD000891B8B8389819A8180509F4F2B81FC01C5
:101DE000208323E130E089819A81A901481B590BA6
:101DF000CA0180509F4F2B81FC01208390914401A8
:101E000080914701981778F580914701282F30E09D
:101E100080914401882F90E0A901481B590BCA0109
:101E20009C01990F440B550B89819A81CC01A0E04C
:101E3000B0E0BC01CD010E94E7187B018C018E81CE
:101E4000882F90E001979C01990F440B550BC80116
:101E5000B7010E940B19DA01C901982F8091440142
:101E6000890F8C832FC0D090440180914401282F8A
:101E700030E080914701882F90E0F901E81BF90BD1
:101E8000CF019C01990F440B550B89819A81CC019C
:101E9000A0E0B0E0BC01CD010E94E7187B018C01FD
:101EA0008E81882F90E001979C01990F440B550B70
:101EB000C801B7010E940B19DA01C901FD2DF81BF9
:101EC0008F2F8C8390914A0180914D01981778F55E
:101ED00080914D01282F30E080914A01882F90E0B9
:101EE000A901481B590BCA019C01990F440B550BC2
:101EF00089819A81CC01A0E0B0E0BC01CD010E94B3
:101F0000E7187B018C018E81882F90E001979C015E
:101F1000990F440B550BC801B7010E940B19DA0148
:101F2000C901982F80914A01890F8D832FC0D090CD
:101F30004A0180914A01282F30E080914D01882F7D
:101F400090E0F901E81BF90BCF019C01990F440BBC
:101F5000550B89819A81CC01A0E0B0E0BC01CD0194
:101F60000E94E7187B018C018E81882F90E00197F9
:101F70009C01990F440B550BC801B7010E940B1926
:101F8000DA01C901FD2DF81B8F2F8D839C818D8176
:101F9000981768F58D81282F30E08C81882F90E08C
:101FA000A901481B590BCA019C01990F440B550B01
:101FB0008091530190915401CC01A0E0B0E0BC01AC
:101FC000CD010E94E7187B018C0180915101909115
:101FD00052019C0140E050E0C801B7010E940B197A
:101FE000DA01C901982F8C81890F8B832CC08C81D9
:101FF000282F30E08D81882F90E0F901E81BF90B44
:10200000CF019C01990F440B550B80915301909186
:102010005401CC01A0E0B0E0BC01CD010E94E71862
:102020007B018C0180915101909152019C0140E013
:1020300050E0C801B7010E940B19DA01C901982FBD
:102040008C81891B8B8389819A818C5E9E4F2B8129
:10205000FC01208323E130E089819A81A901481B9A
:10206000590BCA018C5E9E4F2B81FC0120839091FD
:10207000450180914801981778F580914801282FF3
:1020800030E080914501882F90E0A901481B590B51
:10209000CA019C01990F440B550B89819A81CC018F
:1020A000A0E0B0E0BC01CD010E94E7187B018C01EB
:1020B0008E81882F90E001979C01990F440B550B5E
:1020C000C801B7010E940B19DA01C901982F80914C
:1020D0004501890F8C832FC0D09045018091450127
:1020E000282F30E080914801882F90E0F901E81B0B
:1020F000F90BCF019C01990F440B550B89819A81F3
:10210000CC01A0E0B0E0BC01CD010E94E7187B014A
:102110008C018E81882F90E001979C01990F440BD0
:10212000550BC801B7010E940B19DA01C901FD2D39
:10213000F81B8F2F8C8390914B0180914E01981743
:1021400078F580914E01282F30E080914B01882F47
:1021500090E0A901481B590BCA019C01990F440B3F
:10216000550B89819A81CC01A0E0B0E0BC01CD0182
:102170000E94E7187B018C018E81882F90E00197E7
:102180009C01990F440B550BC801B7010E940B1914
:10219000DA01C901982F80914B01890F8D832FC0DF
:1021A000D0904B0180914B01282F30E080914E015F
:1021B000882F90E0F901E81BF90BCF019C01990FE2
:1021C000440B550B89819A81CC01A0E0B0E0BC01A1
:1021D000CD010E94E7187B018C018E81882F90E051
:1021E00001979C01990F440B550BC801B7010E9440
:1021F0000B19DA01C901FD2DF81B8F2F8D839C81EE
:102200008D81981768F58D81282F30E08C81882F7B
:1022100090E0A901481B590BCA019C01990F440B7E
:10222000550B8091530190915401CC01A0E0B0E096
:10223000BC01CD010E94E7187B018C018091510106
:10224000909152019C0140E050E0C801B7010E940A
:102250000B19DA01C901982F8C81890F8B832CC04F
:102260008C81282F30E08D81882F90E0F901E81BC8
:10227000F90BCF019C01990F440B550B8091530131
:1022800090915401CC01A0E0B0E0BC01CD010E94CE
:10229000E7187B018C0180915101909152019C01C2
:1022A00040E050E0C801B7010E940B19DA01C901F2
:1022B000982F8C81891B8B8389819A81885D9E4FA1
:1022C0002B81FC01208323E130E089819A81A901DF
:1022D000481B590BCA01885D9E4F2B81FC0120834E
:1022E00089819A8101969A8389838E81282F30E093
:1022F00089819A818217930708F447CC10923F0195
:1023000081E08093400100008BE290E02BE230E01E
:10231000F90120812E7FFC01208324CA6FEF8FE614
:1023200091E00E94B501882309F41CCA8091400104
:10233000882309F017CACE01079620E04FEFBC01B1
:102340008FE691E00E94FC018F81882F90E083331B
:102350009105C9F18433910534F48133910561F01D
:10236000C297B9F066C28234910509F4CCC18334B6
:10237000910509F402C25DC210924101109242011E
:1023800010923D0181E080933F0181E08093400104
:1023900050C2CE0107960E946C19049709F03FC203
:1023A00088858150809341018985815080934201C5
:1023B0008A85815080933D0181E080933F0181E0D7
:1023C000809340012CC2CE0107960E946C1907979A
:1023D00009F028C288858150809343018985815006
:1023E000809344018A858150809345018B8581507B
:1023F000809349018C85815080934A018D8581505D
:1024000080934B018AE08E831A8219826DC190916C
:10241000430180914901981778F580914901282F4F
:1024200030E080914301882F90E0A901481B590BAF
:10243000CA019C01990F440B550B89819A81CC01EB
:10244000A0E0B0E0BC01CD010E94E7187B018C0147
:102450008E81882F90E001979C01990F440B550BBA
:10246000C801B7010E940B19DA01C901982F8091A8
:102470004301890F8B832FC0D0904301809143018A
:10248000282F30E080914901882F90E0F901E81B66
:10249000F90BCF019C01990F440B550B89819A814F
:1024A000CC01A0E0B0E0BC01CD010E94E7187B01A7
:1024B0008C018E81882F90E001979C01990F440B2D
:1024C000550BC801B7010E940B19DA01C901FD2D96
:1024D000F81B8F2F8B8389819A8180509F4F2B818E
:1024E000FC01208323E130E089819A81A901481B06
:1024F000590BCA0180509F4F2B81FC012083909182
:10250000440180914A01981778F580914A01282F5B
:1025100030E080914401882F90E0A901481B590BBD
:10252000CA019C01990F440B550B89819A81CC01FA
:10253000A0E0B0E0BC01CD010E94E7187B018C0156
:102540008E81882F90E001979C01990F440B550BC9
:10255000C801B7010E940B19DA01C901982F8091B7
:102560004401890F8B832FC0D09044018091440196
:10257000282F30E080914A01882F90E0F901E81B74
:10258000F90BCF019C01990F440B550B89819A815E
:10259000CC01A0E0B0E0BC01CD010E94E7187B01B6
:1025A0008C018E81882F90E001979C01990F440B3C
:1025B000550BC801B7010E940B19DA01C901FD2DA5
:1025C000F81B8F2F8B8389819A818C5E9E4F2B8184
:1025D000FC01208323E130E089819A81A901481B15
:1025E000590BCA018C5E9E4F2B81FC012083909178
:1025F000450180914B01981778F580914B01282F68
:1026000030E080914501882F90E0A901481B590BCB
:10261000CA019C01990F440B550B89819A81CC0109
:10262000A0E0B0E0BC01CD010E94E7187B018C0165
:102630008E81882F90E001979C01990F440B550BD8
:10264000C801B7010E940B19DA01C901982F8091C6
:102650004501890F8B832FC0D090450180914501A2
:10266000282F30E080914B01882F90E0F901E81B82
:10267000F90BCF019C01990F440B550B89819A816D
:10268000CC01A0E0B0E0BC01CD010E94E7187B01C5
:102690008C018E81882F90E001979C01990F440B4B
:1026A000550BC801B7010E940B19DA01C901FD2DB4
:1026B000F81B8F2F8B8389819A81885D9E4F2B8198
:1026C000FC01208323E130E089819A81A901481B24
:1026D000590BCA01885D9E4F2B81FC0120838981A3
:1026E0009A8101969A8389838E81282F30E089818F
:1026F0009A818217930708F48ACE10923F0181E0F5
:10270000809340018FC0CE0107960E946C190997F3
:1027100009F08BC088858150809343018985815061
:10272000809344018A858150809345018B85815037
:10273000809349018C85815080934A018D85815019
:1027400080934B018E85282F30E048EC429FC001DA
:10275000439F900D112490935201809351018F85D6
:10276000815080934F0110925001109254011092A9
:10277000530181E08093550158C0CE0107960E9415
:102780006C190F9709F054C08885815080934301DC
:1027900089858150809344018A85815080934501C9
:1027A0008B858150809346018C85815080934701B1
:1027B0008D858150809348018E8581508093490199
:1027C0008F85815080934A018889815080934B0185
:1027D0008989815080934C018A89815080934D0171
:1027E0008B89815080934E018C89282F30E048ECF2
:1027F000429FC001439F900D1124909352018093FA
:1028000051018D89815080934F0110925001109297
:1028100054011092530182E08093550109C00000D9
:102820000C94B20B00000C94B20B00000C94B20B91
:1028300000000C94B20BCF93DF93CDB7DEB789E6DF
:1028400090E029E630E0F90120812260FC0120833C
:102850008CE390E021E0FC0120838DE390E021E017
:10286000FC0120830000DF91CF910895CF93DF9387
:10287000CDB7DEB784E290E024E230E0F9012081B8
:102880002F60FC01208385E290E025E230E0F90131
:102890002081207FFC01208381E290E021E230E072
:1028A000F9012081206FFC01208382E290E022E286
:1028B00030E0F90120812F70FC0120838AE290E052
:1028C0002AE230E0F90120812860FC0120838BE2BC
:1028D00090E02BE230E0F9012081277FFC0120838A
:1028E0008AE290E02AE230E0F90120812B7FFC01AE
:1028F00020830000DF91CF910895CF93DF9300D024
:10290000CDB7DEB79A83898389819A81805C9F4F96
:10291000FC01108289819A818F5B9F4FFC0110829C
:1029200089819A818E5B9F4F26E0FC012083000005
:102930000F900F90DF91CF910895CF93DF931F9267
:10294000CDB7DEB78DE490E0FC0110828CE490E01E
:1029500020E8FC0120838DE490E0FC0180818983E4
:102960008EE490E0FC01808189838EE490E0FC019C
:10297000108284E290E024E230E0F90120812064BA
:10298000FC0120838CE490E02CE430E0F90120810C
:102990002064FC01208300000F90DF91CF91089507
:1029A000CF93DF93CDB7DEB788E690E028E630E03E
:1029B000F90120812260FC0120838BE390E022E07A
:1029C000FC0120838CE690E02CE630E0F9012081C8
:1029D0002061FC0120830000DF91CF910895CF9307
:1029E000DF93CDB7DEB78AE290E02AE230E0F9016A
:1029F00020812063FC0120838BE290E02BE230E019
:102A0000F90120812062FC0120838BE290E02BE21F
:102A100030E0F90120812F7EFC0120838AE290E0E2
:102A20002AE230E0F90120812068FC0120838BE25A
:102A300090E02BE230E0F90120812068FC01208346
:102A40008AE290E02AE230E0F90120812F7BFC014C
:102A500020838AE290E02AE230E0F90120812C7F95
:102A6000FC0120838BE290E02BE230E0F901208131
:102A70002160FC01208381E290E021E230E0F90155
:102A800020812E7FFC01208382E290E022E230E070
:102A9000F90120812E7FFC0120838EE790E02EE754
:102AA00030E0F90120812160FC01208381E290E087
:102AB00021E230E0F9012081217FFC01208382E2C4
:102AC00090E022E230E0F90120812E60FC012083B9
:102AD00087E290E0FC01808187E290E0FC011082B7
:102AE00088E290E0FC01808188E290E02FEFFC0119
:102AF00020830000DF91CF910895CF93DF93CDB76E
:102B0000DEB78BE290E02BE230E0F90120812F7DEF
:102B1000FC0120830000DF91CF910895CF93DF93D4
:102B2000CDB7DEB78BE290E02BE230E0F9012081F7
:102B30002062FC0120830000DF91CF910895CF93A4
:102B4000DF93CDB7DEB78BE290E02BE230E0F90106
:102B500020812068FC0120838AE290E02AE230E0B4
:102B6000F90120812068FC0120830000DF91CF91D2
:102B70000895CF93DF93CDB7DEB78BE290E02BE2E1
:102B800030E0F90120812F77FC0120838AE290E078
:102B90002AE230E0F90120812068FC012083000056
:102BA000DF91CF910895CF93DF9300D0CDB7DEB7FB
:102BB0008A838BE290E02BE230E0F90120812064EF
:102BC000FC012083198215C08AE290E02AE230E0FD
:102BD000F90120812064FC0120838AE290E02AE24E
:102BE00030E0F90120812F7BFC01208389818F5FF8
:102BF000898399818A81981738F300000F900F908C
:102C0000DF91CF910895CF93DF9300D0CDB7DEB79A
:102C10008A838BE290E02BE230E0F90120812F7B68
:102C2000FC012083198215C08AE290E02AE230E09C
:102C3000F90120812064FC0120838AE290E02AE2ED
:102C400030E0F90120812F7BFC01208389818F5F97
:102C5000898399818A81981738F300000F900F902B
:102C6000DF91CF910895CF93DF931F92CDB7DEB759
:102C700089838981813410F080E4898380E40E9413
:102C8000031689810E94D31500000F90DF91CF9128
:102C90000895CF93DF93CDB7DEB70E94B91580E4D6
:102CA0000E9403160E949F150000DF91CF910895A6
:102CB000CF93DF9300D0CDB7DEB79A838983898124
:102CC0009A818115924020F08FEF91E09A83898359
:102CD00080E890E022E2FC01208381E890E028E097
:102CE000FC01208384E890E0FC01118210828AE8D4
:102CF00090E029813A81FC01318320838FE690E0C6
:102D0000FC01108200000F900F90DF91CF91089589
:102D1000CF93DF93CDB7DEB781E890E021E830E0D4
:102D2000F90120812160FC0120830000DF91CF9117
:102D300008958F929F92AF92BF92CF92DF92EF92BF
:102D4000FF920F931F93CF93DF931F92CDB7DEB700
:102D500089838981853610F084E689830F2EFAE80D
:102D60008F2E912CF02D8981882F90E0A0E0B0E08B
:102D70001F921F9221E02F932FEF2F93A12CB12CA4
:102D8000650114E6E12EF12C00E010E020E030E0D7
:102D9000A901BC01CD010E942B180F900F900F903C
:102DA0000F90DC01CB01F4019183808300000F9030
:102DB000DF91CF911F910F91FF90EF90DF90CF9017
:102DC000BF90AF909F908F900895CF93DF9300D0E6
:102DD000CDB7DEB79A83898389819A818115924024
:102DE00020F08FEF91E09A8389838AE890E029812F
:102DF0003A81FC013183208300000F900F90DF9116
:102E0000CF910895CF93DF93CDB7DEB781E290E005
:102E100021E230E0F90120812E7FFC0120838EE742
:102E200090E02EE730E0F90120812160FC01208351
:102E30008CE790E020E6FC0120838AE790E027E31E
:102E4000FC0120838BE790E0FC0110828AE790E090
:102E50002AE730E0F90120812068FC0120838AE71D
:102E600090E02AE730E0F90120812064FC01208312
:102E70000000DF91CF910895AF92BF92CF92DF9281
:102E8000EF92FF920F931F93CF93DF9300D000D068
:102E9000CDB7DEB789E790E0FC018081882F90E014
:102EA000A0E0B0E01F921F9221E02F9322EC2F931D
:102EB0000F2EFEECAF2EBB24BA94CB2CDB2CF02DC6
:102EC000E12CF12C8701EA9420E030E0A901BC015B
:102ED000CD010E942B180F900F900F900F90DC01E6
:102EE000CB0189839A83AB83BC8389819A81AB812F
:102EF000BC81BB232CF419821A821B821C8212C053
:102F000089819A81AB81BC818F3F9105A105B10573
:102F100049F044F08FEF90E0A0E0B0E089839A831D
:102F2000AB83BC8389810F900F900F900F90DF913E
:102F3000CF911F910F91FF90EF90DF90CF90BF90B6
:102F4000AF900895CF93DF93CDB7DEB780EB90E0DD
:102F500022E0FC01208381EB90E0FC01108282EBF7
:102F600090E0FC01108283EB90E020E6FC012083DE
:102F700080E790E022E0FC01208387E390E022E0FC
:102F8000FC01208381EB90E021EB30E0F90120810E
:102F90002760FC0120830000DF91CF910895CF933B
:102FA000DF9300D000D0CDB7DEB79C838B8384E461
:102FB00090E022E0FC01208385E490E0FC01108297
:102FC00085E390E022E0FC0120838EE690E0FC01A6
:102FD000108286E490E0FC01108287E490E02DE40A
:102FE000FC01208385E490E025E430E0F9012081B4
:102FF0002460FC0120831A82198215C0000085E339
:1030000090E0FC018081882F90E082709927892BC5
:10301000B1F385E390E022E0FC01208389819A816D
:1030200001969A83898329813A818B819C81281713
:10303000390720F385E490E025E430E0F9012081B0
:10304000287FFC01208300000F900F900F900F90BD
:10305000DF91CF910895AF92BF92CF92DF92EF921E
:10306000FF920F931F93CF93DF93CDB7DEB7609797
:103070000FB6F894DEBF0FBECDBF69837A838B8312
:103080009C832D833E834F835887E986FA860B877E
:103090001C87AD86BE86CF86D88A29813A814B812E
:1030A0005C818D819E81AF81B88579018A01E81AA2
:1030B000F90A0A0B1B0B2D8D3E8D4F8D58A18D8566
:1030C0009E85AF85B88959016A01A81AB90ACA0A4A
:1030D000DB0AD601C501A8019701BC01CD010E9400
:1030E000E7187B018C0129853A854B855C858D81AC
:1030F0009E81AF81B885281B390B4A0B5B0BC80139
:10310000B7010E942D19DA01C9019C01AD018D851D
:103110009E85AF85B889820F931FA41FB51FBC0180
:10312000CD0160960FB6F894DEBF0FBECDBFDF9124
:10313000CF911F910F91FF90EF90DF90CF90BF90B4
:10314000AF900895CF93DF93CDB7DEB728970FB632
:10315000F894DEBF0FBECDBF9F838E836887198230
:103160001A8227C08A81882F90E02E813F81820FAA
:10317000931FFC0180818C831B8215C099818C81F7
:10318000892780788D838981880F89838D81882321
:1031900021F0998187E0892789838C81880F8C832E
:1031A0008B818F5F8B838B81883040F38A818F5F27
:1031B0008A839A8188859817A8F2898128960FB604
:1031C000F894DEBF0FBECDBFDF91CF910895DB0134
:1031D0008F939F930E945219BF91AF91A29F800D30
:1031E000911DA39F900DB29F900D11240895AA1BCD
:1031F000BB1B51E107C0AA1FBB1FA617B70710F0E2
:10320000A61BB70B881F991F5A95A9F78095909513
:10321000BC01CD010895A1E21A2EAA1BBB1BFD0122
:103220000DC0AA1FBB1FEE1FFF1FA217B307E407A5
:10323000F50720F0A21BB30BE40BF50B661F771FFD
:10324000881F991F1A9469F76095709580959095DD
:103250009B01AC01BD01CF010895052E97FB1EF423
:1032600000940E94441957FD07D00E940B1907FCD7
:1032700003D04EF40C944419509540953095219507
:103280003F4F4F4F5F4F0895909580957095619592
:103290007F4F8F4F9F4F0895EE0FFF1F0590F491C2
:1032A000E02D09940E945D19A59F900DB49F900D8B
:1032B000A49F800D911D11240895A29FB001B39F7A
:1032C000C001A39F700D811D1124911DB29F700D2F
:1032D000811D1124911D0895FC0101900020E9F742
:0E32E000809590958E0F9F1F0895F894FFCF54
:1032EE00FF0000FF0000FF0000FF0000FF0000FFD6
:1032FE000000FF0000FF0000FF0000FF0000FF00C5
:10330E0000FF0000FF0000FF0000FF0000FF0000B4
:0E331E00FF0000FF0000FF0000FF0000140A87
:00000001FF
