S0190000636C757374657277696E6B5F6D6B5F69692E73726563E8
S11300000C943E000C9450000C9450000C9450003E
S11300100C9450000C94BB000C9450000C945000B1
S11300200C9450000C9450000C9450000C9450000C
S11300300C9450000C9450000C9450000C945000FC
S11300400C9450000C9450000C9450000C945200EA
S11300500C9450000C9450000C9450000C945000DC
S11300600C9450000C9450000C9450000C945000CC
S11300700C9450000C9450000C94500011241FBE9A
S1130080CFEFD8E0DEBFCDBF21E0A0E0B1E001C0FA
S11300901D92A334B207E1F70E945A010C94B505EE
S11300A00C9400001F920F9200905F000F92112495
S11300B02F938F939F93EF93FF93CF93DF931F928D
S11300C0CDB7DEB78EE490E0FC01808189838EE4B5
S11300D090E0FC01108280914101882F90E08130F2
S11300E09105F9F082309105A4F5892B09F034C00B
S11300F08981833090F080914001882F90E0805076
S11301009F4F2981FC012083809140018F5F809360
S1130110400181E0809341011FC082E0809341014E
S11301201BC080914001882F90E080509F4F29810F
S1130130FC012083809140018F5F80934001909166
S1130140400180910001981730F083E080934101D1
S113015002C0000001C0000000000F90DF91CF91A9
S1130160FF91EF919F918F912F910F9000925F00DB
S11301700F901F9018951F920F9200905F000F929E
S113018011242F933F934F935F936F937F938F9398
S11301909F93AF93BF93EF93FF93CF93DF93CDB729
S11301A0DEB783E290E0FC018081882F90E08071CB
S11301B09927892B09F459C090914001809100013D
S11301C0981709F062C080914001682F80E091E0A7
S11301D00E940505882309F058C080910101882FE9
S11301E090E08330910501F18430910534F481303D
S11301F0910561F0029789F048C08530910521F19D
S113020085309105D4F0069731F13FC080914001CB
S1130210833081F50E9471022DC0809140018330AA
S113022059F50E94820228C080914001843031F542
S1130230809102010E94E60321C080914001833035
S1130240F9F40E94AD021CC0809140018330D1F4C6
S11302500E94930217C0809140018430A9F48091D8
S113026002010E944F0300000FC01092400110923F
S113027041010BC0000009C0000007C0000005C018
S1130280000003C0000001C000000000DF91CF9116
S1130290FF91EF91BF91AF919F918F917F916F915A
S11302A05F914F913F912F910F9000925F000F90BB
S11302B01F901895CF93DF931F92CDB7DEB71982A5
S11302C00E94E30181E00E9476030E94D50380E04E
S11302D091E00E9477010E9491010E94C40184E68A
S11302E090E00E9432040E9465037894FFCFCF937C
S11302F0DF9300D0CDB7DEB79A83898389819A8151
S1130300805C9F4FFC01108289819A818F5B9F4F93
S113031023E0FC01208300000F900F90DF91CF9128
S11303200895CF93DF931F92CDB7DEB78DE490E0AD
S1130330FC0110828CE490E020E8FC0120838DE431
S113034090E0FC01808189838EE490E0FC0180814F
S113035089838EE490E0FC01108284E290E024E240
S113036030E0F90120812064FC0120838CE490E0DA
S11303702CE430E0F90120812064FC01208300009A
S11303800F90DF91CF910895CF93DF93CDB7DEB770
S113039088E690E028E630E0F90120812260FC0143
S11303A020838BE390E022E0FC0120838CE690E044
S11303B02CE630E0F90120812061FC01208300005B
S11303C0DF91CF910895CF93DF93CDB7DEB78AE263
S11303D090E02AE230E0F90120812063FC012083CF
S11303E08BE290E02BE230E0F90120812062FC01F5
S11303F020838BE290E02BE230E0F90120812F7E14
S1130400FC0120838AE290E02AE230E0F9012081B5
S11304102068FC0120838BE290E02BE230E0F901BC
S113042020812068FC0120838AE290E02AE230E007
S1130430F90120812F7BFC0120838AE290E02AE2EB
S113044030E0F90120812C7FFC0120838BE290E0D5
S11304502BE230E0F90120812160FC01208381E25C
S113046090E021E230E0F90120812E7FFC0120831D
S113047082E290E022E230E0F90120812E7FFC014B
S113048020838EE790E02EE730E0F901208121609F
S1130490FC01208381E290E021E230E0F901208137
S11304A0217FFC01208382E290E022E230E0F90126
S11304B020812E60FC01208387E290E0FC01808192
S11304C087E290E0FC01108288E290E0FC018081E8
S11304D088E290E02FEFFC0120830000DF91CF91B0
S11304E00895CF93DF93CDB7DEB78BE290E02BE294
S11304F030E0F90120812F7DFC0120830000DF9191
S1130500CF910895CF93DF93CDB7DEB78BE290E020
S11305102BE230E0F90120812062FC0120830000FD
S1130520DF91CF910895CF93DF93CDB7DEB78BE200
S113053090E02BE230E0F90120812068FC01208367
S11305408AE290E02AE230E0F90120812760FC0190
S113055020830000DF91CF910895CF93DF93CDB72F
S1130560DEB78BE290E02BE230E0F90120812F77B7
S1130570FC0120838AE290E02AE230E0F901208144
S11305802760FC0120830000DF91CF910895CF9371
S1130590DF9300D0CDB7DEB78A838BE290E02BE205
S11305A030E0F90120812064FC012083198215C008
S11305B08AE290E02AE230E0F90120812064FC0123
S11305C020838AE290E02AE230E0F90120812F7B47
S11305D0FC01208389818F5F898399818A8198179F
S11305E038F380914201882F90E020E430E0281B0A
S11305F0390B8A81882F90E02817390724F480E486
S11306008093420106C0909142018A81890F8093B0
S1130610420100000F900F90DF91CF910895CF9386
S1130620DF9300D0CDB7DEB78A838BE290E02BE274
S113063030E0F90120812F7BFC012083198215C051
S11306408AE290E02AE230E0F90120812064FC0192
S113065020838AE290E02AE230E0F90120812F7BB6
S1130660FC01208389818F5F898399818A8198170E
S113067038F3909142018A81981718F4109242013C
S113068008C0909142018A81F92FF81B8F2F809323
S1130690420100000F900F90DF91CF910895CF9306
S11306A0DF931F92CDB7DEB789838981813410F03F
S11306B080E4898380E40E940F0389810E94C70239
S11306C000000F90DF91CF910895CF93DF93CDB7C2
S11306D0DEB70E94AD0280E40E940F031092420133
S11306E00E9493020000DF91CF9108958F929F9210
S11306F0AF92BF92CF92DF92EF92FF920F931F932C
S1130700CF93DF931F92CDB7DEB789838981853676
S113071010F084E6898380E890E022E2FC012083E3
S113072081E890E028E0FC01208384E890E0FC016B
S1130730118210820F2EFAE88F2E912CF02D8981D0
S1130740882F90E0A0E0B0E01F921F9221E02F9349
S11307502FEF2F93A12CB12C650114E6E12EF12C7F
S113076000E010E020E030E0A901BC01CD010E94CE
S11307708E040F900F900F900F90DC01CB01F401C9
S1130780918380838FE690E0FC01108200000F903B
S1130790DF91CF911F910F91FF90EF90DF90CF9059
S11307A0BF90AF909F908F900895CF93DF93CDB774
S11307B0DEB781E890E021E830E0F9012081216092
S11307C0FC0120830000DF91CF9108958F929F92C6
S11307D0AF92BF92CF92DF92EF92FF920F931F934B
S11307E0CF93DF931F92CDB7DEB789838981853696
S11307F010F084E689830F2EFAE88F2E912CF02DC9
S11308008981882F90E0A0E0B0E01F921F9221E040
S11308102F932FEF2F93A12CB12C650114E6E12E19
S1130820F12C00E010E020E030E0A901BC01CD0192
S11308300E948E040F900F900F900F90DC01CB015B
S1130840F4019183808300000F90DF91CF911F9179
S11308500F91FF90EF90DF90CF90BF90AF909F905B
S11308608F900895CF93DF9300D000D0CDB7DEB73B
S11308709C838B8384E490E022E0FC01208385E464
S113088090E0FC01108285E390E022E0FC012083EB
S11308908EE690E0FC01108286E490E0FC01108278
S11308A087E490E02DE4FC01208385E490E025E4D6
S11308B030E0F90120812460FC0120831A8219822E
S11308C015C0000085E390E0FC018081882F90E052
S11308D082709927892BB1F385E390E022E0FC0133
S11308E0208389819A8101969A83898329813A8117
S11308F08B819C812817390720F385E490E025E457
S113090030E0F9012081287FFC01208300000F9052
S11309100F900F900F90DF91CF910895AF92BF92F7
S1130920CF92DF92EF92FF920F931F93CF93DF93B7
S1130930CDB7DEB760970FB6F894DEBF0FBECDBF5C
S113094069837A838B839C832D833E834F8358876B
S1130950E986FA860B871C87AD86BE86CF86D88A41
S113096029813A814B815C818D819E81AF81B885DB
S113097079018A01E81AF90A0A0B1B0B2D8D3E8DA9
S11309804F8D58A18D859E85AF85B88959016A011F
S1130990A81AB90ACA0ADB0AD601C501A801970137
S11309A0BC01CD010E944A057B018C0129853A8551
S11309B04B855C858D819E81AF81B885281B390B61
S11309C04A0B5B0BC801B7010E945A05DA01C90141
S11309D09C01AD018D859E85AF85B889820F931FDB
S11309E0A41FB51FBC01CD0160960FB6F894DEBFFD
S11309F00FBECDBFDF91CF911F910F91FF90EF906C
S1130A00DF90CF90BF90AF900895CF93DF93CDB791
S1130A10DEB728970FB6F894DEBF0FBECDBF9F8315
S1130A208E83688719821A8227C08A81882F90E072
S1130A302E813F81820F931FFC0180818C831B8256
S1130A4015C099818C81892780788D838981880F4D
S1130A5089838D81882321F0998187E0892789837F
S1130A608C81880F8C838B818F5F8B838B81883003
S1130A7040F38A818F5F8A839A8188859817A8F2C8
S1130A80898128960FB6F894DEBF0FBECDBFDF91E3
S1130A90CF910895DB018F939F930E947905BF91B5
S1130AA0AF91A29F800D911DA39F900DB29F900DB9
S1130AB011240895052E97FB1EF400940E947105DD
S1130AC057FD07D00E94840507FC03D04EF40C9414
S1130AD0710550954095309521953F4F4F4F5F4F8D
S1130AE0089590958095709561957F4F8F4F9F4F96
S1130AF008950E94A605A59F900DB49F900DA49FF4
S1130B00800D911D11240895A1E21A2EAA1BBB1B6E
S1130B10FD010DC0AA1FBB1FEE1FFF1FA217B307C5
S1130B20E407F50720F0A21BB30BE40BF50B661FDB
S1130B30771F881F991F1A9469F76095709580959F
S1130B4090959B01AC01BD01CF010895A29FB00116
S1130B50B39FC001A39F700D811D1124911DB29FED
S1110B60700D811D1124911D0895F894FFCF8E
S9030000FC
