S0190000636C757374657277696E6B5F6D6B5F69692E73726563E8
S11300000C9458000C94B0010C9475000C94750079
S11300100C9475000C9424040C9475000C947500D5
S11300200C9475000C9477000C9475000C94750076
S11300300C9475000C9475000C9475000C94750068
S11300400C9475000C9475000C9475000C94B90212
S11300500C9475000C9475000C9475000C94750048
S11300600C9475000C9475000C9475000C94750038
S11300700C9475000C9475000C947500F90212032D
S11300802B03E50300040004000487049404A10482
S1130090BC04A505DC05DC05DC05DC05DC05DC05AC
S11300A0DC05DC05DC05DC05DC05A805B405C005BC
S11300B011241FBECFEFD8E0DEBFCDBF11E0A0E01A
S11300C0B1E0ECE3F7E102C005900D92AE33B10765
S11300D0D9F721E0AEE3B1E001C01D92A739B20720
S11300E0E1F70E9402060C949C0B0C9400001F92F2
S11300F00F9200905F000F921124AF92BF92CF92A3
S1130100DF92EF92FF920F931F932F933F934F939E
S11301105F936F937F938F939F93AF93BF93EF936B
S1130120FF93CF93DF93CDB7DEB78BE290E02BE262
S113013030E0F90120812260FC012083809151018B
S1130140882309F4E7C080915001882309F472C020
S113015080914C0190914D01A0914E01B0914F01BD
S11301600196A11DB11D80934C0190934D01A09364
S11301704E01B0934F0120914C0130914D014091BB
S11301804E0150914F018091480190914901A091F5
S11301904A01B0914B01281739074A075B0708F455
S11301A0B9C010924C0110924D0110924E01109260
S11301B04F01809146019091470101969093470128
S11301C08093460180914601909147010E94150950
S11301D08091460190914701CC01A0E0B0E01F92CC
S11301E01F921F9224E62F93A12CB12C6501E12CC0
S11301F0F12C8701EA94F39420E030E0A901BC01DA
S1130200CD010E945B0A0F900F900F900F90DC01BC
S1130210CB01809396012091460130914701809152
S11302204201909143012817390708F473C01092D2
S1130230510170C080914C0190914D01A0914E01EB
S1130240B0914F010196A11DB11D80934C01909373
S11302504D01A0934E01B0934F0120914C01309178
S11302604D0140914E0150914F0180914801909170
S11302704901A0914A01B0914B01281739074A0757
S11302805B0708F447C010924C0110924D01109284
S11302904E0110924F0180914601909147010197C0
S11302A090934701809346018091460190914701C4
S11302B00E9415098091460190914701CC01A0E06C
S11302C0B0E01F921F921F9224E62F93A12CB12C11
S11302D06501E12CF12C8701EA94F39420E030E0ED
S11302E0A901BC01CD010E945B0A0F900F900F90F1
S11302F00F90DC01CB01809396012091460130914F
S1130300470180914201909143018217930710F0B5
S1130310109251018BE290E02BE230E0F901208150
S11303202D7FFC0120830000DF91CF91FF91EF919D
S1130330BF91AF919F918F917F916F915F914F91F9
S11303403F912F911F910F91FF90EF90DF90CF90ED
S1130350BF90AF900F9000925F000F901F90189580
S11303601F920F9200905F000F9211242F933F93DE
S11303704F938F939F93EF93FF93CF93DF93CDB7D7
S1130380DEB78BE290E02BE230E0F90120812260BD
S1130390FC01208380913C01843108F0D1C080911C
S11303A03E01882F90E08130910509F447C08230E6
S11303B0910509F483C0892B09F0C2C082E290E060
S11303C022E230E0F9012081422F4F7020913C015C
S11303D0222F30E02C5E3E4FF9012081207F242B18
S11303E0FC01208385E290E025E230E0F9012081E0
S11303F0422F407F20913C01222F30E02C5E3E4F63
S1130400F90120812F70242BFC0120838BE290E0E2
S11304102BE230E0F90120812860FC0120838BE28B
S113042090E02BE230E0F9012081277FFC0120835A
S113043080913E018F5F80933E0182C082E290E012
S113044022E230E0F9012081422F4F7020913C01DB
S1130450222F30E020503F4FF9012081207F242BB0
S1130460FC01208385E290E025E230E0F90120815F
S1130470422F407F20913C01222F30E020503F4FFB
S1130480F90120812F70242BFC0120838BE290E062
S11304902BE230E0F90120812860FC0120838BE20B
S11304A090E02BE230E0F9012081277FFC012083DA
S11304B080913E018F5F80933E0142C082E290E0D2
S11304C022E230E0F9012081422F4F7020913C015B
S11304D0222F30E0285D3E4FF9012081207F242B1C
S11304E0FC01208385E290E025E230E0F9012081DF
S11304F0422F407F20913C01222F30E0285D3E4F67
S1130500F90120812F70242BFC0120838BE290E0E1
S11305102BE230E0F90120812860FC0120838BE28A
S113052090E02BE230E0F9012081277FFC01208359
S113053010923E0180913C018F5F80933C0100004A
S11305408BE290E02BE230E0F90120812D7FFC0169
S113055020830000DF91CF91FF91EF919F918F91C4
S11305604F913F912F910F9000925F000F901F9039
S113057018951F920F9200905F000F9211242F93F1
S11305803F934F935F936F937F938F939F93AF9317
S1130590BF93EF93FF93CF93DF931F92CDB7DEB753
S11305A08EE490E0FC01808189838BE290E02BE271
S11305B030E0F90120812260FC0120838EE490E088
S11305C0FC01108280919401882F90E0092E000C88
S11305D0AA0BBB0B40E050E026E030E0841B950BF7
S11305E02817390708F411C1825C9F4FFC010C9451
S11305F05A0B8981833090F080919201882F90E08A
S11306008E5A9E4F2981FC012083809192018F5F35
S11306108093920181E080939401F7C082E08093FB
S11306209401F3C080919201882F90E08E5A9E4FDE
S11306302981FC012083809192018F5F8093920134
S11306409091920180915201981708F4DBC084E0E4
S113065080939401D7C0109292018981882F90E0F1
S1130660823F910579F1833F910524F4813F9105FF
S113067051F0A6C0833F910509F443C0843F91051E
S113068009F45EC09DC08EE490E021E0FC0120836B
S113069084E0809352018981809353018091950174
S11306A08093540163E082E591E00E94D20A809332
S11306B0550184E0809392011092930183E080932A
S11306C0940182C08EE490E021E0FC01208384E068
S11306D08093520189818093530180919601809384
S11306E0540163E082E591E00E94D20A80935501AF
S11306F084E0809392011092930183E080939401AB
S113070063C08EE490E021E0FC01208384E08093C8
S113071052018981809353010E946C098093540192
S113072063E082E591E00E94D20A8093550184E05F
S1130730809392011092930183E08093940144C0CA
S11307408EE490E021E0FC01208380915101882314
S113075009F187E08093520189818093530180914C
S11307603F01809354018091400180935501809111
S1130770410180935601809196018093570166E070
S113078082E591E00E94D20A8093580187E0809329
S1130790920110C083E080935201898180935301B8
S11307A062E082E591E00E94D20A8093540183E0E2
S11307B0809392011092930183E08093940104C08A
S11307C086E080939401000020C08EE490E02091A4
S11307D09301222F30E02E5A3E4FF9012081FC0173
S11307E02083809193018F5F809393019091920174
S11307F080919301981741F485E08093940104C09B
S1130800000003C0000001C000008BE290E02BE276
S113081030E0F90120812D7FFC01208300000F903E
S1130820DF91CF91FF91EF91BF91AF919F918F9104
S11308307F916F915F914F913F912F910F90009213
S11308405F000F901F9018951F920F9200905F0009
S11308500F921124AF92BF92CF92DF92EF92FF9248
S11308600F931F932F933F934F935F936F937F93B4
S11308708F939F93AF93BF93EF93FF93CF93DF93A4
S1130880CDB7DEB78BE290E02BE230E0F9012081B6
S11308902260FC0120838EE490E0FC01108283E25C
S11308A090E0FC018081882F90E080719927892B4A
S11308B009F470C180919401843009F07DC1909154
S11308C0920180915201981709F076C180919201AA
S11308D0682F82E591E00E94D20A882309F06CC156
S11308E080915301882F90E0092E000CAA0BBB0BBA
S11308F041E150E022E130E0841B950B28173907D1
S113090008F45AC18B5B9F4FFC010C945A0B8091E5
S11309109201833009F043C10E94AD078091950193
S11309208160809395013BC180919201833009F0ED
S113093038C10E94BE07809195018E7F80939501F6
S113094030C180919201843009F02DC18091510110
S1130950882309F028C180915401853620F084E66B
S11309608093960104C080915401809396018091F4
S113097096010E94C90817C180919201863009F03E
S113098014C180915401853620F084E680933F01A0
S113099004C08091540180933F01809155018536B4
S11309A020F084E68093400104C080915501809337
S11309B0400180913F01882F90E0A0E0B0E01F92B9
S11309C01F9221E02F932FEF2F93A12CB12C6501BF
S11309D014E6E12EF12C00E010E020E030E0A90163
S11309E0BC01CD010E945B0A0F900F900F900F90F5
S11309F0DC01CB0190934501809344018091400137
S1130A00882F90E0A0E0B0E01F921F9221E02F9386
S1130A102FEF2F93A12CB12C650114E6E12EF12CBC
S1130A2000E010E020E030E0A901BC01CD010E940B
S1130A305B0A0F900F900F900F90DC01CB01909305
S1130A40430180934201809156018093410180913A
S1130A504401909145010E94150980913F018093C2
S1130A6096018091440190914501909347018093B0
S1130A70460110924C0110924D0110924E011092B9
S1130A804F0190913F0180914001981758F5809152
S1130A904101282F30E080E797E1289FA001299F9A
S1130AA0500D389F500D1124209142013091430183
S1130AB08091440190914501281B390BCA01B90169
S1130AC00E94270BCB01CC01A0E0B0E08093480149
S1130AD090934901A0934A01B0934B0181E0809324
S1130AE050012FC090913F0180914001891748F532
S1130AF080914101282F30E080E797E1289FA001F1
S1130B00299F500D389F500D11242091440130919C
S1130B1045018091420190914301281B390BCA0180
S1130B20B9010E94270BCB01CC01A0E0B0E0809377
S1130B30480190934901A0934A01B0934B0110924C
S1130B40500181E08093510130C01092510134C0B2
S1130B5080919201833059F50E94E90780919501B3
S1130B6082608093950123C080919201833009F5BE
S1130B700E94CF07809195018D7F8093950119C0C4
S1130B80809192018430B9F4809154010E946308E9
S1130B90000011C010929201109294010DC0000047
S1130BA00BC0000009C0000007C0000005C0000021
S1130BB003C0000001C000008BE290E02BE230E0B3
S1130BC0F90120812D7FFC0120830000DF91CF916A
S1130BD0FF91EF91BF91AF919F918F917F916F9111
S1130BE05F914F913F912F911F910F91FF90EF9043
S1130BF0DF90CF90BF90AF900F9000925F000F9066
S1130C001F901895CF93DF93CDB7DEB70E941F07CF
S1130C100E94320980E090E00E9488080E94B8088F
S1130C2082E591E00E94AD060E94CD060E94000775
S1130C300E9466060E944B060E94D20984E690E058
S1130C400E94FF090E9479088AE290E02AE230E0DB
S1130C50F90120812260FC0120838AE290E02AE2EB
S1130C6030E0F90120812260FC0120838BE290E0D6
S1130C702BE230E0F90120812D7FFC012083789460
S1130C8088EE93E00E94FF0910923E0110923C010D
S1130C900E94B001F5CFCF93DF93CDB7DEB789E6DD
S1130CA090E029E630E0F90120812260FC012083F4
S1130CB08CE390E021E0FC0120838DE390E021E0CF
S1130CC0FC0120830000DF91CF910895CF93DF933F
S1130CD0CDB7DEB784E290E024E230E0F901208170
S1130CE02F60FC01208385E290E025E230E0F901E9
S1130CF02081207FFC01208381E290E021E230E02A
S1130D00F9012081206FFC01208382E290E022E23D
S1130D1030E0F90120812F70FC0120838AE290E009
S1130D202AE230E0F90120812860FC0120838BE273
S1130D3090E02BE230E0F9012081277FFC01208341
S1130D408AE290E02AE230E0F90120812B7FFC0165
S1130D5020830000DF91CF910895CF93DF9300D0DB
S1130D60CDB7DEB79A83898389819A81805C9F4F4E
S1130D70FC01108289819A818F5B9F4FFC01108254
S1130D8089819A818E5B9F4F26E0FC0120830000BD
S1130D900F900F90DF91CF910895CF93DF931F921F
S1130DA0CDB7DEB78DE490E0FC0110828CE490E0D6
S1130DB020E8FC0120838DE490E0FC01808189839C
S1130DC08EE490E0FC01808189838EE490E0FC0154
S1130DD0108284E290E024E230E0F9012081206472
S1130DE0FC0120838CE490E02CE430E0F9012081C4
S1130DF02064FC01208300000F90DF91CF910895BF
S1130E00CF93DF93CDB7DEB788E690E028E630E0F5
S1130E10F90120812260FC0120838BE390E022E031
S1130E20FC0120838CE690E02CE630E0F90120817F
S1130E302061FC0120830000DF91CF910895CF93BE
S1130E40DF93CDB7DEB78AE290E02AE230E0F90121
S1130E5020812063FC0120838BE290E02BE230E0D0
S1130E60F90120812062FC0120838BE290E02BE2D7
S1130E7030E0F90120812F7EFC0120838AE290E09A
S1130E802AE230E0F90120812068FC0120838BE212
S1130E9090E02BE230E0F90120812068FC012083FE
S1130EA08AE290E02AE230E0F90120812F7BFC0104
S1130EB020838AE290E02AE230E0F90120812C7F4D
S1130EC0FC0120838BE290E02BE230E0F9012081E9
S1130ED02160FC01208381E290E021E230E0F9010D
S1130EE020812E7FFC01208382E290E022E230E028
S1130EF0F90120812E7FFC0120838EE790E02EE70C
S1130F0030E0F90120812160FC01208381E290E03E
S1130F1021E230E0F9012081217FFC01208382E27B
S1130F2090E022E230E0F90120812E60FC01208370
S1130F3087E290E0FC01808187E290E0FC0110826E
S1130F4088E290E0FC01808188E290E02FEFFC01D0
S1130F5020830000DF91CF910895CF93DF93CDB725
S1130F60DEB78BE290E02BE230E0F90120812F7DA7
S1130F70FC0120830000DF91CF910895CF93DF938C
S1130F80CDB7DEB78BE290E02BE230E0F9012081AF
S1130F902062FC0120830000DF91CF910895CF935C
S1130FA0DF93CDB7DEB78BE290E02BE230E0F901BE
S1130FB020812068FC0120838AE290E02AE230E06C
S1130FC0F90120812068FC0120830000DF91CF918A
S1130FD00895CF93DF93CDB7DEB78BE290E02BE299
S1130FE030E0F90120812F77FC0120838AE290E030
S1130FF02AE230E0F90120812068FC01208300000E
S1131000DF91CF910895CF93DF9300D0CDB7DEB7B2
S11310108A838BE290E02BE230E0F90120812064A6
S1131020FC012083198215C08AE290E02AE230E0B4
S1131030F90120812064FC0120838AE290E02AE205
S113104030E0F90120812F7BFC01208389818F5FAF
S1131050898399818A81981738F300000F900F9043
S1131060DF91CF910895CF93DF9300D0CDB7DEB752
S11310708A838BE290E02BE230E0F90120812F7B20
S1131080FC012083198215C08AE290E02AE230E054
S1131090F90120812064FC0120838AE290E02AE2A5
S11310A030E0F90120812F7BFC01208389818F5F4F
S11310B0898399818A81981738F300000F900F90E3
S11310C0DF91CF910895CF93DF931F92CDB7DEB711
S11310D089838981813410F080E4898380E40E94CB
S11310E0330889810E94030800000F90DF91CF919B
S11310F00895CF93DF93CDB7DEB70E94E90780E46C
S11311000E9433080E94CF070000DF91CF91089519
S1131110CF93DF9300D0CDB7DEB79A8389838981DB
S11311209A818115924020F08FEF91E09A83898310
S113113080E890E022E2FC01208381E890E028E04E
S1131140FC01208384E890E0FC01118210828AE88B
S113115090E029813A81FC01318320838FE690E07D
S1131160FC01108200000F900F90DF91CF91089541
S1131170CF93DF93CDB7DEB781E890E021E830E08C
S1131180F90120812160FC0120830000DF91CF91CF
S113119008958F929F92AF92BF92CF92DF92EF9277
S11311A0FF920F931F93CF93DF931F92CDB7DEB7B8
S11311B089838981853610F084E689830F2EFAE8C5
S11311C08F2E912CF02D8981882F90E0A0E0B0E043
S11311D01F921F9221E02F932FEF2F93A12CB12C5C
S11311E0650114E6E12EF12C00E010E020E030E08F
S11311F0A901BC01CD010E945B0A0F900F900F90D2
S11312000F90DC01CB01F4019183808300000F90E7
S1131210DF91CF911F910F91FF90EF90DF90CF90CE
S1131220BF90AF909F908F900895CF93DF9300D09D
S1131230CDB7DEB79A83898389819A8181159240DB
S113124020F08FEF91E09A8389838AE890E02981E6
S11312503A81FC013183208300000F900F90DF91CD
S1131260CF910895CF93DF93CDB7DEB781E290E0BD
S113127021E230E0F90120812E7FFC0120838EE7FA
S113128090E02EE730E0F90120812160FC01208309
S11312908CE790E020E6FC0120838AE790E027E3D6
S11312A0FC0120838BE790E0FC0110828AE790E048
S11312B02AE730E0F90120812068FC0120838AE7D5
S11312C090E02AE730E0F90120812064FC012083CA
S11312D00000DF91CF910895AF92BF92CF92DF9239
S11312E0EF92FF920F931F93CF93DF9300D000D020
S11312F0CDB7DEB789E790E0FC018081882F90E0CC
S1131300A0E0B0E01F921F9221E02F9322EC2F93D4
S11313100F2EFEECAF2EBB24BA94CB2CDB2CF02D7D
S1131320E12CF12C8701EA9420E030E0A901BC0112
S1131330CD010E945B0A0F900F900F900F90DC017B
S1131340CB0189839A83AB83BC8389819A81AB81E6
S1131350BC81BB232CF419821A821B821C8212C00A
S113136089819A81AB81BC818F3F9105A105B1052B
S113137049F044F08FEF90E0A0E0B0E089839A83D5
S1131380AB83BC8389810F900F900F900F90DF91F6
S1131390CF911F910F91FF90EF90DF90CF90BF906E
S11313A0AF900895CF93DF93CDB7DEB780EB90E095
S11313B022E0FC01208381EB90E0FC01108282EBAF
S11313C090E0FC01108283EB90E020E6FC01208396
S11313D080E790E022E0FC01208387E390E022E0B4
S11313E0FC01208381EB90E021EB30E0F9012081C6
S11313F02760FC0120830000DF91CF910895CF93F3
S1131400DF9300D000D0CDB7DEB79C838B8384E418
S113141090E022E0FC01208385E490E0FC0110824E
S113142085E390E022E0FC0120838EE690E0FC015D
S1131430108286E490E0FC01108287E490E02DE4C1
S1131440FC01208385E490E025E430E0F90120816B
S11314502460FC0120831A82198215C0000085E3F0
S113146090E0FC018081882F90E082709927892B7D
S1131470B1F385E390E022E0FC01208389819A8125
S113148001969A83898329813A818B819C812817CB
S1131490390720F385E490E025E430E0F901208168
S11314A0287FFC01208300000F900F900F900F9075
S11314B0DF91CF910895AF92BF92CF92DF92EF92D6
S11314C0FF920F931F93CF93DF93CDB7DEB760974F
S11314D00FB6F894DEBF0FBECDBF69837A838B83CA
S11314E09C832D833E834F835887E986FA860B8736
S11314F01C87AD86BE86CF86D88A29813A814B81E6
S11315005C818D819E81AF81B88579018A01E81A59
S1131510F90A0A0B1B0B2D8D3E8D4F8D58A18D851D
S11315209E85AF85B88959016A01A81AB90ACA0A01
S1131530DB0AD601C501A8019701BC01CD010E94B7
S1131540170B7B018C0129853A854B855C858D8140
S11315509E81AF81B885281B390B4A0B5B0BC801F0
S1131560B7010E943B0BDA01C9019C01AD018D85D5
S11315709E85AF85B889820F931FA41FB51FBC0138
S1131580CD0160960FB6F894DEBF0FBECDBFDF91DC
S1131590CF911F910F91FF90EF90DF90CF90BF906C
S11315A0AF900895CF93DF93CDB7DEB728970FB6EA
S11315B0F894DEBF0FBECDBF9F838E8368871982E8
S11315C01A8227C08A81882F90E02E813F81820F62
S11315D0931FFC0180818C831B8215C099818C81AF
S11315E0892780788D838981880F89838D818823D9
S11315F021F0998187E0892789838C81880F8C83E6
S11316008B818F5F8B838B81883040F38A818F5FDE
S11316108A839A8188859817A8F2898128960FB6BB
S1131620F894DEBF0FBECDBFDF91CF910895DB01EB
S11316308F939F930E94600BBF91AF91A29F800DE7
S1131640911DA39F900DB29F900D11240895AA1B84
S1131650BB1B51E107C0AA1FBB1FA617B70710F099
S1131660A61BB70B881F991F5A95A9F780959095CB
S1131670BC01CD010895052E97FB1EF400940E9431
S1131680520B57FD07D00E946B0B07FC03D04EF49E
S11316900C94520B50954095309521953F4F4F4FE8
S11316A05F4F089590958095709561957F4F8F4F0A
S11316B09F4F0895EE0FFF1F0590F491E02D0994BC
S11316C00E948D0BA59F900DB49F900DA49F800D3B
S11316D0911D11240895A1E21A2EAA1BBB1BFD0122
S11316E00DC0AA1FBB1FEE1FFF1FA217B307E407FD
S11316F0F50720F0A21BB30BE40BF50B661F771F55
S1131700881F991F1A9469F7609570958095909534
S11317109B01AC01BD01CF010895A29FB001B39F0D
S1131720C001A39F700D811D1124911DB29F700DE6
S10F1730811D1124911D0895F894FFCF31
S113173CFF0000FF0000FF0000FF0000FF0000FF9F
S113174C0000FF0000FF0000FF0000FF0000FF008E
S113175C00FF0000FF0000FF0000FF0000FF00007E
S111176CFF0000FF0000FF0000FF000014005B
S9030000FC
