:100000000C9458000C9438010C9475000C947500F5
:100010000C9475000C94A7030C9475000C94750057
:100020000C9475000C9477000C9475000C9475007A
:100030000C9475000C9475000C9475000C9475006C
:100040000C9475000C9475000C9475000C9440028F
:100050000C9475000C9475000C9475000C9475004C
:100060000C9475000C9475000C9475000C9475003C
:100070000C9475000C9475000C9475008002990224
:10008000B2026C038803880388030B041804250458
:100090003F042005260526052605260526052605F6
:1000A00026052605260526052605FC040905160550
:1000B00011241FBECFEFD8E0DEBFCDBF11E0A0E01E
:1000C000B1E0E8EAF5E102C005900D92AA30B1076F
:1000D000D9F721E0AAE0B1E001C01D92A236B20733
:1000E000E1F70E944D050C94D20A0C9400001F9277
:1000F0000F9200905F000F921124AF92BF92CF92A7
:10010000DF92EF92FF920F931F932F933F934F93A2
:100110005F936F937F938F939F93AF93BF93EF936F
:10012000FF93CF93DF93CDB7DEB78BE290E02BE266
:1001300030E0F90120812260FC01208380911C01C4
:10014000882309F470C08091180190911901A09141
:100150001A01B0911B010196A11DB11D80931801D8
:1001600090931901A0931A01B0931B0120911801DB
:100170003091190140911A0150911B018091140195
:1001800090911501A0911601B09117012817390718
:100190004A075B0708F447C0109218011092190132
:1001A00010921A0110921B0180911201909113017B
:1001B0000196909313018093120180911201909106
:1001C00013010E944F088091120190911301CC01FC
:1001D000A0E0B0E01F921F921F9224E62F93A12C63
:1001E000B12C6501E12CF12C8701EA94F39420E015
:1001F00030E0A901BC01CD010E9491090F900F9040
:100200000F900F90DC01CB018093610120911201CE
:100210003091130180910E0190910F012817390739
:1002200010F010921C018BE290E02BE230E0F9011B
:1002300020812D7FFC012083DF91CF91FF91EF91F1
:10024000BF91AF919F918F917F916F915F914F91EE
:100250003F912F911F910F91FF90EF90DF90CF90E2
:10026000BF90AF900F9000925F000F901F90189575
:100270001F920F9200905F000F9211242F933F93D3
:100280004F938F939F93EF93FF93CF93DF93CDB7CC
:10029000DEB78BE290E02BE230E0F90120812260B2
:1002A000FC01208380910901833008F0D1C0809146
:1002B0000A01882F90E08130910509F447C082300F
:1002C000910509F483C0892B09F0C2C082E290E055
:1002D00022E230E0F9012081422F4F702091090184
:1002E000222F30E02D5F3E4FF9012081207F242B0B
:1002F000FC01208385E290E025E230E0F9012081D5
:10030000422F407F20910901222F30E02D5F3E4F88
:10031000F90120812F70242BFC0120838BE290E0D7
:100320002BE230E0F90120812860FC0120838BE280
:1003300090E02BE230E0F9012081277FFC0120834F
:1003400080910A018F5F80930A0182C082E290E06F
:1003500022E230E0F9012081422F4F702091090103
:10036000222F30E020503F4FF9012081207F242BA5
:10037000FC01208385E290E025E230E0F901208154
:10038000422F407F20910901222F30E020503F4F23
:10039000F90120812F70242BFC0120838BE290E057
:1003A0002BE230E0F90120812860FC0120838BE200
:1003B00090E02BE230E0F9012081277FFC012083CF
:1003C00080910A018F5F80930A0142C082E290E02F
:1003D00022E230E0F9012081422F4F702091090183
:1003E000222F30E02A5F3E4FF9012081207F242B0D
:1003F000FC01208385E290E025E230E0F9012081D4
:10040000422F407F20910901222F30E02A5F3E4F8A
:10041000F90120812F70242BFC0120838BE290E0D6
:100420002BE230E0F90120812860FC0120838BE27F
:1004300090E02BE230E0F9012081277FFC0120834E
:1004400010920A01809109018F5F809309010000D9
:100450008BE290E02BE230E0F90120812D7FFC015E
:100460002083DF91CF91FF91EF919F918F914F91D9
:100470003F912F910F9000925F000F901F90189561
:100480001F920F9200905F000F9211242F933F93C1
:100490004F935F936F937F938F939F93AF93BF938C
:1004A000EF93FF93CF93DF931F92CDB7DEB78EE428
:1004B00090E0FC01808189838BE290E02BE230E0C8
:1004C000F90120812260FC0120838EE490E0FC0190
:1004D000108280915F01882F90E0092E000CAA0BFA
:1004E000BB0B40E050E026E030E0841B950B281762
:1004F000390708F40EC1825C9F4FFC010C94900AEE
:100500008981833090F080915D01882F90E0835E37
:100510009E4F2981FC01208380915D018F5F809334
:100520005D0181E080935F01F4C082E080935F0110
:10053000F0C080915D01882F90E0835E9E4F2981FD
:10054000FC01208380915D018F5F80935D0190911C
:100550005D0180911D01981720F084E080935F0178
:10056000D8C0D7C010925D018981882F90E0823F6A
:10057000910579F1833F910524F4813F910551F074
:10058000A6C0833F910509F443C0843F910509F457
:100590005EC09DC08EE490E021E0FC01208384E0F9
:1005A00080931D01898180931E0180916001809359
:1005B0001F0163E08DE191E00E94080A8093200111
:1005C00084E080935D0110925E0183E080935F017F
:1005D00082C08EE490E021E0FC01208384E08093DF
:1005E0001D01898180931E018091610180931F010B
:1005F00063E08DE191E00E94080A8093200184E08D
:1006000080935D0110925E0183E080935F0163C07F
:100610008EE490E021E0FC01208384E080931D01C2
:10062000898180931E010E94A40880931F0163E0CA
:100630008DE191E00E94080A8093200184E080937C
:100640005D0110925E0183E080935F0144C08EE4FF
:1006500090E021E0FC01208380911C01882309F1B6
:1006600087E080931D01898180931E0180910B0199
:1006700080931F0180910C018093200180910D01D6
:1006800080932101809161018093220166E08DE1D8
:1006900091E00E94080A8093230187E080935D0126
:1006A00010C083E080931D01898180931E0162E068
:1006B0008DE191E00E94080A80931F0183E08093FE
:1006C0005D0110925E0183E080935F0104C086E0CB
:1006D00080935F0100001DC08EE490E020915E01D8
:1006E000222F30E0235E3E4FF9012081FC01208360
:1006F00080915E018F5F80935E0190915D0180919A
:100700005E01981721F485E080935F0102C001C06B
:1007100000008BE290E02BE230E0F90120812D7F98
:10072000FC0120830F90DF91CF91FF91EF91BF915A
:10073000AF919F918F917F916F915F914F913F9179
:100740002F910F9000925F000F901F9018951F92AD
:100750000F9200905F000F921124AF92BF92CF9240
:10076000DF92EF92FF920F931F932F933F934F933C
:100770005F936F937F938F939F93AF93BF93EF9309
:10078000FF93CF93DF9300D0CDB7DEB78BE290E03D
:100790002BE230E0F90120812260FC0120838EE40D
:1007A00090E0FC01108283E290E0FC018081882FC0
:1007B00090E080719927892B09F444C180915F01F1
:1007C000843009F043C190915D0180911D0198171B
:1007D00009F03CC180915D01682F8DE191E00E949C
:1007E000080A882309F032C180911E01882F90E009
:1007F000092E000CAA0BBB0B41E150E022E130E0D6
:10080000841B950B2817390708F420C18B5B9F4F79
:10081000FC010C94900A80915D01833041F40E94A8
:10082000F206809160018160809360010AC109C174
:1008300080915D01833041F40E9402078091600144
:100840008E7F80936001FDC0FCC080915D0184308B
:10085000A9F480911C01882389F480911F018536B9
:1008600020F084E68093610104C080911F01809391
:100870006101809161010E940408E3C0E2C080919F
:100880005D01863009F0B7C080911F01853650F0B8
:100890008FEF91E0909311018093100184E6809393
:1008A0000B0129C080911F01882F90E0A0E0B0E0EB
:1008B0001F921F9221E02F932FEF2F93A12CB12C89
:1008C000650114E6E12EF12C00E010E020E030E0BC
:1008D000A901BC01CD010E9491090F900F900F90CA
:1008E0000F90DC01CB019093110180931001809156
:1008F0001F0180930B0180912001853650F08FEF0E
:1009000091E090930F0180930E0184E680930C0197
:1009100029C080912001882F90E0A0E0B0E01F92D4
:100920001F9221E02F932FEF2F93A12CB12C650163
:1009300014E6E12EF12C00E010E020E030E0A90107
:10094000BC01CD010E9491090F900F900F900F9064
:10095000DC01CB0190930F0180930E018091200167
:1009600080930C018091210180930D0180911001F1
:10097000909111010E944F0880911F0180936101A5
:1009800080911001909111019093130180931201B5
:10099000109218011092190110921A0110921B0165
:1009A00080912101282F30E080E797E1289FA00166
:1009B000299F500D389F500D112420910E01309128
:1009C0000F018091100190911101281B390BCA0170
:1009D000B9010E945D0ACB01CC01A0E0B0E0809398
:1009E000140190931501A0931601B093170181E0B3
:1009F00080931C0126C025C080915D01833041F4A5
:100A00000E942B078091600182608093600119C071
:100A100018C080915D01833041F40E9412078091DB
:100A200060018D7F809360010CC00BC080915D01DF
:100A3000843029F480911F010E94A20702C001C0E6
:100A4000000004C010925D0110925F018BE290E003
:100A50002BE230E0F90120812D7FFC0120830F90F3
:100A60000F90DF91CF91FF91EF91BF91AF919F9147
:100A70008F917F916F915F914F913F912F911F9136
:100A80000F91FF90EF90DF90CF90BF90AF900F90BD
:100A900000925F000F901F901895CF93DF93CDB712
:100AA000DEB70E9465060E946B0880E090E00E941D
:100AB000C5070E94F4078DE191E00E94F6050E94AF
:100AC00015060E9447060E94B0050E9496050E94E6
:100AD0000A0984E690E00E9436090E94B7078AE27C
:100AE00090E02AE230E0F90120812260FC012083BD
:100AF0008AE290E02AE230E0F90120812260FC01E4
:100B000020838BE290E02BE230E0F90120812D7F01
:100B1000FC012083789488EE93E00E9436091092BD
:100B20000A01109209010E943801F5CFCF93DF939B
:100B3000CDB7DEB789E690E029E630E0F901208103
:100B40002260FC0120838CE390E021E0FC01208303
:100B50008DE390E021E0FC012083DF91CF910895A7
:100B6000CF93DF93CDB7DEB784E290E024E230E0AC
:100B7000F90120812F60FC01208385E290E025E2CD
:100B800030E0F9012081207FFC01208381E290E0A8
:100B900021E230E0F9012081206FFC01208382E214
:100BA00090E022E230E0F90120812F70FC012083E7
:100BB0008AE290E02AE230E0F90120812860FC011D
:100BC00020838BE290E02BE230E0F9012081277F47
:100BD000FC0120838AE290E02AE230E0F9012081E2
:100BE0002B7FFC012083DF91CF910895CF93DF937A
:100BF00000D0CDB7DEB79A83898389819A81805CE2
:100C00009F4FFC01108289819A818F5B9F4FFC016D
:100C1000108289819A818E5B9F4F26E0FC012083A0
:100C20000F900F90DF91CF910895CF93DF931F9294
:100C3000CDB7DEB78DE490E0FC0110828CE490E04B
:100C400020E8FC0120838DE490E0FC018081898311
:100C50008EE490E0FC01808189838EE490E0FC01C9
:100C6000108284E290E024E230E0F90120812064E7
:100C7000FC0120838CE490E02CE430E0F901208139
:100C80002064FC0120830F90DF91CF910895CF93D2
:100C9000DF93CDB7DEB788E690E028E630E0F901D3
:100CA00020812260FC0120838BE390E022E0FC01A4
:100CB00020838CE690E02CE630E0F9012081206171
:100CC000FC012083DF91CF910895CF93DF93CDB7BF
:100CD000DEB78AE290E02AE230E0F9012081206369
:100CE000FC0120838BE290E02BE230E0F9012081CF
:100CF0002062FC0120838BE290E02BE230E0F901DE
:100D000020812F7EFC0120838AE290E02AE230E0FD
:100D1000F90120812068FC0120838BE290E02BE226
:100D200030E0F90120812068FC0120838AE290E014
:100D30002AE230E0F90120812F7BFC0120838AE246
:100D400090E02AE230E0F90120812C7FFC01208331
:100D50008BE290E02BE230E0F90120812160FC0180
:100D6000208381E290E021E230E0F90120812E7FB2
:100D7000FC01208382E290E022E230E0F901208150
:100D80002E7FFC0120838EE790E02EE730E0F90112
:100D900020812160FC01208381E290E021E230E0AB
:100DA000F9012081217FFC01208382E290E022E290
:100DB00030E0F90120812E60FC01208387E290E081
:100DC000FC01808187E290E0FC01108288E290E0E3
:100DD000FC01808188E290E02FEFFC012083DF910D
:100DE000CF910895CF93DF93CDB7DEB78BE290E03C
:100DF0002BE230E0F90120812F7DFC012083DF917F
:100E0000CF910895CF93DF93CDB7DEB78BE290E01B
:100E10002BE230E0F90120812062FC012083DF9188
:100E2000CF910895CF93DF93CDB7DEB78BE290E0FB
:100E30002BE230E0F90120812068FC0120838AE266
:100E400090E02AE230E0F90120812068FC01208353
:100E5000DF91CF910895CF93DF93CDB7DEB78BE2CB
:100E600090E02BE230E0F90120812F77FC01208314
:100E70008AE290E02AE230E0F90120812068FC015A
:100E80002083DF91CF910895CF93DF9300D0CDB72A
:100E9000DEB78A838BE290E02BE230E0F90120811B
:100EA0002064FC012083198215C08AE290E02AE2C6
:100EB00030E0F90120812064FC0120838AE290E087
:100EC0002AE230E0F90120812F7BFC012083898117
:100ED0008F5F898399818A81981738F30F900F90DB
:100EE000DF91CF910895CF93DF9300D0CDB7DEB7D8
:100EF0008A838BE290E02BE230E0F90120812F7BA6
:100F0000FC012083198215C08AE290E02AE230E0D9
:100F1000F90120812064FC0120838AE290E02AE22A
:100F200030E0F90120812F7BFC01208389818F5FD4
:100F3000898399818A81981738F30F900F90DF91F8
:100F4000CF910895CF93DF931F92CDB7DEB78983FA
:100F50008981813410F080E4898380E40E947307E2
:100F600089810E9444070F90DF91CF910895CF931C
:100F7000DF93CDB7DEB70E942B0780E40E94730792
:100F80000E941207DF91CF910895CF93DF9300D095
:100F9000CDB7DEB79A83898389819A818115924082
:100FA00020F08FEF91E09A83898380E890E022E23D
:100FB000FC01208381E890E028E0FC01208384E8A4
:100FC00090E0FC01118210828AE890E029813A8148
:100FD000FC01318320838FE690E0FC0110820F90AA
:100FE0000F90DF91CF910895CF93DF93CDB7DEB708
:100FF00081E890E021E830E0F90120812160FC01E6
:101000002083DF91CF9108958F929F92AF92BF92EC
:10101000CF92DF92EF92FF920F931F93CF93DF93C4
:101020001F92CDB7DEB789838981853610F084E6BB
:1010300089830F2EFAE88F2E912CF02D8981882F2D
:1010400090E0A0E0B0E01F921F9221E02F932FEFDD
:101050002F93A12CB12C650114E6E12EF12C00E0B8
:1010600010E020E030E0A901BC01CD010E9491090F
:101070000F900F900F900F90DC01CB01F401918342
:1010800080830F90DF91CF911F910F91FF90EF9090
:10109000DF90CF90BF90AF909F908F900895CF93A7
:1010A000DF9300D0CDB7DEB79A83898389819A8197
:1010B0008115924020F08FEF91E09A8389838AE82E
:1010C00090E029813A81FC01318320830F900F90B9
:1010D000DF91CF910895CF93DF93CDB7DEB781E253
:1010E00090E021E230E0F90120812E7FFC01208395
:1010F0008EE790E02EE730E0F90120812160FC01CD
:1011000020838CE790E020E6FC0120838AE790E0D2
:1011100027E3FC0120838BE790E0FC0110828AE743
:1011200090E02AE730E0F90120812068FC0120836B
:101130008AE790E02AE730E0F90120812064FC0191
:101140002083DF91CF910895AF92BF92CF92DF922B
:10115000EF92FF920F931F93CF93DF9300D000D0B5
:10116000CDB7DEB789E790E0FC018081882F90E061
:10117000A0E0B0E01F921F9221E02F9322EC2F936A
:101180000F2EFEECAF2EBB24BA94CB2CDB2CF02D13
:10119000E12CF12C8701EA9420E030E0A901BC01A8
:1011A000CD010E9491090F900F900F900F90DC01DC
:1011B000CB0189839A83AB83BC8389819A81AB817C
:1011C000BC81BB232CF419821A821B821C8212C0A0
:1011D00089819A81AB81BC818F3F9105A105B105C1
:1011E00049F044F08FEF90E0A0E0B0E089839A836B
:1011F000AB83BC8389810F900F900F900F90DF918C
:10120000CF911F910F91FF90EF90DF90CF90BF9003
:10121000AF900895CF93DF93CDB7DEB780EB90E02A
:1012200022E0FC01208381EB90E0FC01108282EB44
:1012300090E0FC01108283EB90E020E6FC0120832B
:1012400080E790E022E0FC01208387E390E022E049
:10125000FC01208381EB90E021EB30E0F90120815B
:101260002760FC012083DF91CF910895CF93DF9316
:1012700000D000D0CDB7DEB79C838B8384E490E0B0
:1012800022E0FC01208385E490E0FC01108285E3EC
:1012900090E022E0FC0120838EE690E0FC011082C9
:1012A00086E490E0FC01108287E490E02DE4FC01EC
:1012B000208385E490E025E430E0F901208124607A
:1012C000FC0120831A82198215C0000085E390E09A
:1012D000FC018081882F90E082709927892BB1F3DF
:1012E00085E390E022E0FC01208389819A810196C8
:1012F0009A83898329813A818B819C8128173907B8
:1013000020F385E490E025E430E0F9012081287F96
:10131000FC0120830F900F900F900F90DF91CF91E1
:101320000895AF92BF92CF92DF92EF92FF920F9308
:101330001F93CF93DF93CDB7DEB764970FB6F894C2
:10134000DEBF0FBECDBF69837A838B839C832D83E1
:101350003E834F835887E986FA860B871C87AD86C4
:10136000BE86CF86D88A29813A814B815C818D8166
:101370009E81AF81B88579018A01E81AF90A0A0BC2
:101380001B0B29A13AA14BA15CA18D859E85AF8540
:10139000B88959016A01A81AB90ACA0ADB0AD60132
:1013A000C501A8019701BC01CD010E944D0A7B0136
:1013B0008C0129853A854B855C858D819E81AF8125
:1013C000B885281B390B4A0B5B0BC801B7010E947B
:1013D000710ADA01C9019C01AD018D859E85AF8539
:1013E000B889820F931FA41FB51FBC01CD0164965D
:1013F0000FB6F894DEBF0FBECDBFDF91CF911F9126
:101400000F91FF90EF90DF90CF90BF90AF90089535
:10141000CF93DF93CDB7DEB728970FB6F894DEBF32
:101420000FBECDBF9F838E83688719821A8227C023
:101430008A81882F90E02E813F81820F931FFC01CB
:1014400080818C831B8215C099818C81892780784B
:101450008D838981880F89838D81882321F09981EB
:1014600087E0892789838C81880F8C838B818F5FAC
:101470008B838B81883040F38A818F5F8A839A8146
:1014800088859817A8F2898128960FB6F894DEBF50
:101490000FBECDBFDF91CF910895DB018F939F9356
:1014A0000E94960ABF91AF91A29F800D911DA39FAC
:1014B000900DB29F900D11240895AA1BBB1B51E102
:1014C00007C0AA1FBB1FA617B70710F0A61BB70BB4
:1014D000881F991F5A95A9F780959095BC01CD0159
:1014E0000895052E97FB1EF400940E94880A57FD6C
:1014F00007D00E94A10A07FC03D04EF40C94880A7E
:1015000050954095309521953F4F4F4F5F4F08952F
:1015100090958095709561957F4F8F4F9F4F08955F
:10152000EE0FFF1F0590F491E02D09940E94C30A6D
:10153000A59F900DB49F900DA49F800D911D112427
:101540000895A1E21A2EAA1BBB1BFD010DC0AA1F04
:10155000BB1FEE1FFF1FA217B307E407F50720F01C
:10156000A21BB30BE40BF50B661F771F881F991F97
:101570001A9469F760957095809590959B01AC01E0
:10158000BD01CF010895A29FB001B39FC001A39FE9
:10159000700D811D1124911DB29F700D811D1124AC
:0815A000911D0895F894FFCF9E
:0A15A800FF000000FF000000FF0339
:00000001FF
