:100000000C9468000C943A020C9485000C948500C2
:100010000C9485000C948E060C9485000C9485003D
:100020000C9485000C94E8030C9485000C948500D6
:100030000C9485000C9485000C9485000C9485002C
:100040000C9485000C9485000C9485000C94350567
:100050000C9485000C9485000C9485000C9485000C
:100060000C9485000C9485000C9485000C948500FC
:100070000C9485000C9485000C9485006C05850516
:100080009E055806730673067306E806F506020712
:100090001D070608AE08AE08AE08AE08AE08AE08EA
:1000A000AE08AE08AE08AE08AE0809081608230868
:1000B000AE08AE08AE08AE08AE08AE08AE08AE0890
:1000C000AE08AE08AE08AE08AE082D0838085B08CA
:1000D00011241FBECFEFD8E0DEBFCDBF11E0A0E0FE
:1000E000B1E0E8EBF1E202C005900D92AE33B1074A
:1000F000D9F722E0AEE3B1E001C01D92AB32B20706
:10010000E1F70E94CB080C94DA100C940000CF9316
:10011000DF93CDB7DEB7F89481E0DF91CF910895FA
:10012000CF93DF9300D0CDB7DEB79A8389838FE575
:1001300090E029813A81F9012081FC0120830000AF
:100140000F900F90DF91CF910895CF93DF9300D060
:1001500000D0CDB7DEB79C838B838FE590E0FC01A8
:1001600080818A830E948700898319C02B813C810A
:100170008B819C8180589F4FFC01318320832B8190
:100180003C818B819C818E579F4FFC013183208362
:100190008B819C818C579F4FFC0110821982898131
:1001A000882321F7CE0102960E94900000000F9054
:1001B0000F900F900F90DF91CF910895CF93DF9321
:1001C00000D000D01F92CDB7DEB79C838B836D83A8
:1001D0008B819C8180589F4FFC01808191812D8172
:1001E000FC0120838B819C8180589F4FFC01808182
:1001F00091819C012F5F3F4F8B819C8180589F4F45
:10020000FC01318320838B819C8180589F4FFC01AE
:10021000208131818B819C8180589F4F281739071D
:1002200049F42B813C818B819C8180589F4FFC013C
:10023000318320838FE590E0FC0180818A830E94D6
:10024000870089830FC08B819C818C579F4FFC0155
:10025000808121E0280F8B819C818C579F4FFC016E
:10026000208319828981882371F7CE0102960E942A
:10027000900000000F900F900F900F900F90DF9163
:10028000CF910895CF93DF9300D000D01F92CDB7C8
:10029000DEB79D838C838C819D818E579F4FFC019F
:1002A00080819181FC0180818A838C819D818E5720
:1002B0009F4FFC01808191819C012F5F3F4F8C817A
:1002C0009D818E579F4FFC01318320838C819D81BE
:1002D0008E579F4FFC01208131818C819D818058F8
:1002E0009F4F2817390749F42C813D818C819D81CE
:1002F0008E579F4FFC01318320838FE590E0FC01F6
:1003000080818B830E94870089830FC08C819D81AF
:100310008C579F4FFC0180812FEF280F8C819D818E
:100320008C579F4FFC01208319828981882371F7A4
:10033000CE0103960E9490008A810F900F900F903B
:100340000F900F90DF91CF910895CF93DF9300D05E
:1003500000D000D0CDB7DEB79D838C836E83198229
:100360008C819D818E579F4FFC01808191819B8361
:100370008A831CC08A819B81FC0190818E819817A1
:1003800019F489818F5F89838A819B8101969B8380
:100390008A838C819D8180589F4F2A813B812817B9
:1003A000390721F48C819D819B838A838C819D8177
:1003B00080589F4FFC01208131818A819B812817C1
:1003C0003907C1F6898126960FB6F894DEBF0FBEB5
:1003D000CDBFDF91CF910895CF93DF93CDB7DEB737
:1003E00029970FB6F894DEBF0FBECDBF9D838C83D7
:1003F0007F836E83488729871A8219828C819D8129
:100400000E9442018B839B8188859817D1F489854E
:10041000882371F02E813F8189819A81820F931FF9
:100420002B81FC01208389819A8101969A8389839B
:100430002E813F8189819A81820F931FFC01108256
:100440000FC02E813F8189819A81820F931F2B815A
:10045000FC01208389819A8101969A838983CECF7A
:10046000000029960FB6F894DEBF0FBECDBFDF9116
:10047000CF9108951F920F9200905F000F92112468
:100480002F933F934F938F939F93EF93FF93CF932C
:10049000DF93CDB7DEB780913F01882309F4B2C066
:1004A00080913C01843108F083C180913E01882F06
:1004B00090E081309105D9F18230910509F46BC04B
:1004C000892B09F075C182E290E022E230E0F90167
:1004D0002081322F3F7020914201207F232BFC018D
:1004E000208385E290E025E230E0F9012081322F7F
:1004F000307F209142012F70232BFC0120838BE25F
:1005000090E02BE230E0F90120812860FC0120839B
:100510008BE290E02BE230E0F9012081277FFC01A3
:10052000208380913E018F5F80933E0141C182E232
:1005300090E022E230E0F9012081322F3F702091DB
:100540004101207F232BFC01208385E290E025E2FE
:1005500030E0F9012081322F307F209141012F704E
:10056000232BFC0120838BE290E02BE230E0F901A9
:1005700020812860FC0120838BE290E02BE230E0B8
:10058000F9012081277FFC01208380913E018F5F4C
:1005900080933E010DC182E290E022E230E0F90159
:1005A0002081322F3F7020913D01207F232BFC01C1
:1005B000208385E290E025E230E0F9012081322FAE
:1005C000307F20913D012F70232BFC0120838BE293
:1005D00090E02BE230E0F90120812860FC012083CB
:1005E0008BE290E02BE230E0F9012081277FFC01D3
:1005F000208310923E0180913C018F5F80933C01EB
:100600000000D6C080913C01843108F0D1C08091B7
:100610003E01882F90E08130910509F447C0823077
:10062000910509F483C0892B09F0C2C082E290E0F1
:1006300022E230E0F9012081422F4F7020913C01ED
:10064000222F30E02C5E3E4FF9012081207F242BA9
:10065000FC01208385E290E025E230E0F901208171
:10066000422F407F20913C01222F30E02C5E3E4FF4
:10067000F90120812F70242BFC0120838BE290E074
:100680002BE230E0F90120812860FC0120838BE21D
:1006900090E02BE230E0F9012081277FFC012083EC
:1006A00080913E018F5F80933E0182C082E290E0A4
:1006B00022E230E0F9012081422F4F7020913C016D
:1006C000222F30E020503F4FF9012081207F242B42
:1006D000FC01208385E290E025E230E0F9012081F1
:1006E000422F407F20913C01222F30E020503F4F8D
:1006F000F90120812F70242BFC0120838BE290E0F4
:100700002BE230E0F90120812860FC0120838BE29C
:1007100090E02BE230E0F9012081277FFC0120836B
:1007200080913E018F5F80933E0142C082E290E063
:1007300022E230E0F9012081422F4F7020913C01EC
:10074000222F30E0285D3E4FF9012081207F242BAD
:10075000FC01208385E290E025E230E0F901208170
:10076000422F407F20913C01222F30E0285D3E4FF8
:10077000F90120812F70242BFC0120838BE290E073
:100780002BE230E0F90120812860FC0120838BE21C
:1007900090E02BE230E0F9012081277FFC012083EB
:1007A00010923E0180913C018F5F80933C010000DC
:1007B0000000DF91CF91FF91EF919F918F914F9129
:1007C0003F912F910F9000925F000F901F9018950E
:1007D0001F920F9200905F000F921124AF92BF9270
:1007E000CF92DF92EF92FF920F931F932F933F933D
:1007F0004F935F936F937F938F939F93AF93BF9329
:10080000EF93FF93CF93DF93CDB7DEB78091600175
:10081000882309F4E7C080915F01882309F472C03E
:1008200080915B0190915C01A0915D01B0915E01AE
:100830000196A11DB11D80935B0190935C01A09373
:100840005D01B0935E0120915B0130915C014091AC
:100850005D0150915E018091570190915801A091E6
:100860005901B0915A01281739074A075B0708F464
:10087000B9C010925B0110925C0110925D01109260
:100880005E01809155019091560101969093560119
:100890008093550180915501909156010E944A0E16
:1008A0008091550190915601CC01A0E0B0E01F92DB
:1008B0001F921F9224E62F93A12CB12C6501E12CED
:1008C000F12C8701EA94F39420E030E0A901BC0107
:1008D000CD010E94900F0F900F900F900F90DC01B0
:1008E000CB0180932A0220915501309156018091CD
:1008F0005101909152012817390708F473C01092E2
:10090000600170C080915B0190915C01A0915D01DC
:10091000B0915E010196A11DB11D80935B01909382
:100920005C01A0935D01B0935E0120915B01309169
:100930005C0140915D0150915E0180915701909161
:100940005801A0915901B0915A01281739074A0757
:100950005B0708F447C010925B0110925C01109293
:100960005D0110925E0180915501909156010197B1
:1009700090935601809355018091550190915601B5
:100980000E944A0E8091550190915601CC01A0E041
:10099000B0E01F921F921F9224E62F93A12CB12C3E
:1009A0006501E12CF12C8701EA94F39420E030E01A
:1009B000A901BC01CD010E94900F0F900F900F90E4
:1009C0000F90DC01CB0180932A02209155013091D8
:1009D000560180915101909152018217930710F0B6
:1009E0001092600180914D018823B1F080914B01FC
:1009F00090914C01019690934C0180934B01209172
:100A00004B0130914C018091490190914A01281786
:100A1000390710F010924D0180914001882341F078
:100A20001092400110923E0110923C010E943A0245
:100A30000000DF91CF91FF91EF91BF91AF919F9116
:100A40008F917F916F915F914F913F912F911F9166
:100A50000F91FF90EF90DF90CF90BF90AF900F90ED
:100A600000925F000F901F9018951F920F920090B8
:100A70005F000F9211242F933F934F935F936F93D7
:100A80007F938F939F93AF93BF93EF93FF93CF93F6
:100A9000DF931F92CDB7DEB78EE490E0FC0180813A
:100AA00089838EE490E0FC01108280912802882FD7
:100AB00090E0092E000CAA0BBB0B40E050E026E0B2
:100AC00030E0841B950B2817390708F411C1825CAC
:100AD0009F4FFC010C94B1108981833090F080917C
:100AE0002602882F90E08A519E4F2981FC012083A5
:100AF000809126028F5F8093260281E080932802F6
:100B0000F7C082E080932802F3C080912602882FEC
:100B100090E08A519E4F2981FC012083809126021A
:100B20008F5F80932602909126028091E6019817AC
:100B300008F4DBC084E080932802D7C0109226021C
:100B40008981882F90E0823F910579F1833F91055B
:100B500024F4813F910551F0A6C0833F910509F42B
:100B600043C0843F910509F45EC09DC08EE490E0CF
:100B700021E0FC01208384E08093E6018981809359
:100B8000E701809129028093E80163E086EE91E01D
:100B90000E9407108093E90184E08093260210925E
:100BA000270283E08093280282C08EE490E021E057
:100BB000FC01208384E08093E60189818093E70132
:100BC00080912A028093E80163E086EE91E00E9422
:100BD00007108093E90184E0809326021092270297
:100BE00083E08093280263C08EE490E021E0FC0162
:100BF000208384E08093E60189818093E7010E944D
:100C0000A10E8093E80163E086EE91E00E94071058
:100C10008093E90184E0809326021092270283E00A
:100C20008093280244C08EE490E021E0FC01208300
:100C300080916001882309F187E08093E601898132
:100C40008093E70180914E018093E80180914F01EC
:100C50008093E901809150018093EA0180912A02FA
:100C60008093EB0166E086EE91E00E94071080938E
:100C7000EC0187E08093260210C083E08093E601B8
:100C800089818093E70162E086EE91E00E9407107F
:100C90008093E80183E0809326021092270283E08C
:100CA0008093280204C086E080932802000020C0C0
:100CB0008EE490E020912702222F30E02A513E4F0F
:100CC000F9012081FC012083809127028F5F8093AE
:100CD00027029091260280912702981741F485E01F
:100CE0008093280204C0000003C0000001C000007F
:100CF00000000F90DF91CF91FF91EF91BF91AF91E5
:100D00009F918F917F916F915F914F913F912F9123
:100D10000F9000925F000F901F9018951F920F92F6
:100D200000905F000F921124AF92BF92CF92DF929A
:100D3000EF92FF920F931F932F933F934F935F93E5
:100D40006F937F938F939F93AF93BF93EF93FF9393
:100D5000CF93DF93CDB7DEB78EE490E0FC01108235
:100D600083E290E0FC018081882F90E080719927D8
:100D7000892B09F4E1C180912802843009F0EEC189
:100D8000909126028091E601981709F0E7C18091C1
:100D90002602682F86EE91E00E940710882309F052
:100DA000DDC18091E701882F90E0092E000CAA0B8D
:100DB000BB0B41E150E022E230E0841B950B281789
:100DC000390708F4CBC18B5B9F4FFC010C94B11029
:100DD00080912602833009F0B4C10E94E20C809118
:100DE0002902816080932902ACC180912602833060
:100DF00009F0A9C10E94F30C809129028E7F809393
:100E00002902A1C180912602843009F09EC18091FF
:100E10006001882309F099C18091E801853620F0AE
:100E200084E680932A0204C08091E80180932A021C
:100E300080912A020E94FE0D88C180912602863090
:100E400009F085C18091E801853620F084E6809321
:100E50004E0104C08091E80180934E018091E90128
:100E6000853620F084E680934F0104C08091E9012B
:100E700080934F0180914E01882F90E0A0E0B0E078
:100E80001F921F9221E02F932FEF2F93A12CB12CB3
:100E9000650114E6E12EF12C00E010E020E030E0E6
:100EA000A901BC01CD010E94900F0F900F900F90EF
:100EB0000F90DC01CB0190935401809353018091FA
:100EC0004F01882F90E0A0E0B0E01F921F9221E038
:100ED0002F932FEF2F93A12CB12C650114E6E12E57
:100EE000F12C00E010E020E030E0A901BC01CD01D0
:100EF0000E94900F0F900F900F900F90DC01CB018C
:100F000090935201809351018091EA0180935001A6
:100F100080915301909154010E944A0E80914E019C
:100F200080932A028091530190915401909356012D
:100F30008093550110925B0110925C0110925D014B
:100F400010925E0190914E0180914F01981758F5D3
:100F500080915001282F30E080E797E1289FA00181
:100F6000299F500D389F500D11242091510130912F
:100F700052018091530190915401281B390BCA01F1
:100F8000B9010E945C10CB01CC01A0E0B0E08093DD
:100F9000570190935801A0935901B0935A0181E0F1
:100FA00080935F012FC090914E0180914F0189176E
:100FB00048F580915001282F30E080E797E1289F85
:100FC000A001299F500D389F500D112420915301ED
:100FD000309154018091510190915201281B390B9D
:100FE000CA01B9010E945C10CB01CC01A0E0B0E0C5
:100FF0008093570190935801A0935901B0935A01DF
:1010000010925F0181E080936001A1C010926001A5
:10101000A5C080912602833009F09BC00E941E0D5E
:101020008091290282608093290293C080912602D8
:10103000833009F090C00E94040D809129028D7FB9
:101040008093290288C080912602843009F085C0EF
:101050008091E8010E94980D80C061E381E691E0F3
:101060000E94DE006FEF81E691E00E94DE0076C014
:10107000809126028630F9F462E381E691E00E94D5
:10108000DE008091E801682F81E691E00E94DE0099
:101090008091E901682F81E691E00E94DE00809155
:1010A000EA01682F81E691E00E94DE006FEF81E6A1
:1010B00091E00E94DE00809126028A3009F04EC045
:1010C00063E381E691E00E94DE008091E801682FF1
:1010D00081E691E00E94DE008091E901682F81E6BF
:1010E00091E00E94DE008091EA01682F81E691E0A4
:1010F0000E94DE008091EB01682F81E691E00E9462
:10110000DE008091EC01682F81E691E00E94DE0014
:101110008091ED01682F81E691E00E94DE008091D0
:10112000EE01682F81E691E00E94DE006FEF81E61C
:1011300091E00E94DE0012C0109226021092280256
:101140000DC000000BC0000009C0000007C0000077
:1011500005C0000003C0000001C000000000DF91D6
:10116000CF91FF91EF91BF91AF919F918F917F911F
:101170006F915F914F913F912F911F910F91FF9030
:10118000EF90DF90CF90BF90AF900F9000925F00F4
:101190000F901F901895DF92EF92FF920F931F937D
:1011A000CF93DF93CDB7DEB728970FB6F894DEBFA5
:1011B0000FBECDBF0E94540C0E94670E80E090E0ED
:1011C0000E94BD0D0E94ED0D86EE91E00E94E20BA3
:1011D0000E94020C0E94350C81E691E00E94A5005D
:1011E0000E949B0B0E94800B0E94070F84E690E0F8
:1011F0000E94340F0E94AE0D789410923F0110921D
:101200003E0110923C010E943A0284E690E00E9466
:10121000340F61E381E691E00E94DE006FEF81E62A
:1012200091E00E94DE0062E381E691E00E94DE0030
:1012300061E081E691E00E94DE0061E081E691E0FC
:101240000E94DE0060E181E691E00E94DE006FEF27
:1012500081E691E00E94DE0061E381E691E00E9478
:10126000DE006FEF81E691E00E94DE0062E381E63E
:1012700091E00E94DE0061E081E691E00E94DE00E4
:1012800061E081E691E00E94DE0060E181E691E0AC
:101290000E94DE006FEF81E691E00E94DE0061E3D4
:1012A00081E691E00E94DE006FEF81E691E00E940E
:1012B000DE0062E381E691E00E94DE0061E081E60B
:1012C00091E00E94DE0061E081E691E00E94DE0094
:1012D00060E181E691E00E94DE006FEF81E691E03F
:1012E0000E94DE0061E381E691E00E94DE006FEF84
:1012F00081E691E00E94DE0062E381E691E00E94D7
:10130000DE0061E081E691E00E94DE0061E081E6BE
:1013100091E00E94DE0060E181E691E00E94DE0043
:101320006FEF81E691E00E94DE0061E381E691E0EB
:101330000E94DE006FEF81E691E00E94DE0062E332
:1013400081E691E00E94DE0061E081E691E00E948A
:10135000DE0061E081E691E00E94DE0060E181E66E
:1013600091E00E94DE006FEF81E691E00E94DE00D6
:1013700080914D01882309F443C180914001882365
:10138000B9F79091430180914601981788F58091B3
:101390004601282F30E080914301882F90E0A90179
:1013A000481B590BCA019C01990F440B550B8091A6
:1013B0004B0190914C01CC01A0E0B0E0BC01CD010B
:1013C0000E944C107B018C018091490190914A014F
:1013D0009C0140E050E0C801B7010E947010DA01A2
:1013E000C901982F80914301890F8093410131C039
:1013F000D090430180914301282F30E08091460135
:10140000882F90E0A901481B590BCA019C01990F34
:10141000440B550B80914B0190914C01CC01A0E005
:10142000B0E0BC01CD010E944C107B018C01809189
:10143000490190914A019C0140E050E0C801B70188
:101440000E947010DA01C9015D2D581B852F809311
:1014500041019091440180914701981788F580914E
:101460004701282F30E080914401882F90E0A901A6
:10147000481B590BCA019C01990F440B550B8091D5
:101480004B0190914C01CC01A0E0B0E0BC01CD013A
:101490000E944C107B018C018091490190914A017E
:1014A0009C0140E050E0C801B7010E947010DA01D1
:1014B000C901982F80914401890F8093420131C066
:1014C000D090440180914401282F30E08091470161
:1014D000882F90E0A901481B590BCA019C01990F64
:1014E000440B550B80914B0190914C01CC01A0E035
:1014F000B0E0BC01CD010E944C107B018C018091B9
:10150000490190914A019C0140E050E0C801B701B7
:101510000E947010DA01C9015D2D581B852F809340
:1015200042019091450180914801981788F580917A
:101530004801282F30E080914501882F90E0A901D3
:10154000481B590BCA019C01990F440B550B809104
:101550004B0190914C01CC01A0E0B0E0BC01CD0169
:101560000E944C107B018C018091490190914A01AD
:101570009C0140E050E0C801B7010E947010DA0100
:10158000C901982F80914501890F80933D0131C099
:10159000D090450180914501282F30E0809148018D
:1015A000882F90E0A901481B590BCA019C01990F93
:1015B000440B550B80914B0190914C01CC01A0E064
:1015C000B0E0BC01CD010E944C107B018C018091E8
:1015D000490190914A019C0140E050E0C801B701E7
:1015E0000E947010DA01C9015D2D581B852F809370
:1015F0003D0181E080933F0181E080934001B8CEBE
:101600006FEF81E691E00E94A501882309F4B0CE36
:1016100080914001882309F0ABCE20E04FEFCE014E
:101620000196BC0181E691E00E94EC018981882F3E
:1016300090E08233910599F08333910551F1C19780
:1016400009F05DC0109241011092420110923D01DB
:1016500081E080933F0181E08093400150C0CE0142
:1016600001960E94D110049709F046C08A818150EA
:10167000809341018B818150809342018C81815004
:1016800080933D0181E080933F0181E080934001A0
:1016900033C0CE0101960E94D110089779F58A8156
:1016A0008150809343018B818150809344018C81D0
:1016B0008150809345018D818150809346018E81B8
:1016C0008150809347018F818150809348018885A4
:1016D000282F30E048EC429FC001439F900D112419
:1016E00090934A018093490110924C0110924B0152
:1016F00081E080934D0102C000003ACE000038CE58
:10170000CF93DF93CDB7DEB789E690E029E630E0EE
:10171000F90120812260FC0120838CE390E021E02C
:10172000FC0120838DE390E021E0FC012083000098
:10173000DF91CF910895CF93DF93CDB7DEB784E2E9
:1017400090E024E230E0F90120812F60FC01208349
:1017500085E290E025E230E0F9012081207FFC0164
:10176000208381E290E021E230E0F9012081206FC6
:10177000FC01208382E290E022E230E0F901208146
:101780002F70FC0120838AE290E02AE230E0F90128
:1017900020812860FC0120838BE290E02BE230E086
:1017A000F9012081277FFC0120838AE290E02AE270
:1017B00030E0F90120812B7FFC0120830000DF91C4
:1017C000CF910895CF93DF9300D0CDB7DEB79A8342
:1017D000898389819A81805C9F4FFC011082898175
:1017E0009A818F5B9F4FFC01108289819A818E5B69
:1017F0009F4F26E0FC01208300000F900F90DF91A7
:10180000CF910895CF93DF931F92CDB7DEB78DE4CC
:1018100090E0FC0110828CE490E020E8FC01208341
:101820008DE490E0FC01808189838EE490E0FC01EE
:10183000808189838EE490E0FC01108284E290E054
:1018400024E230E0F90120812064FC0120838CE453
:1018500090E02CE430E0F90120812064FC01208339
:1018600000000F90DF91CF910895CF93DF93CDB714
:10187000DEB788E690E028E630E0F90120812260BA
:10188000FC0120838BE390E022E0FC0120838CE6C6
:1018900090E02CE630E0F90120812061FC012083FA
:1018A0000000DF91CF910895CF93DF93CDB7DEB7DE
:1018B0008AE290E02AE230E0F90120812063FC0115
:1018C00020838BE290E02BE230E0F901208120625E
:1018D000FC0120838BE290E02BE230E0F9012081D3
:1018E0002F7EFC0120838AE290E02AE230E0F901B9
:1018F00020812068FC0120838BE290E02BE230E025
:10190000F90120812068FC0120838AE290E02AE22C
:1019100030E0F90120812F7BFC0120838AE290E0F6
:101920002AE230E0F90120812C7FFC0120838BE248
:1019300090E02BE230E0F90120812160FC0120835E
:1019400081E290E021E230E0F90120812E7FFC016C
:10195000208382E290E022E230E0F90120812E7FB4
:10196000FC0120838EE790E02EE730E0F901208132
:101970002160FC01208381E290E021E230E0F90166
:101980002081217FFC01208382E290E022E230E08E
:10199000F90120812E60FC01208387E290E0FC01A8
:1019A000808187E290E0FC01108288E290E0FC01F7
:1019B000808188E290E02FEFFC0120830000DF911E
:1019C000CF910895CF93DF93CDB7DEB78BE290E050
:1019D0002BE230E0F90120812F7DFC012083000003
:1019E000DF91CF910895CF93DF93CDB7DEB78BE230
:1019F00090E02BE230E0F90120812062FC0120839D
:101A00000000DF91CF910895CF93DF93CDB7DEB77C
:101A10008BE290E02BE230E0F90120812068FC01AC
:101A200020838AE290E02AE230E0F90120812068F8
:101A3000FC0120830000DF91CF910895CF93DF93C5
:101A4000CDB7DEB78BE290E02BE230E0F9012081E8
:101A50002F77FC0120838AE290E02AE230E0F9014E
:101A600020812068FC0120830000DF91CF91089540
:101A7000CF93DF9300D0CDB7DEB78A838BE290E0BF
:101A80002BE230E0F90120812064FC0120831982DF
:101A900015C08AE290E02AE230E0F901208120645A
:101AA000FC0120838AE290E02AE230E0F901208103
:101AB0002F7BFC01208389818F5F898399818A81B3
:101AC000981738F300000F900F90DF91CF91089591
:101AD000CF93DF9300D0CDB7DEB78A838BE290E05F
:101AE0002BE230E0F90120812F7BFC012083198259
:101AF00015C08AE290E02AE230E0F90120812064FA
:101B0000FC0120838AE290E02AE230E0F9012081A2
:101B10002F7BFC01208389818F5F898399818A8152
:101B2000981738F300000F900F90DF91CF91089530
:101B3000CF93DF931F92CDB7DEB78983898181343C
:101B400010F080E4898380E40E94680D89810E94FE
:101B5000380D00000F90DF91CF910895CF93DF9360
:101B6000CDB7DEB70E941E0D80E40E94680D0E9472
:101B7000040D0000DF91CF910895CF93DF9300D043
:101B8000CDB7DEB79A83898389819A818115924086
:101B900020F08FEF91E09A83898380E890E022E241
:101BA000FC01208381E890E028E0FC01208384E8A8
:101BB00090E0FC01118210828AE890E029813A814C
:101BC000FC01318320838FE690E0FC01108200004D
:101BD0000F900F90DF91CF910895CF93DF93CDB702
:101BE000DEB781E890E021E830E0F9012081216052
:101BF000FC0120830000DF91CF9108958F929F9286
:101C0000AF92BF92CF92DF92EF92FF920F931F930A
:101C1000CF93DF931F92CDB7DEB789838981853655
:101C200010F084E689830F2EFAE88F2E912CF02D88
:101C30008981882F90E0A0E0B0E01F921F9221E000
:101C40002F932FEF2F93A12CB12C650114E6E12ED9
:101C5000F12C00E010E020E030E0A901BC01CD0152
:101C60000E94900F0F900F900F900F90DC01CB010E
:101C7000F4019183808300000F90DF91CF911F9139
:101C80000F91FF90EF90DF90CF90BF90AF909F901B
:101C90008F900895CF93DF9300D0CDB7DEB79A83AE
:101CA000898389819A818115924020F08FEF91E09C
:101CB0009A8389838AE890E029813A81FC01318303
:101CC000208300000F900F90DF91CF910895CF9364
:101CD000DF93CDB7DEB781E290E021E230E0F90199
:101CE00020812E7FFC0120838EE790E02EE730E0FC
:101CF000F90120812160FC0120838CE790E020E63F
:101D0000FC0120838AE790E027E3FC0120838BE736
:101D100090E0FC0110828AE790E02AE730E0F901C8
:101D200020812068FC0120838AE790E02AE730E0E8
:101D3000F90120812064FC0120830000DF91CF9114
:101D40000895AF92BF92CF92DF92EF92FF920F93DE
:101D50001F93CF93DF9300D000D0CDB7DEB789E7D4
:101D600090E0FC018081882F90E0A0E0B0E01F921D
:101D70001F9221E02F9322EC2F930F2EFEECAF2E1B
:101D8000BB24BA94CB2CDB2CF02DE12CF12C870159
:101D9000EA9420E030E0A901BC01CD010E94900F3F
:101DA0000F900F900F900F90DC01CB0189839A83E5
:101DB000AB83BC8389819A81AB81BC81BB232CF42A
:101DC00019821A821B821C8212C089819A81AB817E
:101DD000BC818F3F9105A105B10549F044F08FEF1B
:101DE00090E0A0E0B0E089839A83AB83BC838981D3
:101DF0000F900F900F900F90DF91CF911F910F9147
:101E0000FF90EF90DF90CF90BF90AF900895CF9369
:101E1000DF93CDB7DEB780EB90E022E0FC012083BA
:101E200081EB90E0FC01108282EB90E0FC011082DB
:101E300083EB90E020E6FC01208380E790E022E045
:101E4000FC01208387E390E022E0FC01208381EB0A
:101E500090E021EB30E0F90120812760FC01208334
:101E60000000DF91CF910895CF93DF9300D000D091
:101E7000CDB7DEB79C838B8384E490E022E0FC0145
:101E8000208385E490E0FC01108285E390E022E06D
:101E9000FC0120838EE690E0FC01108286E490E055
:101EA000FC01108287E490E02DE4FC01208385E4AE
:101EB00090E025E430E0F90120812460FC012083DA
:101EC0001A82198215C0000085E390E0FC01808130
:101ED000882F90E082709927892BB1F385E390E0F9
:101EE00022E0FC01208389819A8101969A8389836B
:101EF00029813A818B819C812817390720F385E459
:101F000090E025E430E0F9012081287FFC01208366
:101F100000000F900F900F900F90DF91CF910895D8
:101F2000AF92BF92CF92DF92EF92FF920F931F93E7
:101F3000CF93DF93CDB7DEB760970FB6F894DEBFCF
:101F40000FBECDBF69837A838B839C832D833E83B1
:101F50004F835887E986FA860B871C87AD86BE8635
:101F6000CF86D88A29813A814B815C818D819E817F
:101F7000AF81B88579018A01E81AF90A0A0B1B0BAF
:101F80002D8D3E8D4F8D58A18D859E85AF85B8894D
:101F900059016A01A81AB90ACA0ADB0AD601C501A1
:101FA000A8019701BC01CD010E944C107B018C015E
:101FB00029853A854B855C858D819E81AF81B88569
:101FC000281B390B4A0B5B0BC801B7010E9492100A
:101FD000DA01C9019C01AD018D859E85AF85B88967
:101FE000820F931FA41FB51FBC01CD0160960FB6D1
:101FF000F894DEBF0FBECDBFDF91CF911F910F913F
:10200000FF90EF90DF90CF90BF90AF900895CF9367
:10201000DF93CDB7DEB728970FB6F894DEBF0FBEBB
:10202000CDBF9F838E83688719821A8227C08A81D9
:10203000882F90E02E813F81820F931FFC018081C9
:102040008C831B8215C099818C81892780788D8330
:102050008981880F89838D81882321F0998187E088
:10206000892789838C81880F8C838B818F5F8B83F9
:102070008B81883040F38A818F5F8A839A8188853B
:102080009817A8F2898128960FB6F894DEBF0FBE84
:10209000CDBFDF91CF910895DB018F939F930E9475
:1020A000B710BF91AF91A29F800D911DA39F900D7E
:1020B000B29F900D11240895AA1BBB1B51E107C0CC
:1020C000AA1FBB1FA617B70710F0A61BB70B881FC8
:1020D000991F5A95A9F780959095BC01CD01089557
:1020E000A1E21A2EAA1BBB1BFD010DC0AA1FBB1F1C
:1020F000EE1FFF1FA217B307E407F50720F0A21B8E
:10210000B30BE40BF50B661F771F881F991F1A94FA
:1021100069F760957095809590959B01AC01BD0124
:10212000CF010895052E97FB1EF400940E94A9107C
:1021300057FD07D00E94701007FC03D04EF40C949A
:10214000A91050954095309521953F4F4F4F5F4FC7
:10215000089590958095709561957F4F8F4F9F4F13
:102160000895EE0FFF1F0590F491E02D09940E9451
:10217000C210A59F900DB49F900DA49F800D911D3E
:1021800011240895A29FB001B39FC001A39F700DB9
:10219000811D1124911DB29F700D811D1124911D6F
:1021A0000895FC0101900020E9F7809590958E0F2D
:0821B0009F1F0895F894FFCF72
:1021B800FF0000FF0000FF0000FF0000FF0000FF1D
:1021C8000000FF0000FF0000FF0000FF0000FF000C
:1021D80000FF0000FF0000FF0000FF0000FF0000FC
:0E21E800FF0000FF0000FF0000FF0000140ACF
:00000001FF
