:100000000C9466000C9471030C9483000C94830090
:100010000C9483000C94E5050C9483000C948300ED
:100020000C9483000C9438020C9483000C9483008D
:100030000C9483000C9483000C9483000C94830034
:100040000C9483000C9483000C9483000C947A0429
:100050000C9483000C9483000C9483000C94830014
:100060000C9483000C9483000C9483000C94830004
:100070000C9483000C9483000C948300BA04D30482
:10008000EC04A605C105C105C10548065506620672
:100090007D066607A807A807A807A807A807A80756
:1000A000A807A807A807A807A80769077507810771
:1000B000A807A807A807A807A807A807A807A807C8
:1000C000A807A807A807A807A8078A0711241FBE22
:1000D000CFEFD8E0DEBFCDBF11E0A0E0B1E0E4E3B8
:1000E000FDE102C005900D92AE33B107D9F722E0D1
:1000F000AEE3B1E001C01D92AC31B207E1F70E945E
:10010000CE070C94980E0C940000CF93DF93CDB7DC
:10011000DEB7F89481E0DF91CF910895CF93DF931C
:1001200000D0CDB7DEB79A8389838FE590E029812F
:100130003A81F9012081FC01208300000F900F908B
:10014000DF91CF910895CF93DF9300D000D0CDB74A
:10015000DEB79C838B838FE590E0FC0180818A83EE
:100160000E948500898319C02B813C818B819C81F1
:1001700080589F4FFC01318320832B813C818B81F0
:100180009C818E579F4FFC01318320838B819C8102
:100190008C579F4FFC01108219828981882321F797
:1001A000CE0102960E948E0000000F900F900F90DB
:1001B0000F90DF91CF910895CF93DF9300D000D0BF
:1001C0001F92CDB7DEB79C838B836D838B819C811F
:1001D00080589F4FFC01808191812D81FC012083FB
:1001E0008B819C8180589F4FFC01808191819C0173
:1001F0002F5F3F4F8B819C8180589F4FFC01318343
:1002000020838B819C8180589F4FFC01208131810C
:100210008B819C8180589F4F2817390749F42B8187
:100220003C818B819C8180589F4FFC0131832083CE
:100230008FE590E0FC0180818A830E94850089839C
:100240000FC08B819C818C579F4FFC01808121E0E6
:10025000280F8B819C818C579F4FFC012083198232
:100260008981882371F7CE0102960E948E000000DA
:100270000F900F900F900F900F90DF91CF910895F6
:10028000CF93DF9300D000D01F92CDB7DEB79D8310
:100290008C838C819D818E579F4FFC018081918141
:1002A000FC0180818A838C819D818E579F4FFC0148
:1002B000808191819C012F5F3F4F8C819D818E5762
:1002C0009F4FFC01318320838C819D818E579F4FEE
:1002D000FC01208131818C819D8180589F4F28179E
:1002E000390749F42C813D818C819D818E579F4F28
:1002F000FC01318320838FE590E0FC0180818B83BA
:100300000E94850089830FC08C819D818C579F4FEF
:10031000FC0180812FEF280F8C819D818C579F4F8E
:10032000FC01208319828981882371F7CE0103960D
:100330000E948E008A810F900F900F900F900F9067
:10034000DF91CF910895CF93DF9300D000D000D0FC
:10035000CDB7DEB79D838C836E8319828C819D819E
:100360008E579F4FFC01808191819B838A831CC0A3
:100370008A819B81FC0190818E81981719F4898173
:100380008F5F89838A819B8101969B838A838C817D
:100390009D8180589F4F2A813B812817390721F47E
:1003A0008C819D819B838A838C819D8180589F4F06
:1003B000FC01208131818A819B8128173907C1F690
:1003C000898126960FB6F894DEBF0FBECDBFDF91B0
:1003D000CF910895CF93DF93CDB7DEB729970FB6AE
:1003E000F894DEBF0FBECDBF9D838C837F836E8369
:1003F000488729871A8219828C819D810E94400139
:100400008B839B8188859817D1F48985882371F027
:100410002E813F8189819A81820F931F2B81FC015C
:10042000208389819A8101969A8389832E813F81D5
:1004300089819A81820F931FFC0110820FC02E8147
:100440003F8189819A81820F931F2B81FC01208338
:1004500089819A8101969A838983CECF000029965B
:100460000FB6F894DEBF0FBECDBFDF91CF910895D8
:100470001F920F9200905F000F921124AF92BF92D3
:10048000CF92DF92EF92FF920F931F932F933F93A0
:100490004F935F936F937F938F939F93AF93BF938C
:1004A000EF93FF93CF93DF93CDB7DEB78BE290E06E
:1004B0002BE230E0F90120812260FC012083809151
:1004C0005101882309F4E7C080915001882309F481
:1004D00072C080914C0190914D01A0914E01B0915C
:1004E0004F010196A11DB11D80934C0190934D01C8
:1004F000A0934E01B0934F0120914C0130914D01DA
:1005000040914E0150914F018091480190914901D5
:10051000A0914A01B0914B01281739074A075B07A0
:1005200008F4B9C010924C0110924D0110924E0186
:1005300010924F018091460190914701019690934E
:1005400047018093460180914601909147010E94A6
:10055000080C8091460190914701CC01A0E0B0E0E9
:100560001F921F921F9224E62F93A12CB12C65019C
:10057000E12CF12C8701EA94F39420E030E0A9010A
:10058000BC01CD010E944E0D0F900F900F900F9067
:10059000DC01CB0180931B02209146013091470181
:1005A00080914201909143012817390708F473C0E4
:1005B0001092510170C080914C0190914D01A09119
:1005C0004E01B0914F010196A11DB11D80934C01C8
:1005D00090934D01A0934E01B0934F0120914C0197
:1005E00030914D0140914E0150914F018091480151
:1005F00090914901A0914A01B0914B012817390708
:100600004A075B0708F447C010924C0110924D0155
:1006100010924E0110924F01809146019091470136
:1006200001979093470180934601809146019091F4
:1006300047010E94080C8091460190914701CC012E
:10064000A0E0B0E01F921F921F9224E62F93A12CEE
:10065000B12C6501E12CF12C8701EA94F39420E0A0
:1006600030E0A901BC01CD010E944E0D0F900F900A
:100670000F900F90DC01CB0180931B02209146016B
:100680003091470180914201909143018217930775
:1006900010F0109251018BE290E02BE230E0F90172
:1006A00020812D7FFC0120830000DF91CF91FF91FD
:1006B000EF91BF91AF919F918F917F916F915F91DA
:1006C0004F913F912F911F910F91FF90EF90DF90ED
:1006D000CF90BF90AF900F9000925F000F901F904F
:1006E00018951F920F9200905F000F9211242F9384
:1006F0003F934F938F939F93EF93FF93CF93DF930A
:10070000CDB7DEB78BE290E02BE230E0F90120813B
:100710002260FC01208380913C01843108F0D1C02B
:1007200080913E01882F90E08130910509F447C007
:100730008230910509F483C0892B09F0C2C082E29E
:1007400090E022E230E0F9012081422F4F702091A9
:100750003C01222F30E02C5E3E4FF9012081207FAA
:10076000242BFC01208385E290E025E230E0F901B2
:100770002081422F407F20913C01222F30E02C5ECF
:100780003E4FF90120812F70242BFC0120838BE246
:1007900090E02BE230E0F90120812860FC01208309
:1007A0008BE290E02BE230E0F9012081277FFC0111
:1007B000208380913E018F5F80933E0182C082E260
:1007C00090E022E230E0F9012081422F4F70209129
:1007D0003C01222F30E020503F4FF9012081207F43
:1007E000242BFC01208385E290E025E230E0F90132
:1007F0002081422F407F20913C01222F30E0205069
:100800003F4FF90120812F70242BFC0120838BE2C4
:1008100090E02BE230E0F90120812860FC01208388
:100820008BE290E02BE230E0F9012081277FFC0190
:10083000208380913E018F5F80933E0142C082E21F
:1008400090E022E230E0F9012081422F4F702091A8
:100850003C01222F30E0285D3E4FF9012081207FAE
:10086000242BFC01208385E290E025E230E0F901B1
:100870002081422F407F20913C01222F30E0285DD3
:100880003E4FF90120812F70242BFC0120838BE245
:1008900090E02BE230E0F90120812860FC01208308
:1008A0008BE290E02BE230E0F9012081277FFC0110
:1008B000208310923E0180913C018F5F80933C0128
:1008C00000008BE290E02BE230E0F90120812D7FE7
:1008D000FC0120830000DF91CF91FF91EF919F9168
:1008E0008F914F913F912F910F9000925F000F9049
:1008F0001F9018951F920F9200905F000F92112485
:100900002F933F934F935F936F937F938F939F9317
:10091000AF93BF93EF93FF93CF93DF931F92CDB726
:10092000DEB78EE490E0FC01808189838BE290E069
:100930002BE230E0F90120812260FC0120838EE46B
:1009400090E0FC01108280911902882F90E0092E1E
:10095000000CAA0BBB0B40E050E026E030E0841B0B
:10096000950B2817390708F411C1825C9F4FFC01D1
:100970000C944D0E8981833090F080911702882F5E
:1009800090E089529E4F2981FC01208380911702BB
:100990008F5F8093170281E080931902F7C082E095
:1009A00080931902F3C080911702882F90E089523A
:1009B0009E4F2981FC012083809117028F5F8093D5
:1009C0001702909117028091D701981708F4DBC0A5
:1009D00084E080931902D7C0109217028981882F72
:1009E00090E0823F910579F1833F910524F4813FA6
:1009F000910551F0A6C0833F910509F443C0843F9F
:100A0000910509F45EC09DC08EE490E021E0FC01F8
:100A1000208384E08093D70189818093D8018091DD
:100A20001A028093D90163E087ED91E00E94C50D21
:100A30008093DA0184E0809317021092180283E019
:100A40008093190282C08EE490E021E0FC012083B3
:100A500084E08093D70189818093D80180911B0223
:100A60008093D90163E087ED91E00E94C50D8093EA
:100A7000DA0184E0809317021092180283E08093D9
:100A8000190263C08EE490E021E0FC01208384E041
:100A90008093D70189818093D8010E945F0C809355
:100AA000D90163E087ED91E00E94C50D8093DA01E2
:100AB00084E0809317021092180283E08093190259
:100AC00044C08EE490E021E0FC012083809151013C
:100AD000882309F187E08093D70189818093D80129
:100AE00080913F018093D901809140018093DA0188
:100AF000809141018093DB0180911B028093DC0196
:100B000066E087ED91E00E94C50D8093DD0187E0EE
:100B10008093170210C083E08093D701898180936E
:100B2000D80162E087ED91E00E94C50D8093D90164
:100B300083E0809317021092180283E080931902D9
:100B400004C086E080931902000020C08EE490E08B
:100B500020911802222F30E029523E4FF9012081C6
:100B6000FC012083809118028F5F8093180290917E
:100B7000170280911802981741F485E080931902BA
:100B800004C0000003C0000001C000008BE290E040
:100B90002BE230E0F90120812D7FFC012083000051
:100BA0000F90DF91CF91FF91EF91BF91AF919F9106
:100BB0008F917F916F915F914F913F912F910F9006
:100BC00000925F000F901F9018951F920F92009057
:100BD0005F000F921124AF92BF92CF92DF92EF92FB
:100BE000FF920F931F932F933F934F935F936F93B6
:100BF0007F938F939F93AF93BF93EF93FF93CF9385
:100C0000DF93CDB7DEB78BE290E02BE230E0F90165
:100C100020812260FC0120838EE490E0FC011082A0
:100C200083E290E0FC018081882F90E08071992719
:100C3000892B09F47BC180911902843009F088C1A5
:100C4000909117028091D701981709F081C1809186
:100C50001702682F87ED91E00E94C50D882309F0E7
:100C600077C18091D801882F90E0092E000CAA0B43
:100C7000BB0B41E150E020E230E0841B950B2817CC
:100C8000390708F465C18B5B9F4FFC010C944D0E36
:100C900080911702833009F04EC10E94A00A809112
:100CA0001A02816080931A0246C180911702833034
:100CB00009F043C10E94B10A80911A028E7F80938D
:100CC0001A023BC180911702843009F038C180912B
:100CD0005101882309F033C18091D901853620F074
:100CE00084E680931B0204C08091D90180931B028B
:100CF00080911B020E94BC0B22C18091170286309A
:100D000009F01FC18091D901853620F084E68093D7
:100D10003F0104C08091D90180933F018091DA01A5
:100D2000853620F084E68093400104C08091DA018A
:100D30008093400180913F01882F90E0A0E0B0E0D7
:100D40001F921F9221E02F932FEF2F93A12CB12CF4
:100D5000650114E6E12EF12C00E010E020E030E027
:100D6000A901BC01CD010E944E0D0F900F900F9074
:100D70000F90DC01CB019093450180934401809159
:100D80004001882F90E0A0E0B0E01F921F9221E088
:100D90002F932FEF2F93A12CB12C650114E6E12E98
:100DA000F12C00E010E020E030E0A901BC01CD0111
:100DB0000E944E0D0F900F900F900F90DC01CB0111
:100DC00090934301809342018091DB018093410124
:100DD00080914401909145010E94080C80913F014F
:100DE00080931B02809144019091450190934701AB
:100DF0008093460110924C0110924D0110924E01C9
:100E000010924F0190913F0180914001981758F541
:100E100080914101282F30E080E797E1289FA001D1
:100E2000299F500D389F500D11242091420130917F
:100E300043018091440190914501281B390BCA015F
:100E4000B9010E941A0ECB01CC01A0E0B0E0809362
:100E5000480190934901A0934A01B0934B0181E06E
:100E6000809350012FC090913F01809140018917DC
:100E700048F580914101282F30E080E797E1289FD5
:100E8000A001299F500D389F500D1124209144013D
:100E9000309145018091420190914301281B390B0B
:100EA000CA01B9010E941A0ECB01CC01A0E0B0E04A
:100EB0008093480190934901A0934A01B0934B015C
:100EC0001092500181E0809351013BC0109251017A
:100ED0003FC0809117028330B1F50E94DC0A8091F7
:100EE0001A02826080931A022EC08091170283300A
:100EF00061F50E94C20A80911A028D7F80931A02C6
:100F000024C080911702843011F58091D9010E948C
:100F1000560B1DC061E382E591E00E94DC006FEF9B
:100F200082E591E00E94DC00000012C010921702DE
:100F3000109219020DC000000BC0000009C0000093
:100F400007C0000005C0000003C0000001C0000091
:100F50008BE290E02BE230E0F90120812D7FFC0153
:100F600020830000DF91CF91FF91EF91BF91AF916E
:100F70009F918F917F916F915F914F913F912F91B1
:100F80001F910F91FF90EF90DF90CF90BF90AF90A7
:100F90000F9000925F000F901F901895CF93DF93F2
:100FA000CDB7DEB72A970FB6F894DEBF0FBECDBF20
:100FB0000E94120A0E94250C80E090E00E947B0BA8
:100FC0000E94AB0B87ED91E00E94A0090E94C0092E
:100FD0000E94F30982E591E00E94A3000E94590952
:100FE0000E943E090E94C50C84E690E00E94F20C2B
:100FF0000E946C0B8AE290E02AE230E0F901208145
:101000002260FC0120838BE290E02BE230E0F901CA
:1010100020812D7FFC012083789410923E01109254
:101020003C010E94710384E690E00E94F20C61E3AF
:1010300082E591E00E94DC006FEF82E591E00E9482
:10104000DC0062E382E591E00E94DC0061E082E581
:1010500091E00E94DC0061E082E591E00E94DC000A
:1010600060E182E591E00E94DC006FEF82E591E0B3
:101070000E94DC0061E382E591E00E94DC006FEFFA
:1010800082E591E00E94DC0062E382E591E00E944B
:10109000DC0061E082E591E00E94DC0061E082E535
:1010A00091E00E94DC0060E182E591E00E94DC00BA
:1010B0006FEF82E591E00E94DC0061E382E591E060
:1010C0000E94DC006FEF82E591E00E94DC0062E3A9
:1010D00082E591E00E94DC0061E082E591E00E94FF
:1010E000DC0061E082E591E00E94DC0060E182E5E5
:1010F00091E00E94DC006FEF82E591E00E94DC004D
:1011000061E382E591E00E94DC006FEF82E591E00F
:101110000E94DC0062E382E591E00E94DC0061E075
:1011200082E591E00E94DC0061E082E591E00E94AE
:10113000DC0060E182E591E00E94DC006FEF82E577
:1011400091E00E94DC0061E382E591E00E94DC0016
:101150006FEF82E591E00E94DC0062E382E591E0BE
:101160000E94DC0061E082E591E00E94DC0061E029
:1011700082E591E00E94DC0060E182E591E00E945E
:10118000DC006FEF82E591E00E94DC006FEF82E50A
:1011900091E00E94A301882309F46BC0CE0103965D
:1011A00020E04FEFBC0182E591E00E94EA018B81D3
:1011B000882F90E08133910519F0C29731F159C021
:1011C0001A82198217C089819A8180509F4FFC0131
:1011D000108289819A818C5E9E4FFC0110828981E8
:1011E0009A81885D9E4FFC01108289819A810196C7
:1011F0009A83898389819A81449728F310923E01CA
:1012000010923C010E94710334C0CE0103960E94EB
:101210008F0E049769F51A82198220C08C812FEFF6
:10122000280F89819A8180509F4FFC0120838D81F6
:101230002FEF280F89819A818C5E9E4FFC012083BD
:101240008E812FEF280F89819A81885D9E4FFC0146
:10125000208389819A8101969A83898389819A81E1
:101260004497E0F210923E0110923C010E947103FB
:10127000000082E090E00E94F20C88CFCF93DF93D1
:10128000CDB7DEB789E690E029E630E0F9012081AC
:101290002260FC0120838CE390E021E0FC012083AC
:1012A0008DE390E021E0FC0120830000DF91CF91ED
:1012B0000895CF93DF93CDB7DEB784E290E024E2C8
:1012C00030E0F90120812F60FC01208385E290E06D
:1012D00025E230E0F9012081207FFC01208381E2BA
:1012E00090E021E230E0F9012081206FFC012083B1
:1012F00082E290E022E230E0F90120812F70FC01CF
:1013000020838AE290E02AE230E0F901208128601F
:10131000FC0120838BE290E02BE230E0F901208198
:10132000277FFC0120838AE290E02AE230E0F90185
:1013300020812B7FFC0120830000DF91CF91089555
:10134000CF93DF9300D0CDB7DEB79A8389838981AD
:101350009A81805C9F4FFC01108289819A818F5B0A
:101360009F4FFC01108289819A818E5B9F4F26E0FE
:10137000FC01208300000F900F90DF91CF91089522
:10138000CF93DF931F92CDB7DEB78DE490E0FC01E1
:1013900010828CE490E020E8FC0120838DE490E052
:1013A000FC01808189838EE490E0FC018081898347
:1013B0008EE490E0FC01108284E290E024E230E0D0
:1013C000F90120812064FC0120838CE490E02CE46E
:1013D00030E0F90120812064FC01208300000F909F
:1013E000DF91CF910895CF93DF93CDB7DEB788E635
:1013F00090E028E630E0F90120812260FC012083A2
:101400008BE390E022E0FC0120838CE690E02CE668
:1014100030E0F90120812061FC0120830000DF9190
:10142000CF910895CF93DF93CDB7DEB78AE290E0F6
:101430002AE230E0F90120812063FC0120838BE265
:1014400090E02BE230E0F90120812062FC01208352
:101450008BE290E02BE230E0F90120812F7EFC014D
:1014600020838AE290E02AE230E0F90120812068BE
:10147000FC0120838BE290E02BE230E0F901208137
:101480002068FC0120838AE290E02AE230E0F90142
:1014900020812F7BFC0120838AE290E02AE230E069
:1014A000F90120812C7FFC0120838BE290E02BE26C
:1014B00030E0F90120812160FC01208381E290E08D
:1014C00021E230E0F90120812E7FFC01208382E2BD
:1014D00090E022E230E0F90120812E7FFC012083A0
:1014E0008EE790E02EE730E0F90120812160FC01D9
:1014F000208381E290E021E230E0F9012081217F28
:10150000FC01208382E290E022E230E0F9012081B8
:101510002E60FC01208387E290E0FC01808187E25D
:1015200090E0FC01108288E290E0FC01808188E27A
:1015300090E02FEFFC0120830000DF91CF91089510
:10154000CF93DF93CDB7DEB78BE290E02BE230E0B4
:10155000F90120812F7DFC0120830000DF91CF91D4
:101560000895CF93DF93CDB7DEB78BE290E02BE207
:1015700030E0F90120812062FC0120830000DF912E
:10158000CF910895CF93DF93CDB7DEB78BE290E094
:101590002BE230E0F90120812068FC0120838AE2FF
:1015A00090E02AE230E0F90120812068FC012083EC
:1015B0000000DF91CF910895CF93DF93CDB7DEB7D1
:1015C0008BE290E02BE230E0F90120812F77FC01E3
:1015D00020838AE290E02AE230E0F901208120684D
:1015E000FC0120830000DF91CF910895CF93DF931A
:1015F00000D0CDB7DEB78A838BE290E02BE230E0FB
:10160000F90120812064FC012083198215C08AE23F
:1016100090E02AE230E0F90120812064FC0120837F
:101620008AE290E02AE230E0F90120812F7BFC0180
:10163000208389818F5F898399818A81981738F304
:1016400000000F900F90DF91CF910895CF93DF931B
:1016500000D0CDB7DEB78A838BE290E02BE230E09A
:10166000F90120812F7BFC012083198215C08AE2B9
:1016700090E02AE230E0F90120812064FC0120831F
:101680008AE290E02AE230E0F90120812F7BFC0120
:10169000208389818F5F898399818A81981738F3A4
:1016A00000000F900F90DF91CF910895CF93DF93BB
:1016B0001F92CDB7DEB789838981813410F080E431
:1016C000898380E40E94260B89810E94F60A00002B
:1016D0000F90DF91CF910895CF93DF93CDB7DEB711
:1016E0000E94DC0A80E40E94260B0E94C20A0000CD
:1016F000DF91CF910895CF93DF9300D0CDB7DEB7C0
:101700009A83898389819A818115924020F08FEF95
:1017100091E09A83898380E890E022E2FC012083B3
:1017200081E890E028E0FC01208384E890E0FC015F
:10173000118210828AE890E029813A81FC0131838C
:1017400020838FE690E0FC01108200000F900F9044
:10175000DF91CF910895CF93DF93CDB7DEB781E8C6
:1017600090E021E830E0F90120812160FC01208334
:101770000000DF91CF9108958F929F92AF92BF9218
:10178000CF92DF92EF92FF920F931F93CF93DF934D
:101790001F92CDB7DEB789838981853610F084E644
:1017A00089830F2EFAE88F2E912CF02D8981882FB6
:1017B00090E0A0E0B0E01F921F9221E02F932FEF66
:1017C0002F93A12CB12C650114E6E12EF12C00E041
:1017D00010E020E030E0A901BC01CD010E944E0DD7
:1017E0000F900F900F900F90DC01CB01F4019183CB
:1017F000808300000F90DF91CF911F910F91FF9098
:10180000EF90DF90CF90BF90AF909F908F90089512
:10181000CF93DF9300D0CDB7DEB79A8389838981D8
:101820009A818115924020F08FEF91E09A8389830D
:101830008AE890E029813A81FC013183208300000D
:101840000F900F90DF91CF910895CF93DF93CDB795
:10185000DEB781E290E021E230E0F90120812E7FC5
:10186000FC0120838EE790E02EE730E0F901208133
:101870002160FC0120838CE790E020E6FC012083BE
:101880008AE790E027E3FC0120838BE790E0FC01EE
:1018900010828AE790E02AE730E0F9012081206891
:1018A000FC0120838AE790E02AE730E0F9012081FB
:1018B0002064FC0120830000DF91CF910895AF9256
:1018C000BF92CF92DF92EF92FF920F931F93CF932D
:1018D000DF9300D000D0CDB7DEB789E790E0FC0100
:1018E0008081882F90E0A0E0B0E01F921F9221E05D
:1018F0002F9322EC2F930F2EFEECAF2EBB24BA9425
:10190000CB2CDB2CF02DE12CF12C8701EA9420E08C
:1019100030E0A901BC01CD010E944E0D0F900F9047
:101920000F900F90DC01CB0189839A83AB83BC833A
:1019300089819A81AB81BC81BB232CF419821A82E4
:101940001B821C8212C089819A81AB81BC818F3F2E
:101950009105A105B10549F044F08FEF90E0A0E0BA
:10196000B0E089839A83AB83BC8389810F900F9009
:101970000F900F90DF91CF911F910F91FF90EF90FB
:10198000DF90CF90BF90AF900895CF93DF93CDB706
:10199000DEB780EB90E022E0FC01208381EB90E059
:1019A000FC01108282EB90E0FC01108283EB90E05E
:1019B00020E6FC01208380E790E022E0FC01208308
:1019C00087E390E022E0FC01208381EB90E021EBB3
:1019D00030E0F90120812760FC0120830000DF91C5
:1019E000CF910895CF93DF9300D000D0CDB7DEB76D
:1019F0009C838B8384E490E022E0FC01208385E4D7
:101A000090E0FC01108285E390E022E0FC0120835D
:101A10008EE690E0FC01108286E490E0FC011082EA
:101A200087E490E02DE4FC01208385E490E025E448
:101A300030E0F90120812460FC0120831A821982A0
:101A400015C0000085E390E0FC018081882F90E0C4
:101A500082709927892BB1F385E390E022E0FC01A5
:101A6000208389819A8101969A83898329813A8189
:101A70008B819C812817390720F385E490E025E4C9
:101A800030E0F9012081287FFC01208300000F90C5
:101A90000F900F900F90DF91CF910895AF92BF926A
:101AA000CF92DF92EF92FF920F931F93CF93DF932A
:101AB000CDB7DEB760970FB6F894DEBF0FBECDBFCF
:101AC00069837A838B839C832D833E834F835887DE
:101AD000E986FA860B871C87AD86BE86CF86D88AB4
:101AE00029813A814B815C818D819E81AF81B8854E
:101AF00079018A01E81AF90A0A0B1B0B2D8D3E8D1C
:101B00004F8D58A18D859E85AF85B88959016A0191
:101B1000A81AB90ACA0ADB0AD601C501A8019701A9
:101B2000BC01CD010E940A0E7B018C0129853A85FA
:101B30004B855C858D819E81AF81B885281B390BD3
:101B40004A0B5B0BC801B7010E942E0EDA01C901D6
:101B50009C01AD018D859E85AF85B889820F931F4D
:101B6000A41FB51FBC01CD0160960FB6F894DEBF6F
:101B70000FBECDBFDF91CF911F910F91FF90EF90DE
:101B8000DF90CF90BF90AF900895CF93DF93CDB704
:101B9000DEB728970FB6F894DEBF0FBECDBF9F8388
:101BA0008E83688719821A8227C08A81882F90E0E5
:101BB0002E813F81820F931FFC0180818C831B82C9
:101BC00015C099818C81892780788D838981880FC0
:101BD00089838D81882321F0998187E089278983F2
:101BE0008C81880F8C838B818F5F8B838B81883076
:101BF00040F38A818F5F8A839A8188859817A8F23B
:101C0000898128960FB6F894DEBF0FBECDBFDF9155
:101C1000CF910895DB018F939F930E94530EBF9144
:101C2000AF91A29F800D911DA39F900DB29F900D2B
:101C300011240895AA1BBB1B51E107C0AA1FBB1F9B
:101C4000A617B70710F0A61BB70B881F991F5A9548
:101C5000A9F780959095BC01CD010895052E97FBBD
:101C60001EF400940E94450E57FD07D00E945E0EA0
:101C700007FC03D04EF40C94450E509540953095DA
:101C800021953F4F4F4F5F4F0895909580957095E8
:101C900061957F4F8F4F9F4F0895EE0FFF1F059067
:101CA000F491E02D09940E94800EA59F900DB49FA1
:101CB000900DA49F800D911D11240895A1E21A2E6C
:101CC000AA1BBB1BFD010DC0AA1FBB1FEE1FFF1FE0
:101CD000A217B307E407F50720F0A21BB30BE40B30
:101CE000F50B661F771F881F991F1A9469F7609577
:101CF0007095809590959B01AC01BD01CF01089531
:101D0000A29FB001B39FC001A39F700D811D11243C
:101D1000911DB29F700D811D1124911D0895FC012C
:101D200001900020E9F7809590958E0F9F1F0895F0
:041D3000F894FFCF55
:101D3400FF0000FF0000FF0000FF0000FF0000FFA5
:101D44000000FF0000FF0000FF0000FF0000FF0094
:101D540000FF0000FF0000FF0000FF0000FF000084
:0E1D6400FF0000FF0000FF0000FF0000140061
:00000001FF
