S0190000636C757374657277696E6B5F6D6B5F69692E73726563E8
S11300000C943E000C9448000C9448000C94480056
S11300100C9448000C9448000C9448000C9448003C
S11300200C9448000C9448000C9448000C9448002C
S11300300C9448000C9448000C9448000C9448001C
S11300400C9448000C9448000C9448000C9448000C
S11300500C9448000C9448000C9448000C944800FC
S11300600C9448000C9448000C9448000C944800EC
S11300700C9448000C9448000C94480011241FBEB2
S1130080CFEFD8E0DEBFCDBF0E944A000C9404023B
S11300900C940000CF93DF931F92CDB7DEB7198283
S11300A00E945A0080E00E94B2000E9411010E9446
S11300B09800FFCFCF93DF93CDB7DEB78AE290E00D
S11300C02AE230E0F90120812063FC0120838BE2E5
S11300D090E02BE230E0F90120812062FC012083D2
S11300E08BE290E02BE230E0F90120812F7EFC01CD
S11300F020838AE290E02AE230E0F901208120683E
S1130100FC0120838BE290E02BE230E0F9012081B6
S11301102068FC0120838AE290E02AE230E0F901C1
S113012020812F7BFC0120830000DF91CF91089573
S1130130CF93DF93CDB7DEB78BE290E02BE230E0D4
S1130140F90120812F77FC0120838AE290E02AE2E2
S113015030E0F90120812760FC0120830000DF9159
S1130160CF9108958F929F92AF92BF92CF92DF92D8
S1130170EF92FF920F931F93CF93DF931F92CDB70C
S1130180DEB789838981853610F084E6898380E827
S113019090E022E2FC01208381E890E028E0FC0169
S11301A0208384E890E0FC01118210820F2EFAE88B
S11301B08F2E912CF02D8981882F90E0A0E0B0E063
S11301C01F921F9221E02F932FEF2F93A12CB12C7C
S11301D0650114E6E12EF12C00E010E020E030E0AF
S11301E0A901BC01CD010E9422010F900F900F9034
S11301F00F90DC01CB01F401918380838FE690E0C2
S1130200FC01108200000F90DF91CF911F910F919C
S1130210FF90EF90DF90CF90BF90AF909F908F9022
S11302200895CF93DF93CDB7DEB781E890E021E85E
S113023030E0F90120812160FC0120830000DF917E
S1130240CF910895AF92BF92CF92DF92EF92FF9237
S11302500F931F93CF93DF93CDB7DEB760970FB69D
S1130260F894DEBF0FBECDBF69837A838B839C83F2
S11302702D833E834F835887E986FA860B871C8734
S1130280AD86BE86CF86D88A29813A814B815C812E
S11302908D819E81AF81B88579018A01E81AF90AB6
S11302A00A0B1B0B2D8D3E8D4F8D58A18D859E8580
S11302B0AF85B88959016A01A81AB90ACA0ADB0AC2
S11302C0D601C501A8019701BC01CD010E94990185
S11302D07B018C0129853A854B855C858D819E81C6
S11302E0AF81B885281B390B4A0B5B0BC801B701DA
S11302F00E94A901DA01C9019C01AD018D859E8589
S1130300AF85B889820F931FA41FB51FBC01CD010F
S113031060960FB6F894DEBF0FBECDBFDF91CF91CC
S11303201F910F91FF90EF90DF90CF90BF90AF900F
S11303300895DB018F939F930E94C801BF91AF91F1
S1130340A29F800D911DA39F900DB29F900D11242B
S11303500895052E97FB1EF400940E94C00157FDDA
S113036007D00E94D30107FC03D04EF40C94C001C3
S113037050954095309521953F4F4F4F5F4F0895CD
S113038090958095709561957F4F8F4F9F4F0895FD
S11303900E94F501A59F900DB49F900DA49F800D20
S11303A0911D11240895A1E21A2EAA1BBB1BFD0165
S11303B00DC0AA1FBB1FEE1FFF1FA217B307E40740
S11303C0F50720F0A21BB30BE40BF50B661F771F98
S11303D0881F991F1A9469F7609570958095909578
S11303E09B01AC01BD01CF010895A29FB001B39F51
S11303F0C001A39F700D811D1124911DB29F700D2A
S10F0400811D1124911D0895F894FFCF74
S9030000FC
