:100000000C9445000C9462000C9462000C94620005
:100010000C9462000C9459010C9462000C946200E0
:100020000C9462000C9462000C9462000C946200C8
:100030000C9462000C9462000C9462000C946200B8
:100040000C9462000C9462000C9462000C946400A6
:100050000C9462000C9462000C9462000C94620098
:100060000C9462000C9462000C9462000C94620088
:100070000C9462000C9462000C9462009B00B4002B
:10008000CD002C0140014001400111241FBECFEFE3
:10009000D8E0DEBFCDBF11E0A0E0B1E0E6E8FCE0D3
:1000A00002C005900D92A230B107D9F721E0A2E07D
:1000B000B1E001C01D92A534B207E1F70E940A0227
:1000C0000C9441060C9400001F920F9200905F0068
:1000D0000F9211242F933F934F935F936F937F93CE
:1000E0008F939F93AF93BF93EF93FF93CF93DF9340
:1000F0001F92CDB7DEB78EE490E0FC01808189834A
:100100008EE490E0FC01108280914301882F90E002
:10011000092E000CAA0BBB0B40E050E026E030E0BB
:10012000841B950B2817390708F4ADC0825C9F4FDC
:10013000FC010C94FF058981833090F0809142018D
:10014000882F90E08E5F9E4F2981FC012083809153
:1001500042018F5F8093420181E08093430193C00D
:1001600082E0809343018FC080914201882F90E00C
:100170008E5F9E4F2981FC012083809142018F5F19
:10018000809342019091420180910201981708F4F6
:1001900079C084E08093430175C010924201898147
:1001A000882F90E0823C910509F1833C9105C1F1D3
:1001B000813C910509F04EC08EE490E021E0FC0105
:1001C000208384E0809305018981809304018091DC
:1001D00000018093030163E082E091E00E948B05BF
:1001E0008093020184E08093420135C08EE490E068
:1001F00021E0FC01208384E08093050189818093C4
:100200000401809144018093030163E082E091E066
:100210000E948B058093020184E0809342011BC001
:100220008EE490E021E0FC01208384E080930501CE
:10023000898180930401809101018093030163E02F
:1002400082E091E00E948B058093020184E080931C
:10025000420101C0000017C08EE490E020914201ED
:10026000222F30E0215031092E5F3E4FF9012081CD
:10027000FC0120838091420181508093420103C0A0
:10028000000001C0000000000F90DF91CF91FF91AE
:10029000EF91BF91AF919F918F917F916F915F91FE
:1002A0004F913F912F910F9000925F000F901F9000
:1002B00018951F920F9200905F000F9211242F93B8
:1002C0003F934F935F936F937F938F939F93AF93DE
:1002D000BF93EF93FF93CF93DF93CDB7DEB783E266
:1002E00090E0FC018081882F90E080719927892B14
:1002F00009F46BC080914301843009F076C090917D
:10030000420180910201981709F06FC0809142016B
:10031000682F82E091E00E948B05882309F065C078
:1003200080910301882F90E08330910509F184309A
:10033000910534F48130910561F0029791F055C038
:100340008530910589F1853091053CF1069799F149
:100350004CC080914201833009F03CC00E942103CF
:1003600039C0809142018330B9F50E94320334C014
:1003700080914201843091F580910401853620F00E
:1003800084E68093440104C0809104018093440179
:10039000809144010E946C0421C08091420183300D
:1003A000F9F40E945D031CC0809142018330D1F4B6
:1003B0000E94430317C0809142018430A9F48091C8
:1003C00004010E94D70300000FC010924201109256
:1003D00043010BC0000009C0000007C0000005C0B9
:1003E000000003C0000001C000000000DF91CF91B9
:1003F000FF91EF91BF91AF919F918F917F916F91FD
:100400005F914F913F912F910F9000925F000F905D
:100410001F901895CF93DF931F92CDB7DEB7198247
:100420000E94930289810E94FC030E945B0482E087
:1004300091E00E9427020E9441020E94740284E619
:1004400090E00E94B8040E94ED037894FFCFCF9310
:10045000DF9300D0CDB7DEB79A83898389819A81F3
:10046000805C9F4FFC01108289819A818F5B9F4F36
:1004700026E0FC01208300000F900F90DF91CF91C8
:100480000895CF93DF931F92CDB7DEB78DE490E050
:10049000FC0110828CE490E020E8FC0120838DE4D4
:1004A00090E0FC01808189838EE490E0FC018081F2
:1004B00089838EE490E0FC01108284E290E024E2E3
:1004C00030E0F90120812064FC0120838CE490E07D
:1004D0002CE430E0F90120812064FC01208300003D
:1004E0000F90DF91CF910895CF93DF93CDB7DEB713
:1004F00088E690E028E630E0F90120812260FC01E6
:1005000020838BE390E022E0FC0120838CE690E0E6
:100510002CE630E0F90120812061FC0120830000FD
:10052000DF91CF910895CF93DF93CDB7DEB78AE205
:1005300090E02AE230E0F90120812063FC01208371
:100540008BE290E02BE230E0F90120812062FC0197
:1005500020838BE290E02BE230E0F90120812F7EB6
:10056000FC0120838AE290E02AE230E0F901208158
:100570002068FC0120838BE290E02BE230E0F9015F
:1005800020812068FC0120838AE290E02AE230E0AA
:10059000F90120812F7BFC0120838AE290E02AE28E
:1005A00030E0F90120812C7FFC0120838BE290E078
:1005B0002BE230E0F90120812160FC01208381E2FF
:1005C00090E021E230E0F90120812E7FFC012083C0
:1005D00082E290E022E230E0F90120812E7FFC01EE
:1005E00020838EE790E02EE730E0F9012081216042
:1005F000FC01208381E290E021E230E0F9012081DA
:10060000217FFC01208382E290E022E230E0F901C8
:1006100020812E60FC01208387E290E0FC01808134
:1006200087E290E0FC01108288E290E0FC0180818A
:1006300088E290E02FEFFC0120830000DF91CF9152
:100640000895CF93DF93CDB7DEB78BE290E02BE236
:1006500030E0F90120812F7DFC0120830000DF9133
:10066000CF910895CF93DF93CDB7DEB78BE290E0C3
:100670002BE230E0F90120812062FC0120830000A0
:10068000DF91CF910895CF93DF93CDB7DEB78BE2A3
:1006900090E02BE230E0F90120812068FC0120830A
:1006A0008AE290E02AE230E0F90120812760FC0133
:1006B00020830000DF91CF910895CF93DF93CDB7D2
:1006C000DEB78BE290E02BE230E0F90120812F775A
:1006D000FC0120838AE290E02AE230E0F9012081E7
:1006E0002760FC0120830000DF91CF910895CF9314
:1006F000DF9300D0CDB7DEB78A838BE290E02BE2A8
:1007000030E0F90120812064FC012083198215C0AA
:100710008AE290E02AE230E0F90120812064FC01C5
:1007200020838AE290E02AE230E0F90120812F7BE9
:10073000FC01208389818F5F898399818A81981741
:1007400038F300000F900F90DF91CF910895CF9371
:10075000DF9300D0CDB7DEB78A838BE290E02BE247
:1007600030E0F90120812F7BFC012083198215C024
:100770008AE290E02AE230E0F90120812064FC0165
:1007800020838AE290E02AE230E0F90120812F7B89
:10079000FC01208389818F5F898399818A819817E1
:1007A00038F300000F900F90DF91CF910895CF9311
:1007B000DF931F92CDB7DEB789838981813410F032
:1007C00080E4898380E40E94A70389810E947703E3
:1007D00000000F90DF91CF910895CF93DF93CDB7B5
:1007E000DEB70E945D0380E40E94A7030E944303DA
:1007F0000000DF91CF9108958F929F92AF92BF92A8
:10080000CF92DF92EF92FF920F931F93CF93DF93DC
:100810001F92CDB7DEB789838981853610F084E6D3
:10082000898380E890E022E2FC01208381E890E067
:1008300028E0FC01208384E890E0FC011182108212
:100840000F2EFAE88F2E912CF02D8981882F90E0C1
:10085000A0E0B0E01F921F9221E02F932FEF2F9383
:10086000A12CB12C650114E6E12EF12C00E010E082
:1008700020E030E0A901BC01CD010E9414050F90D9
:100880000F900F900F90DC01CB01F40191838083D6
:100890008FE690E0FC01108200000F90DF91CF9175
:1008A0001F910F91FF90EF90DF90CF90BF90AF908E
:1008B0009F908F900895CF93DF93CDB7DEB781E8F7
:1008C00090E021E830E0F90120812160FC012083E3
:1008D0000000DF91CF9108958F929F92AF92BF92C7
:1008E000CF92DF92EF92FF920F931F93CF93DF93FC
:1008F0001F92CDB7DEB789838981853610F084E6F3
:1009000089830F2EFAE88F2E912CF02D8981882F64
:1009100090E0A0E0B0E01F921F9221E02F932FEF14
:100920002F93A12CB12C650114E6E12EF12C00E0EF
:1009300010E020E030E0A901BC01CD010E941405C7
:100940000F900F900F900F90DC01CB01F401918379
:10095000808300000F90DF91CF911F910F91FF9046
:10096000EF90DF90CF90BF90AF909F908F900895C1
:10097000CF93DF9300D000D0CDB7DEB79C838B83BD
:1009800084E490E022E0FC01208385E490E0FC0117
:10099000108285E390E022E0FC0120838EE690E067
:1009A000FC01108286E490E0FC01108287E490E074
:1009B0002DE4FC01208385E490E025E430E0F9019A
:1009C00020812460FC0120831A82198215C0000056
:1009D00085E390E0FC018081882F90E08270992768
:1009E000892BB1F385E390E022E0FC01208389812B
:1009F0009A8101969A83898329813A818B819C818E
:100A00002817390720F385E490E025E430E0F90168
:100A10002081287FFC01208300000F900F900F9011
:100A20000F90DF91CF910895AF92BF92CF92DF9256
:100A3000EF92FF920F931F93CF93DF93CDB7DEB763
:100A400060970FB6F894DEBF0FBECDBF69837A837F
:100A50008B839C832D833E834F835887E986FA8658
:100A60000B871C87AD86BE86CF86D88A29813A81BE
:100A70004B815C818D819E81AF81B88579018A012E
:100A8000E81AF90A0A0B1B0B2D8D3E8D4F8D58A1CC
:100A90008D859E85AF85B88959016A01A81AB90A62
:100AA000CA0ADB0AD601C501A8019701BC01CD0124
:100AB0000E94D0057B018C0129853A854B855C8598
:100AC0008D819E81AF81B885281B390B4A0B5B0B4A
:100AD000C801B7010E94E005DA01C9019C01AD011E
:100AE0008D859E85AF85B889820F931FA41FB51F82
:100AF000BC01CD0160960FB6F894DEBF0FBECDBF2E
:100B0000DF91CF911F910F91FF90EF90DF90CF90E9
:100B1000BF90AF900895CF93DF93CDB7DEB72897FE
:100B20000FB6F894DEBF0FBECDBF9F838E8368875C
:100B300019821A8227C08A81882F90E02E813F81F6
:100B4000820F931FFC0180818C831B8215C09981C9
:100B50008C81892780788D838981880F89838D8115
:100B6000882321F0998187E0892789838C81880FE8
:100B70008C838B818F5F8B838B81883040F38A815C
:100B80008F5F8A839A8188859817A8F28981289631
:100B90000FB6F894DEBF0FBECDBFDF91CF910895A1
:100BA000DB018F939F930E940506BF91AF91A29F97
:100BB000800D911DA39F900DB29F900D112408955B
:100BC000052E97FB1EF400940E94F70557FD07D0F1
:100BD0000E94100607FC03D04EF40C94F7055095C4
:100BE0004095309521953F4F4F4F5F4F0895909519
:100BF0008095709561957F4F8F4F9F4F0895EE0FB1
:100C0000FF1F0590F491E02D09940E943206A59FE4
:100C1000900DB49F900DA49F800D911D11240895F7
:100C2000A1E21A2EAA1BBB1BFD010DC0AA1FBB1FF0
:100C3000EE1FFF1FA217B307E407F50720F0A21B62
:100C4000B30BE40BF50B661F771F881F991F1A94CF
:100C500069F760957095809590959B01AC01BD01F9
:100C6000CF010895A29FB001B39FC001A39F700D53
:100C7000811D1124911DB29F700D811D1124911DA4
:060C80000895F894FFCF77
:020C8600113328
:00000001FF
