S0190000636C757374657277696E6B5F6D6B5F69692E73726563E8
S11300000C9477000C9449020C9494000C94940082
S11300100C9494000C94D0060C9494000C949400CA
S11300200C9494000C94F7030C9494000C94940096
S11300300C9494000C9494000C9494000C949400EC
S11300400C9494000C9494000C9494000C947705F4
S11300500C9494000C9494000C9494000C949400CC
S11300600C9494000C9494000C9494000C949400BC
S11300700C9494000C9494000C949400AE05C70561
S1130080E0059A06B506B506B5062A0737074407FC
S11300905F0762070209020902090209020902094B
S11300A0020902090209020902094B0858086508F5
S11300B002090209020902090209020902090209E4
S11300C0020902090209020902096F087A080209F1
S11300D002090209020902090209020902090209C4
S11300E0020902090209020902099D08A80811244B
S11300F01FBECFEFD8E0DEBFCDBF11E0A0E0B1E07E
S1130100ECE1F3E202C005900D92AE33B107D9F7EA
S113011022E0AEE3B1E001C01D92AD32B207E1F7D7
S11301200E941F090C948C110C940000CF93DF9350
S1130130CDB7DEB7F89481E0DF91CF910895CF93E6
S1130140DF9300D0CDB7DEB79A8389838FE590E043
S113015029813A81F9012081FC01208300000F905C
S11301600F90DF91CF910895CF93DF9300D000D00B
S1130170CDB7DEB79C838B838FE590E0FC01808153
S11301808A830E949600898319C02B813C818B81CC
S11301909C8180589F4FFC01318320832B813C81BB
S11301A08B819C818E579F4FFC01318320838B81EF
S11301B09C818C579F4FFC0110821982898188236E
S11301C021F7CE0102960E949F0000000F900F902D
S11301D00F900F90DF91CF910895CF93DF9300D0CC
S11301E000D01F92CDB7DEB79C838B836D838B8148
S11301F09C8180589F4FFC01808191812D81FC015D
S113020020838B819C8180589F4FFC018081918148
S11302109C012F5F3F4F8B819C8180589F4FFC0135
S1130220318320838B819C8180589F4FFC012081E6
S113023031818B819C8180589F4F2817390749F45D
S11302402B813C818B819C8180589F4FFC013183A1
S113025020838FE590E0FC0180818A830E949600D0
S113026089830FC08B819C818C579F4FFC018081B7
S113027021E0280F8B819C818C579F4FFC012083A8
S113028019828981882371F7CE0102960E949F000A
S113029000000F900F900F900F900F90DF91CF916F
S11302A00895CF93DF9300D000D01F92CDB7DEB76F
S11302B09D838C838C819D818E579F4FFC0180810F
S11302C09181FC0180818A838C819D818E579F4F0F
S11302D0FC01808191819C012F5F3F4F8C819D8126
S11302E08E579F4FFC01318320838C819D818E57D3
S11302F09F4FFC01208131818C819D8180589F4FCB
S11303002817390749F42C813D818C819D818E57B2
S11303109F4FFC01318320838FE590E0FC018081B5
S11303208B830E94960089830FC08C819D818C579A
S11303309F4FFC0180812FEF280F8C819D818C576A
S11303409F4FFC01208319828981882371F7CE0194
S113035003960E949F008A810F900F900F900F9038
S11303600F90DF91CF910895CF93DF9300D000D009
S113037000D0CDB7DEB79D838C836E8319828C81C8
S11303809D818E579F4FFC01808191819B838A833D
S11303901CC08A819B81FC0190818E81981719F47D
S11303A089818F5F89838A819B8101969B838A835C
S11303B08C819D8180589F4F2A813B812817390762
S11303C021F48C819D819B838A838C819D818058BB
S11303D09F4FFC01208131818A819B812817390735
S11303E0C1F6898126960FB6F894DEBF0FBECDBF45
S11303F0DF91CF910895CF93DF93CDB7DEB72997DF
S11304000FB6F894DEBF0FBECDBF9D838C837F8370
S11304106E83488729871A8219828C819D810E9464
S113042051018B839B8188859817D1F48985882312
S113043071F02E813F8189819A81820F931F2B81D4
S1130440FC01208389819A8101969A8389832E8174
S11304503F8189819A81820F931FFC0110820FC012
S11304602E813F8189819A81820F931F2B81FC0108
S1130470208389819A8101969A838983CECF000053
S113048029960FB6F894DEBF0FBECDBFDF91CF9192
S113049008951F920F9200905F000F9211242F93E2
S11304A03F934F938F939F93EF93FF93CF93DF9358
S11304B0CDB7DEB780913F01882309F4B2C08091A3
S11304C03C01843108F083C180913E01882F90E083
S11304D081309105D9F18230910509F46BC0892BE3
S11304E009F075C182E290E022E230E0F901208156
S11304F0322F3F7020914201207F232BFC01208367
S113050085E290E025E230E0F9012081322F307F4E
S1130510209142012F70232BFC0120838BE290E079
S11305202BE230E0F90120812860FC0120838BE27A
S113053090E02BE230E0F9012081277FFC01208349
S113054080913E018F5F80933E0141C182E290E041
S113055022E230E0F9012081322F3F7020914101E5
S1130560207F232BFC01208385E290E025E230E00C
S1130570F9012081322F307F209141012F70232BEC
S1130580FC0120838BE290E02BE230E0F901208132
S11305902860FC0120838BE290E02BE230E0F9013B
S11305A02081277FFC01208380913E018F5F80930F
S11305B03E010DC182E290E022E230E0F9012081A7
S11305C0322F3F7020913D01207F232BFC0120839B
S11305D085E290E025E230E0F9012081322F307F7E
S11305E020913D012F70232BFC0120838BE290E0AE
S11305F02BE230E0F90120812860FC0120838BE2AA
S113060090E02BE230E0F9012081277FFC01208378
S113061010923E0180913C018F5F80933C01000069
S1130620D6C080913C01843108F0D1C080913E0154
S1130630882F90E08130910509F447C082309105FC
S113064009F483C0892B09F0C2C082E290E022E25F
S113065030E0F9012081422F4F7020913C01222F7C
S113066030E02C5E3E4FF9012081207F242BFC01D9
S1130670208385E290E025E230E0F9012081422FD9
S1130680407F20913C01222F30E02C5E3E4FF90147
S113069020812F70242BFC0120838BE290E02BE23D
S11306A030E0F90120812860FC0120838BE290E096
S11306B02BE230E0F9012081277FFC012083809127
S11306C03E018F5F80933E0182C082E290E022E28D
S11306D030E0F9012081422F4F7020913C01222FFC
S11306E030E020503F4FF9012081207F242BFC0172
S11306F0208385E290E025E230E0F9012081422F59
S1130700407F20913C01222F30E020503F4FF901DF
S113071020812F70242BFC0120838BE290E02BE2BC
S113072030E0F90120812860FC0120838BE290E015
S11307302BE230E0F9012081277FFC0120838091A6
S11307403E018F5F80933E0142C082E290E022E24C
S113075030E0F9012081422F4F7020913C01222F7B
S113076030E0285D3E4FF9012081207F242BFC01DD
S1130770208385E290E025E230E0F9012081422FD8
S1130780407F20913C01222F30E0285D3E4FF9014B
S113079020812F70242BFC0120838BE290E02BE23C
S11307A030E0F90120812860FC0120838BE290E095
S11307B02BE230E0F9012081277FFC012083109295
S11307C03E0180913C018F5F80933C01000000005A
S11307D0DF91CF91FF91EF919F918F914F913F9135
S11307E02F910F9000925F000F901F9018951F9209
S11307F00F9200905F000F921124AF92BF92CF929C
S1130800DF92EF92FF920F931F932F933F934F9397
S11308105F936F937F938F939F93AF93BF93EF9364
S1130820FF93CF93DF93CDB7DEB780916201882326
S113083009F4E7C080916101882309F472C08091B2
S11308405D0190915E01A0915F01B09160010196FC
S1130850A11DB11D80935D0190935E01A0935F0182
S1130860B093600120915D0130915E0140915F0180
S1130870509160018091590190915A01A0915B01BE
S1130880B0915C01281739074A075B0708F4B9C01F
S113089010925D0110925E0110925F01109260014E
S11308A0809157019091580101969093580180933B
S11308B0570180915701909158010E94FC0E80913C
S11308C0570190915801CC01A0E0B0E01F921F9213
S11308D01F9224E62F93A12CB12C6501E12CF12C5D
S11308E08701EA94F39420E030E0A901BC01CD0132
S11308F00E9442100F900F900F900F90DC01CB01DB
S113090080932C022091570130915801809153011A
S1130910909154012817390708F473C010926201AA
S113092070C080915D0190915E01A0915F01B091D2
S113093060010196A11DB11D80935D0190935E013C
S1130940A0935F01B093600120915D0130915E013D
S113095040915F01509160018091590190915A0139
S1130960A0915B01B0915C01281739074A075B0726
S113097008F447C010925D0110925E0110925F016D
S113098010926001809157019091580101979093C2
S113099058018093570180915701909158010E940A
S11309A0FC0E8091570190915801CC01A0E0B0E079
S11309B01F921F921F9224E62F93A12CB12C650144
S11309C0E12CF12C8701EA94F39420E030E0A901B2
S11309D0BC01CD010E9442100F900F900F900F9018
S11309E0DC01CB0180932C022091570130915801F6
S11309F080915301909154018217930710F0109243
S1130A00620180914F01882309F448C08091490113
S1130A10882371F180914A018823C1F480914D01AA
S1130A2090914E01019690934E0180934D01209137
S1130A304D0130914E0180914B0190914C0128174A
S1130A40390760F181E080934A0128C080914D010B
S1130A5090914E01019790934E0180934D018091A6
S1130A604D0190914E01892BC9F410924A0116C090
S1130A7080914D0190914E01019690934E01809387
S1130A804D0120914D0130914E0180914B01909187
S1130A904C012817390710F010924F018091400142
S1130AA0882341F01092400110923E0110923C01C3
S1130AB00E9449020000DF91CF91FF91EF91BF9115
S1130AC0AF919F918F917F916F915F914F913F91E2
S1130AD02F911F910F91FF90EF90DF90CF90BF90D7
S1130AE0AF900F9000925F000F901F9018951F9287
S1130AF00F9200905F000F9211242F933F934F9316
S1130B005F936F937F938F939F93AF93BF93EF9371
S1130B10FF93CF93DF931F92CDB7DEB78EE490E0BF
S1130B20FC01808189838EE490E0FC011082809135
S1130B302A02882F90E0092E000CAA0BBB0B40E080
S1130B4050E026E030E0841B950B2817390708F4A1
S1130B5011C1825C9F4FFC010C9463118981833025
S1130B6090F080912802882F90E088519E4F29812F
S1130B70FC012083809128028F5F8093280281E00A
S1130B8080932A02F7C082E080932A02F3C0809106
S1130B902802882F90E088519E4F2981FC012083F0
S1130BA0809128028F5F809328029091280280917F
S1130BB0E801981708F4DBC084E080932A02D7C0C8
S1130BC0109228028981882F90E0823F910579F163
S1130BD0833F910524F4813F910551F0A6C0833FE2
S1130BE0910509F443C0843F910509F45EC09DC09A
S1130BF08EE490E021E0FC01208384E08093E8010E
S1130C0089818093E90180912B028093EA0163E05A
S1130C1088EE91E00E94B9108093EB0184E0809308
S1130C2028021092290283E080932A0282C08EE473
S1130C3090E021E0FC01208384E08093E801898135
S1130C408093E90180912C028093EA0163E088EEAD
S1130C5091E00E94B9108093EB0184E08093280214
S1130C601092290283E080932A0263C08EE490E00C
S1130C7021E0FC01208384E08093E8018981809352
S1130C80E9010E94530F8093EA0163E088EE91E04A
S1130C900E94B9108093EB0184E0809328021092A3
S1130CA0290283E080932A0244C08EE490E021E08C
S1130CB0FC01208380916201882309F187E08093FD
S1130CC0E80189818093E901809150018093EA01D0
S1130CD0809151018093EB01809152018093EC014A
S1130CE080912C028093ED0166E088EE91E00E94F1
S1130CF0B9108093EE0187E08093280210C083E04E
S1130D008093E80189818093E90162E088EE91E0B3
S1130D100E94B9108093EA0183E080932802109224
S1130D20290283E080932A0204C086E080932A0289
S1130D30000020C08EE490E020912902222F30E0B0
S1130D4028513E4FF9012081FC0120838091290222
S1130D508F5F80932902909128028091290298172D
S1130D6041F485E080932A0204C0000003C000001F
S1130D7001C0000000000F90DF91CF91FF91EF912F
S1130D80BF91AF919F918F917F916F915F914F919F
S1130D903F912F910F9000925F000F901F90189534
S1130DA01F920F9200905F000F921124AF92BF9296
S1130DB0CF92DF92EF92FF920F931F932F933F9363
S1130DC04F935F936F937F938F939F93AF93BF934F
S1130DD0EF93FF93CF93DF93CDB7DEB78EE490E02C
S1130DE0FC01108283E290E0FC018081882F90E076
S1130DF080719927892B09F4F3C180912A028430E8
S1130E0009F000C2909128028091E801981709F036
S1130E10F9C180912802682F88EE91E00E94B910F0
S1130E20882309F0EFC18091E901882F90E0092E11
S1130E30000CAA0BBB0B41E150E021E330E0841B22
S1130E40950B2817390708F4DDC18B5B9F4FFC0114
S1130E500C94631180912802833009F0C6C10E946A
S1130E60940D80912B02816080932B02BEC18091EE
S1130E702802833009F0BBC10E94A50D80912B028A
S1130E808E7F80932B02B3C180912802843009F0B5
S1130E90B0C180916201882309F0ABC18091EA015D
S1130EA0853620F084E680932C0204C08091EA0108
S1130EB080932C0280912C020E94B00E9AC1109251
S1130EC06201A0C180912802863009F094C180910A
S1130ED0EA01853620F084E68093500104C08091B5
S1130EE0EA01809350018091EB01853620F084E67D
S1130EF08093510104C08091EB0180935101809152
S1130F005001882F90E0A0E0B0E01F921F9221E0F2
S1130F102F932FEF2F93A12CB12C650114E6E12E12
S1130F20F12C00E010E020E030E0A901BC01CD018B
S1130F300E9442100F900F900F900F90DC01CB0194
S1130F40909356018093550180915101882F90E030
S1130F50A0E0B0E01F921F9221E02F932FEF2F9378
S1130F60A12CB12C650114E6E12EF12C00E010E077
S1130F7020E030E0A901BC01CD010E9442100F9095
S1130F800F900F900F90DC01CB019093540180934C
S1130F9053018091EC01809352018091550190910D
S1130FA056010E94FC0E8091500180932C02809186
S1130FB055019091560190935801809357011092D6
S1130FC05D0110925E0110925F0110926001909198
S1130FD0500180915101981758F580915201282FA2
S1130FE030E080E797E1289FA001299F500D389FAA
S1130FF0500D1124209153013091540180915501D9
S113100090915601281B390BCA01B9010E940E1197
S1131010CB01CC01A0E0B0E08093590190935A0138
S1131020A0935B01B0935C0181E0809361012FC0C8
S11310309091500180915101891748F58091520196
S1131040282F30E080E797E1289FA001299F500DC9
S1131050389F500D112420915501309156018091F3
S1131060530190915401281B390BCA01B9010E9404
S11310700E11CB01CC01A0E0B0E080935901909314
S11310805A01A0935B01B0935C011092610181E06D
S113109080936201B0C080912802833009F0ADC012
S11310A00E94D00D80912B02826080932B02A5C0F8
S11310B080912802833009F0A2C00E94B60D80916D
S11310C02B028D7F80932B029AC08091280284305A
S11310D009F097C08091EA010E944A0E92C061E330
S11310E083E691E00E94ED006FEF83E691E00E94B9
S11310F0ED0088C0809128028630F9F462E383E62B
S113110091E00E94ED008091EA01682F83E691E06E
S11311100E94ED008091EB01682F83E691E00E942C
S1131120ED008091EC01682F83E691E00E94ED00D0
S11311306FEF83E691E00E94ED0061E483E691E0C5
S11311400E94ED006FEF83E691E00E94ED005AC02B
S1131150809128028B3009F055C062E483E691E067
S11311600E94ED008091EA01682F83E691E00E94DD
S1131170ED008091EB01682F83E691E00E94ED0081
S11311808091EC01682F83E691E00E94ED0080914C
S1131190ED01682F83E691E00E94ED008091EE015D
S11311A0682F83E691E00E94ED008091EF01682FA3
S11311B083E691E00E94ED008091F001682F83E6C0
S11311C091E00E94ED008091F101682F83E691E0A7
S11311D00E94ED006FEF83E691E00E94ED0012C0E3
S11311E01092280210922A020DC000000BC00000C9
S11311F009C0000007C0000005C0000003C00000D3
S113120001C000000000DF91CF91FF91EF91BF91E9
S1131210AF919F918F917F916F915F914F913F918A
S11312202F911F910F91FF90EF90DF90CF90BF907F
S1131230AF900F9000925F000F901F901895DF926F
S1131240EF92FF920F931F93CF93DF93CDB7DEB747
S113125028970FB6F894DEBF0FBECDBF0E94060DCF
S11312600E94190F80E090E00E946F0E0E949F0E72
S113127088EE91E00E94940C0E94B40C0E94E70C4A
S113128083E691E00E94B4000E944D0C0E94320C4F
S11312900E94B90F84E690E00E94E60F0E94600E5F
S11312A0789410923F0110923E0110923C010E94EA
S11312B0490284E690E00E94E60F61E383E691E050
S11312C00E94ED006FEF83E691E00E94ED0062E37F
S11312D083E691E00E94ED0061E083E691E00E94E4
S11312E0ED0061E083E691E00E94ED0060E183E6B9
S11312F091E00E94ED006FEF83E691E00E94ED0023
S113130061E383E691E00E94ED006FEF83E691E0F4
S11313100E94ED0062E383E691E00E94ED0061E04B
S113132083E691E00E94ED0061E083E691E00E9493
S1131330ED0060E183E691E00E94ED006FEF83E64B
S113134091E00E94ED0061E383E691E00E94ED00EC
S11313506FEF83E691E00E94ED0062E383E691E0A3
S11313600E94ED0061E083E691E00E94ED0061E0FF
S113137083E691E00E94ED0060E183E691E00E9443
S1131380ED006FEF83E691E00E94ED0061E383E6F8
S113139091E00E94ED006FEF83E691E00E94ED0082
S11313A062E383E691E00E94ED0061E083E691E070
S11313B00E94ED0061E083E691E00E94ED0060E1AF
S11313C083E691E00E94ED006FEF83E691E00E94D6
S11313D0ED0061E383E691E00E94ED006FEF83E6A8
S11313E091E00E94ED0062E383E691E00E94ED004B
S11313F061E083E691E00E94ED0061E083E691E024
S11314000E94ED0060E183E691E00E94ED006FEF41
S113141083E691E00E94ED0080914F01882309F456
S11314209BC16FEF83E691E00E94B401882309F425
S11314304FC020E04FEFCE010196BC0183E691E05E
S11314400E94FB018981882F90E08134910521F06D
S11314508234910521F03CC010924F0139C0CE0175
S113146001960E948311099791F58A818150809396
S113147043018B818150809344018C8181508093FE
S113148045018D818150809346018E8181508093E6
S113149047018F818150809348018885282F30E04F
S11314A048EC429FC001439F900D112490934C013E
S11314B080934B01898581508093490110924A01A0
S11314C010924E0110924D0181E080934F01000073
S11314D080914001882309F09FCF9091430180912E
S11314E04601981788F580914601282F30E08091B5
S11314F04301882F90E0A901481B590BCA019C01A4
S1131500990F440B550B80914D0190914E01CC01E4
S1131510A0E0B0E0BC01CD010E94FE107B018C0173
S113152080914B0190914C019C0140E050E0C80136
S1131530B7010E942211DA01C901982F8091430159
S1131540890F8093410131C0D090430180914301C0
S1131550282F30E080914601882F90E0A901481B94
S1131560590BCA019C01990F440B550B80914D01F5
S113157090914E01CC01A0E0B0E0BC01CD010E94ED
S1131580FE107B018C0180914B0190914C019C01D8
S113159040E050E0C801B7010E942211DA01C901FC
S11315A05D2D581B852F80934101909144018091BA
S11315B04701981788F580914701282F30E08091E2
S11315C04401882F90E0A901481B590BCA019C01D2
S11315D0990F440B550B80914D0190914E01CC0114
S11315E0A0E0B0E0BC01CD010E94FE107B018C01A3
S11315F080914B0190914C019C0140E050E0C80166
S1131600B7010E942211DA01C901982F8091440187
S1131610890F8093420131C0D090440180914401EC
S1131620282F30E080914701882F90E0A901481BC2
S1131630590BCA019C01990F440B550B80914D0124
S113164090914E01CC01A0E0B0E0BC01CD010E941C
S1131650FE107B018C0180914B0190914C019C0107
S113166040E050E0C801B7010E942211DA01C9012B
S11316705D2D581B852F80934201909145018091E7
S11316804801981788F580914801282F30E080910F
S11316904501882F90E0A901481B590BCA019C0100
S11316A0990F440B550B80914D0190914E01CC0143
S11316B0A0E0B0E0BC01CD010E94FE107B018C01D2
S11316C080914B0190914C019C0140E050E0C80195
S11316D0B7010E942211DA01C901982F80914501B6
S11316E0890F80933D0131C0D0904501809145011F
S11316F0282F30E080914801882F90E0A901481BF1
S1131700590BCA019C01990F440B550B80914D0153
S113171090914E01CC01A0E0B0E0BC01CD010E944B
S1131720FE107B018C0180914B0190914C019C0136
S113173040E050E0C801B7010E942211DA01C9015A
S11317405D2D581B852F80933D0181E080933F01DF
S113175081E08093400160CE6FEF83E691E00E94C8
S1131760B401882309F458CE80914001882309F0FC
S113177053CE20E04FEFCE010196BC0183E691E009
S11317800E94FB018981882F90E08233910599F0B2
S11317908234910551F1C19709F063C0109241015F
S11317A01092420110923D0181E080933F0181E05B
S11317B08093400156C0CE0101960E948311049784
S11317C009F04CC08A818150809341018B81815002
S11317D0809342018C81815080933D0181E080930C
S11317E03F0181E08093400139C0CE0101960E94FF
S11317F083110997A9F58A818150809343018B81D4
S11318008150809344018C818150809345018D8166
S11318108150809346018E818150809347018F814E
S11318208150809348018885282F30E048EC429FFE
S1131830C001439F900D112490934C0180934B0160
S1131840898581508093490110924A0110924E017A
S113185010924D0181E080934F0102C00000DCCD65
S11318600000DACDCF93DF93CDB7DEB789E690E001
S113187029E630E0F90120812260FC0120838CE319
S113188090E021E0FC0120838DE390E021E0FC0165
S113189020830000DF91CF910895CF93DF93CDB7DC
S11318A0DEB784E290E024E230E0F90120812F6089
S11318B0FC01208385E290E025E230E0F9012081FB
S11318C0207FFC01208381E290E021E230E0F901F5
S11318D02081206FFC01208382E290E022E230E04C
S11318E0F90120812F70FC0120838AE290E02AE232
S11318F030E0F90120812860FC0120838BE290E034
S11319002BE230E0F9012081277FFC0120838AE269
S113191090E02AE230E0F90120812B7FFC01208352
S11319200000DF91CF910895CF93DF9300D0CDB71E
S1131930DEB79A83898389819A81805C9F4FFC01F9
S1131940108289819A818F5B9F4FFC01108289816B
S11319509A818E5B9F4F26E0FC01208300000F904C
S11319600F90DF91CF910895CF93DF931F92CDB75E
S1131970DEB78DE490E0FC0110828CE490E020E876
S1131980FC0120838DE490E0FC01808189838EE456
S113199090E0FC01808189838EE490E0FC01108258
S11319A084E290E024E230E0F90120812064FC012B
S11319B020838CE490E02CE430E0F9012081206461
S11319C0FC01208300000F90DF91CF910895CF9305
S11319D0DF93CDB7DEB788E690E028E630E0F90182
S11319E020812260FC0120838BE390E022E0FC0153
S11319F020838CE690E02CE630E0F9012081206120
S1131A00FC0120830000DF91CF910895CF93DF93F1
S1131A10CDB7DEB78AE290E02AE230E0F901208116
S1131A202063FC0120838BE290E02BE230E0F9019B
S1131A3020812062FC0120838BE290E02BE230E0E5
S1131A40F90120812F7EFC0120838AE290E02AE2C2
S1131A5030E0F90120812068FC0120838BE290E0D2
S1131A602BE230E0F90120812068FC0120838AE226
S1131A7090E02AE230E0F90120812F7BFC012083F1
S1131A808AE290E02AE230E0F90120812C7FFC0117
S1131A9020838BE290E02BE230E0F9012081216089
S1131AA0FC01208381E290E021E230E0F901208111
S1131AB02E7FFC01208382E290E022E230E0F901F3
S1131AC020812E7FFC0120838EE790E02EE730E01A
S1131AD0F90120812160FC01208381E290E021E270
S1131AE030E0F9012081217FFC01208382E290E033
S1131AF022E230E0F90120812E60FC01208387E29C
S1131B0090E0FC01808187E290E0FC01108288E291
S1131B1090E0FC01808188E290E02FEFFC012083BB
S1131B200000DF91CF910895CF93DF93CDB7DEB757
S1131B308BE290E02BE230E0F90120812F7DFC0163
S1131B4020830000DF91CF910895CF93DF93CDB729
S1131B50DEB78BE290E02BE230E0F90120812062D5
S1131B60FC0120830000DF91CF910895CF93DF9390
S1131B70CDB7DEB78BE290E02BE230E0F9012081B3
S1131B802068FC0120838AE290E02AE230E0F90137
S1131B9020812068FC0120830000DF91CF9108950B
S1131BA0CF93DF93CDB7DEB78BE290E02BE230E04A
S1131BB0F90120812F77FC0120838AE290E02AE258
S1131BC030E0F90120812068FC0120830000DF91CE
S1131BD0CF910895CF93DF9300D0CDB7DEB78A833A
S1131BE08BE290E02BE230E0F90120812064FC01DB
S1131BF02083198215C08AE290E02AE230E0F901DC
S1131C0020812064FC0120838AE290E02AE230E013
S1131C10F90120812F7BFC01208389818F5F8983D7
S1131C2099818A81981738F300000F900F90DF9103
S1131C30CF910895CF93DF9300D0CDB7DEB78A83D9
S1131C408BE290E02BE230E0F90120812F7BFC0154
S1131C502083198215C08AE290E02AE230E0F9017B
S1131C6020812064FC0120838AE290E02AE230E0B3
S1131C70F90120812F7BFC01208389818F5F898377
S1131C8099818A81981738F300000F900F90DF91A3
S1131C90CF910895CF93DF931F92CDB7DEB7898399
S1131CA08981813410F080E4898380E40E941A0ED3
S1131CB089810E94EA0D00000F90DF91CF91089571
S1131CC0CF93DF93CDB7DEB70E94D00D80E40E949E
S1131CD01A0E0E94B60D0000DF91CF910895CF93A4
S1131CE0DF9300D0CDB7DEB79A83898389819A8147
S1131CF08115924020F08FEF91E09A83898380E8E8
S1131D0090E022E2FC01208381E890E028E0FC01DD
S1131D10208384E890E0FC01118210828AE890E03C
S1131D2029813A81FC01318320838FE690E0FC0114
S1131D30108200000F900F90DF91CF910895CF9300
S1131D40DF93CDB7DEB781E890E021E830E0F90118
S1131D5020812160FC0120830000DF91CF91089550
S1131D608F929F92AF92BF92CF92DF92EF92FF92A7
S1131D700F931F93CF93DF931F92CDB7DEB7898361
S1131D808981853610F084E689830F2EFAE88F2E38
S1131D90912CF02D8981882F90E0A0E0B0E01F9273
S1131DA01F9221E02F932FEF2F93A12CB12C6501CB
S1131DB014E6E12EF12C00E010E020E030E0A9016F
S1131DC0BC01CD010E9442100F900F900F900F9014
S1131DD0DC01CB01F4019183808300000F90DF913B
S1131DE0CF911F910F91FF90EF90DF90CF90BF9014
S1131DF0AF909F908F900895CF93DF9300D0CDB78D
S1131E00DEB79A83898389819A818115924020F073
S1131E108FEF91E09A8389838AE890E029813A815F
S1131E20FC013183208300000F900F90DF91CF914C
S1131E300895CF93DF93CDB7DEB781E290E021E23E
S1131E4030E0F90120812E7FFC0120838EE790E0B1
S1131E502EE730E0F90120812160FC0120838CE72A
S1131E6090E020E6FC0120838AE790E027E3FC0170
S1131E7020838BE790E0FC0110828AE790E02AE758
S1131E8030E0F90120812068FC0120838AE790E09A
S1131E902AE730E0F90120812064FC01208300005E
S1131EA0DF91CF910895AF92BF92CF92DF92EF92DC
S1131EB0FF920F931F93CF93DF9300D000D0CDB741
S1131EC0DEB789E790E0FC018081882F90E0A0E0F4
S1131ED0B0E01F921F9221E02F9322EC2F930F2E3C
S1131EE0FEECAF2EBB24BA94CB2CDB2CF02DE12CD2
S1131EF0F12C8701EA9420E030E0A901BC01CD0176
S1131F000E9442100F900F900F900F90DC01CB01B4
S1131F1089839A83AB83BC8389819A81AB81BC8199
S1131F20BB232CF419821A821B821C8212C0898161
S1131F309A81AB81BC818F3F9105A105B10549F020
S1131F4044F08FEF90E0A0E0B0E089839A83AB8304
S1131F50BC8389810F900F900F900F90DF91CF91E8
S1131F601F910F91FF90EF90DF90CF90BF90AF90B3
S1131F700895CF93DF93CDB7DEB780EB90E022E0F6
S1131F80FC01208381EB90E0FC01108282EB90E065
S1131F90FC01108283EB90E020E6FC01208380E7C3
S1131FA090E022E0FC01208387E390E022E0FC0142
S1131FB0208381EB90E021EB30E0F9012081276060
S1131FC0FC0120830000DF91CF910895CF93DF932C
S1131FD000D000D0CDB7DEB79C838B8384E490E03F
S1131FE022E0FC01208385E490E0FC01108285E37B
S1131FF090E022E0FC0120838EE690E0FC01108258
S113200086E490E0FC01108287E490E02DE4FC017A
S1132010208385E490E025E430E0F9012081246008
S1132020FC0120831A82198215C0000085E390E028
S1132030FC018081882F90E082709927892BB1F36D
S113204085E390E022E0FC01208389819A81019656
S11320509A83898329813A818B819C812817390746
S113206020F385E490E025E430E0F9012081287F25
S1132070FC01208300000F900F900F900F90DF91D0
S1132080CF910895AF92BF92CF92DF92EF92FF92D9
S11320900F931F93CF93DF93CDB7DEB760970FB63F
S11320A0F894DEBF0FBECDBF69837A838B839C8394
S11320B02D833E834F835887E986FA860B871C87D6
S11320C0AD86BE86CF86D88A29813A814B815C81D0
S11320D08D819E81AF81B88579018A01E81AF90A58
S11320E00A0B1B0B2D8D3E8D4F8D58A18D859E8522
S11320F0AF85B88959016A01A81AB90ACA0ADB0A64
S1132100D601C501A8019701BC01CD010E94FE10B2
S11321107B018C0129853A854B855C858D819E8167
S1132120AF81B885281B390B4A0B5B0BC801B7017B
S11321300E944411DA01C9019C01AD018D859E857F
S1132140AF85B889820F931FA41FB51FBC01CD01B1
S113215060960FB6F894DEBF0FBECDBFDF91CF916E
S11321601F910F91FF90EF90DF90CF90BF90AF90B1
S11321700895CF93DF93CDB7DEB728970FB6F894C1
S1132180DEBF0FBECDBF9F838E83688719821A82FC
S113219027C08A81882F90E02E813F81820F931F70
S11321A0FC0180818C831B8215C099818C818927D5
S11321B080788D838981880F89838D81882321F09C
S11321C0998187E0892789838C81880F8C838B810F
S11321D08F5F8B838B81883040F38A818F5F8A8302
S11321E09A8188859817A8F2898128960FB6F89461
S11321F0DEBF0FBECDBFDF91CF910895DB018F937A
S11322009F930E946911BF91AF91A29F800D911D70
S1132210A39F900DB29F900D11240895AA1BBB1B80
S113222051E107C0AA1FBB1FA617B70710F0A61BD2
S1132230B70B881F991F5A95A9F780959095BC01F3
S1132240CD010895A1E21A2EAA1BBB1BFD010DC0EE
S1132250AA1FBB1FEE1FFF1FA217B307E407F50752
S113226020F0A21BB30BE40BF50B661F771F881F2E
S1132270991F1A9469F760957095809590959B01C4
S1132280AC01BD01CF010895052E97FB1EF4009407
S11322900E945B1157FD07D00E94221107FC03D056
S11322A04EF40C945B1150954095309521953F4F19
S11322B04F4F5F4F089590958095709561957F4F2E
S11322C08F4F9F4F0895EE0FFF1F0590F491E02D5F
S11322D009940E947411A59F900DB49F900DA49F22
S11322E0800D911D11240895A29FB001B39FC001D8
S11322F0A39F700D811D1124911DB29F700D811D2E
S11323001124911D0895FC0101900020E9F78095A6
S10F231090958E0F9F1F0895F894FFCF46
S113231CFF0000FF0000FF0000FF0000FF0000FFB3
S113232C0000FF0000FF0000FF0000FF0000FF00A2
S113233C00FF0000FF0000FF0000FF0000FF000092
S111234CFF0000FF0000FF0000FF0000140A65
S9030000FC
